{
  "address": "0xbbb604a12C6E4F88f1fa562603BF7D9d48CDf702",
  "abi": [
    {
      "anonymous": false,
      "inputs": [
        {
          "indexed": true,
          "internalType": "address",
          "name": "previousOwner",
          "type": "address"
        },
        {
          "indexed": true,
          "internalType": "address",
          "name": "newOwner",
          "type": "address"
        }
      ],
      "name": "OwnershipTransferred",
      "type": "event"
    },
    {
      "anonymous": false,
      "inputs": [
        {
          "indexed": true,
          "internalType": "address",
          "name": "user",
          "type": "address"
        },
        {
          "indexed": false,
          "internalType": "uint256",
          "name": "amountToRedeem",
          "type": "uint256"
        },
        {
          "indexed": false,
          "internalType": "uint256",
          "name": "bonuses",
          "type": "uint256"
        }
      ],
      "name": "RewardsClaimed",
      "type": "event"
    },
    {
      "inputs": [
        {
          "internalType": "address",
          "name": "user",
          "type": "address"
        }
      ],
      "name": "_claim",
      "outputs": [
        {
          "internalType": "uint256",
          "name": "amountToRedeem",
          "type": "uint256"
        },
        {
          "internalType": "uint256",
          "name": "bonuses",
          "type": "uint256"
        }
      ],
      "stateMutability": "view",
      "type": "function"
    },
    {
      "inputs": [
        {
          "internalType": "address",
          "name": "delegateTo",
          "type": "address"
        },
        {
          "internalType": "bytes",
          "name": "callData",
          "type": "bytes"
        }
      ],
      "name": "_executeQuery",
      "outputs": [
        {
          "internalType": "bytes",
          "name": "",
          "type": "bytes"
        }
      ],
      "stateMutability": "nonpayable",
      "type": "function"
    },
    {
      "inputs": [],
      "name": "claimRewards",
      "outputs": [
        {
          "internalType": "uint256",
          "name": "amountToRedeem",
          "type": "uint256"
        },
        {
          "internalType": "uint256",
          "name": "bonuses",
          "type": "uint256"
        }
      ],
      "stateMutability": "nonpayable",
      "type": "function"
    },
    {
      "inputs": [
        {
          "internalType": "uint256",
          "name": "amount",
          "type": "uint256"
        }
      ],
      "name": "claimRewardsWithAmount",
      "outputs": [
        {
          "internalType": "uint256",
          "name": "amountToRedeem",
          "type": "uint256"
        },
        {
          "internalType": "uint256",
          "name": "bonuses",
          "type": "uint256"
        }
      ],
      "stateMutability": "nonpayable",
      "type": "function"
    },
    {
      "inputs": [],
      "name": "commitmentViolationPenalty",
      "outputs": [
        {
          "internalType": "uint256",
          "name": "penalty",
          "type": "uint256"
        }
      ],
      "stateMutability": "view",
      "type": "function"
    },
    {
      "inputs": [],
      "name": "currentCycle",
      "outputs": [
        {
          "internalType": "uint256",
          "name": "cycle",
          "type": "uint256"
        }
      ],
      "stateMutability": "view",
      "type": "function"
    },
    {
      "inputs": [
        {
          "internalType": "address",
          "name": "user",
          "type": "address"
        }
      ],
      "name": "dailyBonusesAccrued",
      "outputs": [
        {
          "internalType": "uint256",
          "name": "amount",
          "type": "uint256"
        }
      ],
      "stateMutability": "view",
      "type": "function"
    },
    {
      "inputs": [],
      "name": "fillFirstCycle",
      "outputs": [],
      "stateMutability": "nonpayable",
      "type": "function"
    },
    {
      "inputs": [
        {
          "internalType": "uint256",
          "name": "_cycleInterval",
          "type": "uint256"
        },
        {
          "internalType": "uint256",
          "name": "_rewardInterval",
          "type": "uint256"
        },
        {
          "internalType": "uint256",
          "name": "_inflateBy",
          "type": "uint256"
        },
        {
          "internalType": "uint256",
          "name": "_inflatepcnfiBy",
          "type": "uint256"
        },
        {
          "internalType": "uint256",
          "name": "_baseUnstakePenalty",
          "type": "uint256"
        },
        {
          "internalType": "uint256",
          "name": "_commitmentViolationPenalty",
          "type": "uint256"
        },
        {
          "internalType": "uint256[]",
          "name": "_multipliers",
          "type": "uint256[]"
        },
        {
          "internalType": "uint256[]",
          "name": "_cycles",
          "type": "uint256[]"
        },
        {
          "internalType": "uint256[]",
          "name": "_minimums",
          "type": "uint256[]"
        }
      ],
      "name": "govern",
      "outputs": [],
      "stateMutability": "nonpayable",
      "type": "function"
    },
    {
      "inputs": [
        {
          "internalType": "address",
          "name": "_cnfi",
          "type": "address"
        },
        {
          "internalType": "address",
          "name": "_sCnfi",
          "type": "address"
        },
        {
          "internalType": "address",
          "name": "_cnfiTreasury",
          "type": "address"
        }
      ],
      "name": "initialize",
      "outputs": [],
      "stateMutability": "nonpayable",
      "type": "function"
    },
    {
      "inputs": [],
      "name": "owner",
      "outputs": [
        {
          "internalType": "address",
          "name": "",
          "type": "address"
        }
      ],
      "stateMutability": "view",
      "type": "function"
    },
    {
      "inputs": [
        {
          "internalType": "address",
          "name": "viewLogic",
          "type": "address"
        },
        {
          "internalType": "bytes",
          "name": "payload",
          "type": "bytes"
        }
      ],
      "name": "query",
      "outputs": [
        {
          "internalType": "bytes",
          "name": "",
          "type": "bytes"
        }
      ],
      "stateMutability": "nonpayable",
      "type": "function"
    },
    {
      "inputs": [
        {
          "internalType": "address",
          "name": "a",
          "type": "address"
        },
        {
          "internalType": "address",
          "name": "b",
          "type": "address"
        }
      ],
      "name": "receiveCallback",
      "outputs": [],
      "stateMutability": "nonpayable",
      "type": "function"
    },
    {
      "inputs": [
        {
          "internalType": "address",
          "name": "sender",
          "type": "address"
        }
      ],
      "name": "receiveSingularCallback",
      "outputs": [],
      "stateMutability": "nonpayable",
      "type": "function"
    },
    {
      "inputs": [],
      "name": "renounceOwnership",
      "outputs": [],
      "stateMutability": "nonpayable",
      "type": "function"
    },
    {
      "inputs": [
        {
          "internalType": "uint256",
          "name": "amount",
          "type": "uint256"
        },
        {
          "internalType": "uint256",
          "name": "tier",
          "type": "uint256"
        }
      ],
      "name": "restakeRewardsWithAmount",
      "outputs": [],
      "stateMutability": "nonpayable",
      "type": "function"
    },
    {
      "inputs": [
        {
          "internalType": "uint256",
          "name": "amount",
          "type": "uint256"
        },
        {
          "internalType": "uint256",
          "name": "commitmentTier",
          "type": "uint256"
        }
      ],
      "name": "stake",
      "outputs": [],
      "stateMutability": "nonpayable",
      "type": "function"
    },
    {
      "inputs": [
        {
          "internalType": "address",
          "name": "newOwner",
          "type": "address"
        }
      ],
      "name": "transferOwnership",
      "outputs": [],
      "stateMutability": "nonpayable",
      "type": "function"
    },
    {
      "inputs": [
        {
          "internalType": "uint256",
          "name": "amount",
          "type": "uint256"
        }
      ],
      "name": "unstake",
      "outputs": [
        {
          "internalType": "uint256",
          "name": "withdrawable",
          "type": "uint256"
        }
      ],
      "stateMutability": "nonpayable",
      "type": "function"
    }
  ],
  "transactionHash": "0xe7f8c844fcf5571dc9e18fb0c4c67b6a57edaac3fdac42ea77286ff6a4b934b0",
  "args": [],
  "solcInputHash": "b33481514d1cc13ac140a3c54da342ba",
  "bytecode": "0x608060405234801561001057600080fd5b5061486f806100206000396000f3fe608060405234801561001057600080fd5b50600436106101215760003560e01c80637b0472f0116100ad578063c0c53b8b11610071578063c0c53b8b146102f7578063de8f84ea14610313578063ead9a68d1461031d578063f2fde38b1461034d578063fd00430c1461036957610121565b80637b0472f0146102675780637c91ad02146102835780638da5cb5b1461029f578063a3242e02146102bd578063bab2f552146102d957610121565b8063382153e0116100f4578063382153e0146101c1578063383e50e7146101dd57806338ed85b01461020e5780634dce52aa1461023f578063715018a61461025d57610121565b80630ed1ada11461012657806323e3b730146101425780632e17de7814610172578063372500ab146101a2575b600080fd5b610140600480360381019061013b9190613a38565b610399565b005b61015c60048036038101906101579190613846565b610625565b60405161016991906141fd565b60405180910390f35b61018c6004803603810190610187919061396e565b610727565b6040516101999190614571565b60405180910390f35b6101aa610c15565b6040516101b892919061458c565b60405180910390f35b6101db60048036038101906101d691906137bb565b610c2a565b005b6101f760048036038101906101f2919061396e565b610c40565b60405161020592919061458c565b60405180910390f35b61022860048036038101906102239190613792565b610d41565b60405161023692919061458c565b60405180910390f35b610247610d5c565b6040516102549190614571565b60405180910390f35b610265610d69565b005b610281600480360381019061027c91906139c0565b610ea6565b005b61029d600480360381019061029891906139c0565b611360565b005b6102a76116e8565b6040516102b491906140d7565b60405180910390f35b6102d760048036038101906102d29190613792565b611712565b005b6102e1611783565b6040516102ee9190614571565b60405180910390f35b610311600480360381019061030c91906137f7565b611790565b005b61031b611ab3565b005b61033760048036038101906103329190613792565b611b3b565b6040516103449190614571565b60405180910390f35b61036760048036038101906103629190613792565b611b87565b005b610383600480360381019061037e9190613846565b611d33565b60405161039091906141fd565b60405180910390f35b6103a1611e04565b73ffffffffffffffffffffffffffffffffffffffff166103bf6116e8565b73ffffffffffffffffffffffffffffffffffffffff1614610415576040517f08c379a000000000000000000000000000000000000000000000000000000000815260040161040c90614381565b60405180910390fd5b600085111561042957846065600c01819055505b600084111561043d57836065600d01819055505b6000891115610462578860656006018190555060656006015442016065600501819055505b600088111561048757876065600a01819055506065600a015442016065600701819055505b600087111561052a57606560080154871461051f5760656018016065601b0154908060018154018082558091505060019003906000526020600020016000909190919091505560405180604001604052806065600e01548152602001606560080154815250606560190160006065601b0154815260200190815260200160002060008201518160000155602082015181600101559050505b866065600801819055505b600086111561053e57856065600901819055505b60018351016065600b0181905550670de0b6b3a7640000606560120160008081526020019081526020016000206000018190555060005b835181101561061957604051806060016040528085838151811061059557fe5b602002602001015181526020018383815181106105ae57fe5b602002602001015181526020018483815181106105c757fe5b6020026020010151815250606560120160006001840181526020019081526020016000206000820151816000015560208201518160010155604082015181600201559050508080600101915050610575565b50505050505050505050565b60603073ffffffffffffffffffffffffffffffffffffffff163373ffffffffffffffffffffffffffffffffffffffff1614610695576040517f08c379a000000000000000000000000000000000000000000000000000000000815260040161068c906142e1565b60405180910390fd5b600060608473ffffffffffffffffffffffffffffffffffffffff16846040516106be91906140c0565b600060405180830381855af49150503d80600081146106f9576040519150601f19603f3d011682016040523d82523d6000602084013e6106fe565b606091505b509150915081156107145761071281611e0c565b505b61071d81611e16565b9250505092915050565b6000610734336000610c2a565b6000606560030160009054906101000a900473ffffffffffffffffffffffffffffffffffffffff1673ffffffffffffffffffffffffffffffffffffffff166370a08231336040518263ffffffff1660e01b815260040161079491906140f2565b60206040518083038186803b1580156107ac57600080fd5b505afa1580156107c0573d6000803e3d6000fd5b505050506040513d601f19601f820116820180604052508101906107e49190613997565b905060008382111561080a576108038483611e2090919063ffffffff16565b905061080f565b600090505b6000606560030160009054906101000a900473ffffffffffffffffffffffffffffffffffffffff1673ffffffffffffffffffffffffffffffffffffffff166370a08231336040518263ffffffff1660e01b815260040161086f91906140f2565b60206040518083038186803b15801561088757600080fd5b505afa15801561089b573d6000803e3d6000fd5b505050506040513d601f19601f820116820180604052508101906108bf9190613997565b90506108ce3384846001611e70565b6000606560030160009054906101000a900473ffffffffffffffffffffffffffffffffffffffff1673ffffffffffffffffffffffffffffffffffffffff166370a08231336040518263ffffffff1660e01b815260040161092e91906140f2565b60206040518083038186803b15801561094657600080fd5b505afa15801561095a573d6000803e3d6000fd5b505050506040513d601f19601f8201168201806040525081019061097e9190613997565b9050600061098c8288611f54565b9050606560030160009054906101000a900473ffffffffffffffffffffffffffffffffffffffff1673ffffffffffffffffffffffffffffffffffffffff16639dc29fac33836040518363ffffffff1660e01b81526004016109ee929190614144565b600060405180830381600087803b158015610a0857600080fd5b505af1158015610a1c573d6000803e3d6000fd5b50505050610ae33382610adc86606560030160009054906101000a900473ffffffffffffffffffffffffffffffffffffffff1673ffffffffffffffffffffffffffffffffffffffff166370a08231336040518263ffffffff1660e01b8152600401610a8791906140f2565b60206040518083038186803b158015610a9f57600080fd5b505afa158015610ab3573d6000803e3d6000fd5b505050506040513d601f19601f82011682018060405250810190610ad79190613997565b611f54565b8603611f6d565b606560020160009054906101000a900473ffffffffffffffffffffffffffffffffffffffff1673ffffffffffffffffffffffffffffffffffffffff166323b872dd606560010160009054906101000a900473ffffffffffffffffffffffffffffffffffffffff1633610b97670de0b6b3a7640000610b89610b7a6065600c0154670de0b6b3a7640000611e2090919063ffffffff16565b88611fc290919063ffffffff16565b61203290919063ffffffff16565b6040518463ffffffff1660e01b8152600401610bb59392919061416d565b602060405180830381600087803b158015610bcf57600080fd5b505af1158015610be3573d6000803e3d6000fd5b505050506040513d601f19601f82011682018060405250810190610c07919061389a565b508095505050505050919050565b600080610c226000610c40565b915091509091565b610c3382611712565b610c3c81611712565b5050565b600080610c4f33846000612088565b8092508193505050606560020160009054906101000a900473ffffffffffffffffffffffffffffffffffffffff1673ffffffffffffffffffffffffffffffffffffffff166323b872dd606560010160009054906101000a900473ffffffffffffffffffffffffffffffffffffffff1633856040518463ffffffff1660e01b8152600401610cde9392919061416d565b602060405180830381600087803b158015610cf857600080fd5b505af1158015610d0c573d6000803e3d6000fd5b505050506040513d601f19601f82011682018060405250810190610d30919061389a565b50610d3c33838361212f565b915091565b600080610d4f606584612184565b8092508193505050915091565b60006065600d0154905090565b610d71611e04565b73ffffffffffffffffffffffffffffffffffffffff16610d8f6116e8565b73ffffffffffffffffffffffffffffffffffffffff1614610de5576040517f08c379a0000000000000000000000000000000000000000000000000000000008152600401610ddc90614381565b60405180910390fd5b600073ffffffffffffffffffffffffffffffffffffffff16603360009054906101000a900473ffffffffffffffffffffffffffffffffffffffff1673ffffffffffffffffffffffffffffffffffffffff167f8be0079c531659141344cd1fd0a4f28419497f9722a3daafe3b4186f6b6457e060405160405180910390a36000603360006101000a81548173ffffffffffffffffffffffffffffffffffffffff021916908373ffffffffffffffffffffffffffffffffffffffff160217905550565b6065600b01548110610eb757600080fd5b610ec2336000610c2a565b6000606560030160009054906101000a900473ffffffffffffffffffffffffffffffffffffffff1673ffffffffffffffffffffffffffffffffffffffff166370a08231336040518263ffffffff1660e01b8152600401610f2291906140f2565b60206040518083038186803b158015610f3a57600080fd5b505afa158015610f4e573d6000803e3d6000fd5b505050506040513d601f19601f82011682018060405250810190610f729190613997565b90506000610f89848361221990919063ffffffff16565b9050606560020160009054906101000a900473ffffffffffffffffffffffffffffffffffffffff1673ffffffffffffffffffffffffffffffffffffffff166323b872dd33606560010160009054906101000a900473ffffffffffffffffffffffffffffffffffffffff16876040518463ffffffff1660e01b81526004016110129392919061410d565b602060405180830381600087803b15801561102c57600080fd5b505af1158015611040573d6000803e3d6000fd5b505050506040513d601f19601f82011682018060405250810190611064919061389a565b50606560030160009054906101000a900473ffffffffffffffffffffffffffffffffffffffff1673ffffffffffffffffffffffffffffffffffffffff166340c10f1933866040518363ffffffff1660e01b81526004016110c5929190614144565b600060405180830381600087803b1580156110df57600080fd5b505af11580156110f3573d6000803e3d6000fd5b5050505060656012016000848152602001908152602001600020600101548483011015801561113c57506000606560120160008581526020019081526020016000206001015414155b806111475750600083145b611186576040517f08c379a000000000000000000000000000000000000000000000000000000000815260040161117d906142a1565b60405180910390fd5b606560170160003373ffffffffffffffffffffffffffffffffffffffff1673ffffffffffffffffffffffffffffffffffffffff16815260200190815260200160002060070154831061121a5782606560130160003373ffffffffffffffffffffffffffffffffffffffff1673ffffffffffffffffffffffffffffffffffffffff168152602001908152602001600020819055505b600080606560130160003373ffffffffffffffffffffffffffffffffffffffff1673ffffffffffffffffffffffffffffffffffffffff168152602001908152602001600020541190506000606560170160003373ffffffffffffffffffffffffffffffffffffffff1673ffffffffffffffffffffffffffffffffffffffff16815260200190815260200160002090508060070154851061131457848160070181905550600081600701541415611313576000606560150160003373ffffffffffffffffffffffffffffffffffffffff1673ffffffffffffffffffffffffffffffffffffffff168152602001908152602001600020819055505b5b6113206065868561226e565b945061134b338760018803606560120160008a815260200190815260200160002060010154866122d7565b6113583385856000611e70565b505050505050565b60008061136f33856000612088565b915091506000606560030160009054906101000a900473ffffffffffffffffffffffffffffffffffffffff1673ffffffffffffffffffffffffffffffffffffffff166370a08231336040518263ffffffff1660e01b81526004016113d391906140f2565b60206040518083038186803b1580156113eb57600080fd5b505afa1580156113ff573d6000803e3d6000fd5b505050506040513d601f19601f820116820180604052508101906114239190613997565b90506000606560170160003373ffffffffffffffffffffffffffffffffffffffff1673ffffffffffffffffffffffffffffffffffffffff16815260200190815260200160002090506065601201600086815260200190815260200160002060010154848301101580156114b057506000606560120160008781526020019081526020016000206001015414155b806114bb5750600085145b6114fa576040517f08c379a00000000000000000000000000000000000000000000000000000000081526004016114f1906142a1565b60405180910390fd5b84606560130160003373ffffffffffffffffffffffffffffffffffffffff1673ffffffffffffffffffffffffffffffffffffffff168152602001908152602001600020541161158b5784606560130160003373ffffffffffffffffffffffffffffffffffffffff1673ffffffffffffffffffffffffffffffffffffffff168152602001908152602001600020819055505b848160070154116115a0578481600701819055505b600080606560130160003373ffffffffffffffffffffffffffffffffffffffff1673ffffffffffffffffffffffffffffffffffffffff1681526020019081526020016000205411905060006115fe868561221990919063ffffffff16565b9050606560030160009054906101000a900473ffffffffffffffffffffffffffffffffffffffff1673ffffffffffffffffffffffffffffffffffffffff166340c10f1933886040518363ffffffff1660e01b8152600401611660929190614144565b600060405180830381600087803b15801561167a57600080fd5b505af115801561168e573d6000803e3d6000fd5b5050505061169d33878761212f565b6116a96065888361226e565b96506116d1338789606560120160008c815260200190815260200160002060010154866122d7565b6116de3385836000611e70565b5050505050505050565b6000603360009054906101000a900473ffffffffffffffffffffffffffffffffffffffff16905090565b600073ffffffffffffffffffffffffffffffffffffffff168173ffffffffffffffffffffffffffffffffffffffff1614611780576117506000612331565b61175a60006124e8565b6117638161280f565b61176c8161281d565b6117758161288a565b5061177f8161292e565b5b50565b6000606560000154905090565b600060019054906101000a900460ff16806117af57506117ae6129c4565b5b806117c5575060008054906101000a900460ff16155b611804576040517f08c379a00000000000000000000000000000000000000000000000000000000081526004016117fb90614321565b60405180910390fd5b60008060019054906101000a900460ff161590508015611854576001600060016101000a81548160ff02191690831515021790555060016000806101000a81548160ff0219169083151502179055505b61185c6129d5565b83606560020160006101000a81548173ffffffffffffffffffffffffffffffffffffffff021916908373ffffffffffffffffffffffffffffffffffffffff1602179055506119a7600073D5A0412a758804cB28A81f529FdC810cf7fe1e1e6313a9589c6040518163ffffffff1660e01b815260040160206040518083038186803b1580156118e957600080fd5b505af41580156118fd573d6000803e3d6000fd5b505050506040513d601f19601f8201168201806040525081019061192191906138c3565b73D5A0412a758804cB28A81f529FdC810cf7fe1e1e6352c7420d6040518163ffffffff1660e01b815260040160006040518083038186803b15801561196557600080fd5b505af4158015611979573d6000803e3d6000fd5b505050506040513d6000823e3d601f19601f820116820180604052508101906119a291906138ec565b612b66565b6065601a0160006101000a81548173ffffffffffffffffffffffffffffffffffffffff021916908373ffffffffffffffffffffffffffffffffffffffff16021790555081606560010160006101000a81548173ffffffffffffffffffffffffffffffffffffffff021916908373ffffffffffffffffffffffffffffffffffffffff16021790555082606560030160006101000a81548173ffffffffffffffffffffffffffffffffffffffff021916908373ffffffffffffffffffffffffffffffffffffffff160217905550620151806065600a018190555062ed4e006065600601819055508015611aad5760008060016101000a81548160ff0219169083151502179055505b50505050565b611abb611e04565b73ffffffffffffffffffffffffffffffffffffffff16611ad96116e8565b73ffffffffffffffffffffffffffffffffffffffff1614611b2f576040517f08c379a0000000000000000000000000000000000000000000000000000000008152600401611b2690614381565b60405180910390fd5b611b3960016124e8565b565b6000606560150160008373ffffffffffffffffffffffffffffffffffffffff1673ffffffffffffffffffffffffffffffffffffffff168152602001908152602001600020549050919050565b611b8f611e04565b73ffffffffffffffffffffffffffffffffffffffff16611bad6116e8565b73ffffffffffffffffffffffffffffffffffffffff1614611c03576040517f08c379a0000000000000000000000000000000000000000000000000000000008152600401611bfa90614381565b60405180910390fd5b600073ffffffffffffffffffffffffffffffffffffffff168173ffffffffffffffffffffffffffffffffffffffff161415611c73576040517f08c379a0000000000000000000000000000000000000000000000000000000008152600401611c6a90614261565b60405180910390fd5b8073ffffffffffffffffffffffffffffffffffffffff16603360009054906101000a900473ffffffffffffffffffffffffffffffffffffffff1673ffffffffffffffffffffffffffffffffffffffff167f8be0079c531659141344cd1fd0a4f28419497f9722a3daafe3b4186f6b6457e060405160405180910390a380603360006101000a81548173ffffffffffffffffffffffffffffffffffffffff021916908373ffffffffffffffffffffffffffffffffffffffff16021790555050565b6060600060603073ffffffffffffffffffffffffffffffffffffffff16611d5a8686612c77565b604051611d6791906140c0565b6000604051808303816000865af19150503d8060008114611da4576040519150601f19603f3d011682016040523d82523d6000602084013e611da9565b606091505b50915091508115611df957611dbd81612d11565b6040517f08c379a0000000000000000000000000000000000000000000000000000000008152600401611df0919061421f565b60405180910390fd5b809250505092915050565b600033905090565b6060815160208301fd5b6060815160208301f35b600082821115611e65576040517f08c379a0000000000000000000000000000000000000000000000000000000008152600401611e5c906142c1565b60405180910390fd5b818303905092915050565b7301ACF10bCF60D5c8a233635512FD49dE18392c01631a967dfc60658685856040518563ffffffff1660e01b8152600401611eae9493929190614494565b60006040518083038186803b158015611ec657600080fd5b505af4158015611eda573d6000803e3d6000fd5b505050507301ACF10bCF60D5c8a233635512FD49dE18392c01630d0a4cdb6065868686866040518663ffffffff1660e01b8152600401611f1e9594939291906144d9565b60006040518083038186803b158015611f3657600080fd5b505af4158015611f4a573d6000803e3d6000fd5b5050505050505050565b6000818310611f635781611f65565b825b905092915050565b8273ffffffffffffffffffffffffffffffffffffffff167f7fc4727e062e336010f2c282598ef5f14facb3de68cf8195c2f23e1454b2b74e8383604051611fb592919061458c565b60405180910390a2505050565b600080831415611fd5576000905061202c565b6000828402905082848281611fe657fe5b0414612027576040517f08c379a000000000000000000000000000000000000000000000000000000000815260040161201e90614361565b60405180910390fd5b809150505b92915050565b6000808211612076576040517f08c379a000000000000000000000000000000000000000000000000000000000815260040161206d90614301565b60405180910390fd5b81838161207f57fe5b04905092915050565b600080612096856000610c2a565b7389C1DBd707Ce7AFc2bC378B247Aa2A0Ff85Fa15563e3040bb560658787876040518563ffffffff1660e01b81526004016120d49493929190614494565b604080518083038186803b1580156120eb57600080fd5b505af41580156120ff573d6000803e3d6000fd5b505050506040513d601f19601f8201168201806040525081019061212391906139fc565b91509150935093915050565b8273ffffffffffffffffffffffffffffffffffffffff167ff3a670cd3af7d64b488926880889d08a8585a138ff455227af6737339a1ec262838360405161217792919061458c565b60405180910390a2505050565b6000808360170160008473ffffffffffffffffffffffffffffffffffffffff1673ffffffffffffffffffffffffffffffffffffffff1681526020019081526020016000206003015491508360150160008473ffffffffffffffffffffffffffffffffffffffff1673ffffffffffffffffffffffffffffffffffffffff1681526020019081526020016000205490509250929050565b600080828401905083811015612264576040517f08c379a000000000000000000000000000000000000000000000000000000000815260040161225b90614281565b60405180910390fd5b8091505092915050565b60005b83600b01548310156122b857818460120160008581526020019081526020016000206001015411156122ab578280600190039350506122b8565b8280600101935050612271565b83600b015483106122cd578280600190039350505b8290509392505050565b828573ffffffffffffffffffffffffffffffffffffffff167f830141583677d950fe61a27b93001edff66b597c666b2c90f5fb6e79a4befd0e868585604051612322939291906145b5565b60405180910390a35050505050565b60006065601101600060656000015481526020019081526020016000209050818061237b57508060090160009054906101000a900460ff1615801561237a575060656007015442115b5b156124e4576065600a015442016065600701819055506123ad606560080154826003015461221990919063ffffffff16565b8160030181905550606560040160009054906101000a900473ffffffffffffffffffffffffffffffffffffffff1673ffffffffffffffffffffffffffffffffffffffff166340c10f19606560010160009054906101000a900473ffffffffffffffffffffffffffffffffffffffff166065600901546040518363ffffffff1660e01b815260040161243f9291906141d4565b600060405180830381600087803b15801561245957600080fd5b505af115801561246d573d6000803e3d6000fd5b50505050606560080154816007016000836004015481526020019081526020016000208190555080600401600081548092919060010191905055506124c56065600e015460656010015461221990919063ffffffff16565b6065601001819055506065601b01600081548092919060010191905055505b5050565b80806124f8575060656005015442115b1561280c576065600601544201606560050181905550600060656000016000815460010191905081905590506125f96065601a0160009054906101000a900473ffffffffffffffffffffffffffffffffffffffff1673D5A0412a758804cB28A81f529FdC810cf7fe1e1e6313a9589c6040518163ffffffff1660e01b815260040160206040518083038186803b15801561259157600080fd5b505af41580156125a5573d6000803e3d6000fd5b505050506040513d601f19601f820116820180604052508101906125c991906138c3565b836040516020016125db929190614094565b6040516020818303038152906040528051906020012060001c612e26565b6065601101600083815260200190815260200160002060020160006101000a81548173ffffffffffffffffffffffffffffffffffffffff021916908373ffffffffffffffffffffffffffffffffffffffff1602179055506065600a015442016065600701819055506065601101600082815260200190815260200160002060020160009054906101000a900473ffffffffffffffffffffffffffffffffffffffff16606560040160006101000a81548173ffffffffffffffffffffffffffffffffffffffff021916908373ffffffffffffffffffffffffffffffffffffffff160217905550606560040160009054906101000a900473ffffffffffffffffffffffffffffffffffffffff1673ffffffffffffffffffffffffffffffffffffffff1663fe4b84df826040518263ffffffff1660e01b815260040161273c9190614571565b600060405180830381600087803b15801561275657600080fd5b505af115801561276a573d6000803e3d6000fd5b50505050600160656011016000838152602001908152602001600020600401819055506001811461280a5760656011016000600183038152602001908152602001600020600101546065601101600083815260200190815260200160002060000181905550606560110160006001830381526020019081526020016000206001015460656011016000838152602001908152602001600020600101819055505b505b50565b61281a606582612ec5565b50565b7330fd61D0429D854213975c5d6A7BE6effB7b6266633e75efd16065836040518363ffffffff1660e01b81526004016128579291906143e1565b60006040518083038186803b15801561286f57600080fd5b505af4158015612883573d6000803e3d6000fd5b5050505050565b600080612898836000612ed3565b90507330fd61D0429D854213975c5d6A7BE6effB7b62666346c52119606585846040518463ffffffff1660e01b81526004016128d69392919061445d565b60206040518083038186803b1580156128ee57600080fd5b505af4158015612902573d6000803e3d6000fd5b505050506040513d601f19601f820116820180604052508101906129269190613997565b915050919050565b7301ACF10bCF60D5c8a233635512FD49dE18392c01635d8dc94f60658360008060006040518663ffffffff1660e01b815260040161297095949392919061440a565b604080518083038186803b15801561298757600080fd5b505af415801561299b573d6000803e3d6000fd5b505050506040513d601f19601f820116820180604052508101906129bf91906139fc565b505050565b60006129cf306130c2565b15905090565b600060019054906101000a900460ff16806129f457506129f36129c4565b5b80612a0a575060008054906101000a900460ff16155b612a49576040517f08c379a0000000000000000000000000000000000000000000000000000000008152600401612a4090614321565b60405180910390fd5b60008060019054906101000a900460ff161590508015612a99576001600060016101000a81548160ff02191690831515021790555060016000806101000a81548160ff0219169083151502179055505b6000612aa3611e04565b905080603360006101000a81548173ffffffffffffffffffffffffffffffffffffffff021916908373ffffffffffffffffffffffffffffffffffffffff1602179055508073ffffffffffffffffffffffffffffffffffffffff16600073ffffffffffffffffffffffffffffffffffffffff167f8be0079c531659141344cd1fd0a4f28419497f9722a3daafe3b4186f6b6457e060405160405180910390a3508015612b635760008060016101000a81548160ff0219169083151502179055505b50565b60008084471015612bac576040517f08c379a0000000000000000000000000000000000000000000000000000000008152600401612ba3906143c1565b60405180910390fd5b600083511415612bf1576040517f08c379a0000000000000000000000000000000000000000000000000000000008152600401612be890614241565b60405180910390fd5b8383516020850187f59050600073ffffffffffffffffffffffffffffffffffffffff168173ffffffffffffffffffffffffffffffffffffffff161415612c6c576040517f08c379a0000000000000000000000000000000000000000000000000000000008152600401612c6390614341565b60405180910390fd5b809150509392505050565b60608282604051602401612c8c9291906141a4565b6040516020818303038152906040527f23e3b730000000000000000000000000000000000000000000000000000000007bffffffffffffffffffffffffffffffffffffffffffffffffffffffff19166020820180517bffffffffffffffffffffffffffffffffffffffffffffffffffffffff8381831617835250505050905092915050565b6060600082511415612d5a576040518060400160405280601c81526020017f636170747572656420656d7074792072657665727420627566666572000000008152509050612e21565b6308c379a063ffffffff16612d84612d7f60006004866130d59092919063ffffffff16565b61310b565b60001c63ffffffff161415612e1d576060612db1612dac60048561313190919063ffffffff16565b61315d565b9050600081511415612dfb576040518060400160405280601d81526020017f636170747572656420656d70747920726576657274206d657373616765000000815250915050612e21565b606081806020019051810190612e11919061392d565b90508092505050612e21565b8190505b919050565b60006060612e33846131e1565b905060008360001b90508151602083018282826000f594505050600073ffffffffffffffffffffffffffffffffffffffff168373ffffffffffffffffffffffffffffffffffffffff161415612ebd576040517f08c379a0000000000000000000000000000000000000000000000000000000008152600401612eb4906143a1565b60405180910390fd5b505092915050565b612ecf82826131f4565b5050565b600080606560030160009054906101000a900473ffffffffffffffffffffffffffffffffffffffff1673ffffffffffffffffffffffffffffffffffffffff166370a08231856040518263ffffffff1660e01b8152600401612f3491906140d7565b60206040518083038186803b158015612f4c57600080fd5b505afa158015612f60573d6000803e3d6000fd5b505050506040513d601f19601f82011682018060405250810190612f849190613997565b90506000807301ACF10bCF60D5c8a233635512FD49dE18392c0163f7ed8c3f60658789876040518563ffffffff1660e01b8152600401612fc7949392919061452c565b604080518083038186803b158015612fde57600080fd5b505af4158015612ff2573d6000803e3d6000fd5b505050506040513d601f19601f8201168201806040525081019061301691906139fc565b9150915060008111156130b657606560030160009054906101000a900473ffffffffffffffffffffffffffffffffffffffff1673ffffffffffffffffffffffffffffffffffffffff16639dc29fac87836040518363ffffffff1660e01b81526004016130839291906141d4565b600060405180830381600087803b15801561309d57600080fd5b505af11580156130b1573d6000803e3d6000fd5b505050505b81935050505092915050565b600080823b905060008111915050919050565b6130dd613589565b6130e784846132cc565b81600001818152505081816020018181525050828160400181815250509392505050565b6000808260000151905060008360200151905061312882826132dc565b92505050919050565b613139613589565b818351101561314757825191505b6131558383848651036130d5565b905092915050565b60606000826020015190508067ffffffffffffffff8111801561317f57600080fd5b506040519080825280601f01601f1916602001820160405280156131b25781602001600182028036833780820191505090505b5091506000836000015160001b905060006131cc846132f9565b90506131d9818385613306565b505050919050565b60606131ed3083613348565b9050919050565b60008260170160008373ffffffffffffffffffffffffffffffffffffffff1673ffffffffffffffffffffffffffffffffffffffff168152602001908152602001600020905060008160000154141561325857670de0b6b3a764000081600001819055505b806008015483601b015411156132bc576132af61329c826005015461328e846008015487601b0154611e2090919063ffffffff16565b611fc290919063ffffffff16565b82600a015461221990919063ffffffff16565b81600a01819055506132c7565b600081600a01819055505b505050565b6000602082018301905092915050565b6000600180600884021b0380836020038503511691505092915050565b6000602082019050919050565b5b6020811061332a5781518352602083019250602082019150602081039050613307565b600180600883602003021b0380845116811984511617845250505050565b606080600067ffffffffffffffff8111801561336357600080fd5b506040519080825280601f01601f1916602001820160405280156133965781602001600182028036833780820191505090505b506040516024016133a791906141fd565b6040516020818303038152906040527f52e831dd000000000000000000000000000000000000000000000000000000007bffffffffffffffffffffffffffffffffffffffffffffffffffffffff19166020820180517bffffffffffffffffffffffffffffffffffffffffffffffffffffffff83818316178352505050509050805160630167ffffffffffffffff8111801561344157600080fd5b506040519080825280601f01601f1916602001820160405280156134745781602001600182028036833780820191505090505b5091507f3d3d606380380380913d393d73bebebebebebebebebebebebebebebebebebebe60208301526c010000000000000000000000008402602d8301527f5af4602a57600080fd5b602d8060366000396000f3363d3d373d3d3d363d73be60418301526c01000000000000000000000000830260608301527f5af43d82803e903d91602b57fd5bf30000000000000000000000000000000000607483015260005b81518110156135815781818151811061352b57fe5b602001015160f81c60f81b83606383018151811061354557fe5b60200101907effffffffffffffffffffffffffffffffffffffffffffffffffffffffffffff1916908160001a9053508080600101915050613516565b505092915050565b60405180606001604052806000815260200160008152602001600081525090565b6000813590506135b9816147dd565b92915050565b600082601f8301126135d057600080fd5b81356135e36135de82614619565b6145ec565b9150818183526020840193506020810190508385602084028201111561360857600080fd5b60005b83811015613638578161361e8882613768565b84526020840193506020830192505060018101905061360b565b5050505092915050565b600081519050613651816147f4565b92915050565b6000815190506136668161480b565b92915050565b600082601f83011261367d57600080fd5b813561369061368b82614641565b6145ec565b915080825260208301602083018583830111156136ac57600080fd5b6136b7838284614776565b50505092915050565b600082601f8301126136d157600080fd5b81516136e46136df82614641565b6145ec565b9150808252602083016020830185838301111561370057600080fd5b61370b838284614785565b50505092915050565b600082601f83011261372557600080fd5b81516137386137338261466d565b6145ec565b9150808252602083016020830185838301111561375457600080fd5b61375f838284614785565b50505092915050565b60008135905061377781614822565b92915050565b60008151905061378c81614822565b92915050565b6000602082840312156137a457600080fd5b60006137b2848285016135aa565b91505092915050565b600080604083850312156137ce57600080fd5b60006137dc858286016135aa565b92505060206137ed858286016135aa565b9150509250929050565b60008060006060848603121561380c57600080fd5b600061381a868287016135aa565b935050602061382b868287016135aa565b925050604061383c868287016135aa565b9150509250925092565b6000806040838503121561385957600080fd5b6000613867858286016135aa565b925050602083013567ffffffffffffffff81111561388457600080fd5b6138908582860161366c565b9150509250929050565b6000602082840312156138ac57600080fd5b60006138ba84828501613642565b91505092915050565b6000602082840312156138d557600080fd5b60006138e384828501613657565b91505092915050565b6000602082840312156138fe57600080fd5b600082015167ffffffffffffffff81111561391857600080fd5b613924848285016136c0565b91505092915050565b60006020828403121561393f57600080fd5b600082015167ffffffffffffffff81111561395957600080fd5b61396584828501613714565b91505092915050565b60006020828403121561398057600080fd5b600061398e84828501613768565b91505092915050565b6000602082840312156139a957600080fd5b60006139b78482850161377d565b91505092915050565b600080604083850312156139d357600080fd5b60006139e185828601613768565b92505060206139f285828601613768565b9150509250929050565b60008060408385031215613a0f57600080fd5b6000613a1d8582860161377d565b9250506020613a2e8582860161377d565b9150509250929050565b60008060008060008060008060006101208a8c031215613a5757600080fd5b6000613a658c828d01613768565b9950506020613a768c828d01613768565b9850506040613a878c828d01613768565b9750506060613a988c828d01613768565b9650506080613aa98c828d01613768565b95505060a0613aba8c828d01613768565b94505060c08a013567ffffffffffffffff811115613ad757600080fd5b613ae38c828d016135bf565b93505060e08a013567ffffffffffffffff811115613b0057600080fd5b613b0c8c828d016135bf565b9250506101008a013567ffffffffffffffff811115613b2a57600080fd5b613b368c828d016135bf565b9150509295985092959850929598565b613b4f8161472e565b82525050565b613b5e816146dc565b82525050565b613b6d816146dc565b82525050565b613b7c816146ee565b82525050565b613b8b816146ee565b82525050565b613ba2613b9d826146fa565b6147b8565b82525050565b6000613bb382614699565b613bbd81856146af565b9350613bcd818560208601614785565b613bd6816147cc565b840191505092915050565b6000613bec82614699565b613bf681856146c0565b9350613c06818560208601614785565b80840191505092915050565b613c1b81614740565b82525050565b6000613c2c826146a4565b613c3681856146cb565b9350613c46818560208601614785565b613c4f816147cc565b840191505092915050565b6000613c676020836146cb565b91507f437265617465323a2062797465636f6465206c656e677468206973207a65726f6000830152602082019050919050565b6000613ca76026836146cb565b91507f4f776e61626c653a206e6577206f776e657220697320746865207a65726f206160008301527f64647265737300000000000000000000000000000000000000000000000000006020830152604082019050919050565b6000613d0d601b836146cb565b91507f536166654d6174683a206164646974696f6e206f766572666c6f7700000000006000830152602082019050919050565b6000613d4d602b836146cb565b91507f6d7573742070726f76696465206d6f7265206361706974616c20746f20636f6d60008301527f6d697420746f20746965720000000000000000000000000000000000000000006020830152604082019050919050565b6000613db3601e836146cb565b91507f536166654d6174683a207375627472616374696f6e206f766572666c6f7700006000830152602082019050919050565b6000613df36022836146cb565b91507f756e617574686f72697a65642076696577206c617965722064656c656761746960008301527f6f6e0000000000000000000000000000000000000000000000000000000000006020830152604082019050919050565b6000613e59601a836146cb565b91507f536166654d6174683a206469766973696f6e206279207a65726f0000000000006000830152602082019050919050565b6000613e99602e836146cb565b91507f496e697469616c697a61626c653a20636f6e747261637420697320616c72656160008301527f647920696e697469616c697a65640000000000000000000000000000000000006020830152604082019050919050565b6000613eff6019836146cb565b91507f437265617465323a204661696c6564206f6e206465706c6f79000000000000006000830152602082019050919050565b6000613f3f6021836146cb565b91507f536166654d6174683a206d756c7469706c69636174696f6e206f766572666c6f60008301527f77000000000000000000000000000000000000000000000000000000000000006020830152604082019050919050565b6000613fa56020836146cb565b91507f4f776e61626c653a2063616c6c6572206973206e6f7420746865206f776e65726000830152602082019050919050565b6000613fe5600e836146cb565b91507f63726561746532206661696c65640000000000000000000000000000000000006000830152602082019050919050565b6000614025601d836146cb565b91507f437265617465323a20696e73756666696369656e742062616c616e63650000006000830152602082019050919050565b8082525050565b61406881614724565b82525050565b61407781614724565b82525050565b61408e61408982614724565b6147c2565b82525050565b60006140a08285613b91565b6020820191506140b0828461407d565b6020820191508190509392505050565b60006140cc8284613be1565b915081905092915050565b60006020820190506140ec6000830184613b55565b92915050565b60006020820190506141076000830184613b46565b92915050565b60006060820190506141226000830186613b46565b61412f6020830185613b55565b61413c604083018461405f565b949350505050565b60006040820190506141596000830185613b46565b614166602083018461405f565b9392505050565b60006060820190506141826000830186613b55565b61418f6020830185613b46565b61419c604083018461405f565b949350505050565b60006040820190506141b96000830185613b55565b81810360208301526141cb8184613ba8565b90509392505050565b60006040820190506141e96000830185613b55565b6141f6602083018461405f565b9392505050565b600060208201905081810360008301526142178184613ba8565b905092915050565b600060208201905081810360008301526142398184613c21565b905092915050565b6000602082019050818103600083015261425a81613c5a565b9050919050565b6000602082019050818103600083015261427a81613c9a565b9050919050565b6000602082019050818103600083015261429a81613d00565b9050919050565b600060208201905081810360008301526142ba81613d40565b9050919050565b600060208201905081810360008301526142da81613da6565b9050919050565b600060208201905081810360008301526142fa81613de6565b9050919050565b6000602082019050818103600083015261431a81613e4c565b9050919050565b6000602082019050818103600083015261433a81613e8c565b9050919050565b6000602082019050818103600083015261435a81613ef2565b9050919050565b6000602082019050818103600083015261437a81613f32565b9050919050565b6000602082019050818103600083015261439a81613f98565b9050919050565b600060208201905081810360008301526143ba81613fd8565b9050919050565b600060208201905081810360008301526143da81614018565b9050919050565b60006040820190506143f66000830185614058565b6144036020830184613b64565b9392505050565b600060a08201905061441f6000830188614058565b61442c6020830187613b64565b6144396040830186613c12565b6144466060830185613b82565b6144536080830184613b82565b9695505050505050565b60006060820190506144726000830186614058565b61447f6020830185613b64565b61448c604083018461406e565b949350505050565b60006080820190506144a96000830187614058565b6144b66020830186613b64565b6144c3604083018561406e565b6144d06060830184613b82565b95945050505050565b600060a0820190506144ee6000830188614058565b6144fb6020830187613b64565b614508604083018661406e565b614515606083018561406e565b6145226080830184613b82565b9695505050505050565b60006080820190506145416000830187614058565b61454e6020830186613b82565b61455b6040830185613b64565b614568606083018461406e565b95945050505050565b6000602082019050614586600083018461405f565b92915050565b60006040820190506145a1600083018561405f565b6145ae602083018461405f565b9392505050565b60006060820190506145ca600083018661405f565b6145d7602083018561405f565b6145e46040830184613b73565b949350505050565b6000604051905081810181811067ffffffffffffffff8211171561460f57600080fd5b8060405250919050565b600067ffffffffffffffff82111561463057600080fd5b602082029050602081019050919050565b600067ffffffffffffffff82111561465857600080fd5b601f19601f8301169050602081019050919050565b600067ffffffffffffffff82111561468457600080fd5b601f19601f8301169050602081019050919050565b600081519050919050565b600081519050919050565b600082825260208201905092915050565b600081905092915050565b600082825260208201905092915050565b60006146e782614704565b9050919050565b60008115159050919050565b6000819050919050565b600073ffffffffffffffffffffffffffffffffffffffff82169050919050565b6000819050919050565b600061473982614752565b9050919050565b600061474b82614724565b9050919050565b600061475d82614764565b9050919050565b600061476f82614704565b9050919050565b82818337600083830152505050565b60005b838110156147a3578082015181840152602081019050614788565b838111156147b2576000848401525b50505050565b6000819050919050565b6000819050919050565b6000601f19601f8301169050919050565b6147e6816146dc565b81146147f157600080fd5b50565b6147fd816146ee565b811461480857600080fd5b50565b614814816146fa565b811461481f57600080fd5b50565b61482b81614724565b811461483657600080fd5b5056fea264697066735822122019dfed64d9382caf370f119d5f4705761b900e26429abb3fb3957746cb17818d64736f6c634300060c0033",
  "deployedBytecode": "0x608060405234801561001057600080fd5b50600436106101215760003560e01c80637b0472f0116100ad578063c0c53b8b11610071578063c0c53b8b146102f7578063de8f84ea14610313578063ead9a68d1461031d578063f2fde38b1461034d578063fd00430c1461036957610121565b80637b0472f0146102675780637c91ad02146102835780638da5cb5b1461029f578063a3242e02146102bd578063bab2f552146102d957610121565b8063382153e0116100f4578063382153e0146101c1578063383e50e7146101dd57806338ed85b01461020e5780634dce52aa1461023f578063715018a61461025d57610121565b80630ed1ada11461012657806323e3b730146101425780632e17de7814610172578063372500ab146101a2575b600080fd5b610140600480360381019061013b9190613a38565b610399565b005b61015c60048036038101906101579190613846565b610625565b60405161016991906141fd565b60405180910390f35b61018c6004803603810190610187919061396e565b610727565b6040516101999190614571565b60405180910390f35b6101aa610c15565b6040516101b892919061458c565b60405180910390f35b6101db60048036038101906101d691906137bb565b610c2a565b005b6101f760048036038101906101f2919061396e565b610c40565b60405161020592919061458c565b60405180910390f35b61022860048036038101906102239190613792565b610d41565b60405161023692919061458c565b60405180910390f35b610247610d5c565b6040516102549190614571565b60405180910390f35b610265610d69565b005b610281600480360381019061027c91906139c0565b610ea6565b005b61029d600480360381019061029891906139c0565b611360565b005b6102a76116e8565b6040516102b491906140d7565b60405180910390f35b6102d760048036038101906102d29190613792565b611712565b005b6102e1611783565b6040516102ee9190614571565b60405180910390f35b610311600480360381019061030c91906137f7565b611790565b005b61031b611ab3565b005b61033760048036038101906103329190613792565b611b3b565b6040516103449190614571565b60405180910390f35b61036760048036038101906103629190613792565b611b87565b005b610383600480360381019061037e9190613846565b611d33565b60405161039091906141fd565b60405180910390f35b6103a1611e04565b73ffffffffffffffffffffffffffffffffffffffff166103bf6116e8565b73ffffffffffffffffffffffffffffffffffffffff1614610415576040517f08c379a000000000000000000000000000000000000000000000000000000000815260040161040c90614381565b60405180910390fd5b600085111561042957846065600c01819055505b600084111561043d57836065600d01819055505b6000891115610462578860656006018190555060656006015442016065600501819055505b600088111561048757876065600a01819055506065600a015442016065600701819055505b600087111561052a57606560080154871461051f5760656018016065601b0154908060018154018082558091505060019003906000526020600020016000909190919091505560405180604001604052806065600e01548152602001606560080154815250606560190160006065601b0154815260200190815260200160002060008201518160000155602082015181600101559050505b866065600801819055505b600086111561053e57856065600901819055505b60018351016065600b0181905550670de0b6b3a7640000606560120160008081526020019081526020016000206000018190555060005b835181101561061957604051806060016040528085838151811061059557fe5b602002602001015181526020018383815181106105ae57fe5b602002602001015181526020018483815181106105c757fe5b6020026020010151815250606560120160006001840181526020019081526020016000206000820151816000015560208201518160010155604082015181600201559050508080600101915050610575565b50505050505050505050565b60603073ffffffffffffffffffffffffffffffffffffffff163373ffffffffffffffffffffffffffffffffffffffff1614610695576040517f08c379a000000000000000000000000000000000000000000000000000000000815260040161068c906142e1565b60405180910390fd5b600060608473ffffffffffffffffffffffffffffffffffffffff16846040516106be91906140c0565b600060405180830381855af49150503d80600081146106f9576040519150601f19603f3d011682016040523d82523d6000602084013e6106fe565b606091505b509150915081156107145761071281611e0c565b505b61071d81611e16565b9250505092915050565b6000610734336000610c2a565b6000606560030160009054906101000a900473ffffffffffffffffffffffffffffffffffffffff1673ffffffffffffffffffffffffffffffffffffffff166370a08231336040518263ffffffff1660e01b815260040161079491906140f2565b60206040518083038186803b1580156107ac57600080fd5b505afa1580156107c0573d6000803e3d6000fd5b505050506040513d601f19601f820116820180604052508101906107e49190613997565b905060008382111561080a576108038483611e2090919063ffffffff16565b905061080f565b600090505b6000606560030160009054906101000a900473ffffffffffffffffffffffffffffffffffffffff1673ffffffffffffffffffffffffffffffffffffffff166370a08231336040518263ffffffff1660e01b815260040161086f91906140f2565b60206040518083038186803b15801561088757600080fd5b505afa15801561089b573d6000803e3d6000fd5b505050506040513d601f19601f820116820180604052508101906108bf9190613997565b90506108ce3384846001611e70565b6000606560030160009054906101000a900473ffffffffffffffffffffffffffffffffffffffff1673ffffffffffffffffffffffffffffffffffffffff166370a08231336040518263ffffffff1660e01b815260040161092e91906140f2565b60206040518083038186803b15801561094657600080fd5b505afa15801561095a573d6000803e3d6000fd5b505050506040513d601f19601f8201168201806040525081019061097e9190613997565b9050600061098c8288611f54565b9050606560030160009054906101000a900473ffffffffffffffffffffffffffffffffffffffff1673ffffffffffffffffffffffffffffffffffffffff16639dc29fac33836040518363ffffffff1660e01b81526004016109ee929190614144565b600060405180830381600087803b158015610a0857600080fd5b505af1158015610a1c573d6000803e3d6000fd5b50505050610ae33382610adc86606560030160009054906101000a900473ffffffffffffffffffffffffffffffffffffffff1673ffffffffffffffffffffffffffffffffffffffff166370a08231336040518263ffffffff1660e01b8152600401610a8791906140f2565b60206040518083038186803b158015610a9f57600080fd5b505afa158015610ab3573d6000803e3d6000fd5b505050506040513d601f19601f82011682018060405250810190610ad79190613997565b611f54565b8603611f6d565b606560020160009054906101000a900473ffffffffffffffffffffffffffffffffffffffff1673ffffffffffffffffffffffffffffffffffffffff166323b872dd606560010160009054906101000a900473ffffffffffffffffffffffffffffffffffffffff1633610b97670de0b6b3a7640000610b89610b7a6065600c0154670de0b6b3a7640000611e2090919063ffffffff16565b88611fc290919063ffffffff16565b61203290919063ffffffff16565b6040518463ffffffff1660e01b8152600401610bb59392919061416d565b602060405180830381600087803b158015610bcf57600080fd5b505af1158015610be3573d6000803e3d6000fd5b505050506040513d601f19601f82011682018060405250810190610c07919061389a565b508095505050505050919050565b600080610c226000610c40565b915091509091565b610c3382611712565b610c3c81611712565b5050565b600080610c4f33846000612088565b8092508193505050606560020160009054906101000a900473ffffffffffffffffffffffffffffffffffffffff1673ffffffffffffffffffffffffffffffffffffffff166323b872dd606560010160009054906101000a900473ffffffffffffffffffffffffffffffffffffffff1633856040518463ffffffff1660e01b8152600401610cde9392919061416d565b602060405180830381600087803b158015610cf857600080fd5b505af1158015610d0c573d6000803e3d6000fd5b505050506040513d601f19601f82011682018060405250810190610d30919061389a565b50610d3c33838361212f565b915091565b600080610d4f606584612184565b8092508193505050915091565b60006065600d0154905090565b610d71611e04565b73ffffffffffffffffffffffffffffffffffffffff16610d8f6116e8565b73ffffffffffffffffffffffffffffffffffffffff1614610de5576040517f08c379a0000000000000000000000000000000000000000000000000000000008152600401610ddc90614381565b60405180910390fd5b600073ffffffffffffffffffffffffffffffffffffffff16603360009054906101000a900473ffffffffffffffffffffffffffffffffffffffff1673ffffffffffffffffffffffffffffffffffffffff167f8be0079c531659141344cd1fd0a4f28419497f9722a3daafe3b4186f6b6457e060405160405180910390a36000603360006101000a81548173ffffffffffffffffffffffffffffffffffffffff021916908373ffffffffffffffffffffffffffffffffffffffff160217905550565b6065600b01548110610eb757600080fd5b610ec2336000610c2a565b6000606560030160009054906101000a900473ffffffffffffffffffffffffffffffffffffffff1673ffffffffffffffffffffffffffffffffffffffff166370a08231336040518263ffffffff1660e01b8152600401610f2291906140f2565b60206040518083038186803b158015610f3a57600080fd5b505afa158015610f4e573d6000803e3d6000fd5b505050506040513d601f19601f82011682018060405250810190610f729190613997565b90506000610f89848361221990919063ffffffff16565b9050606560020160009054906101000a900473ffffffffffffffffffffffffffffffffffffffff1673ffffffffffffffffffffffffffffffffffffffff166323b872dd33606560010160009054906101000a900473ffffffffffffffffffffffffffffffffffffffff16876040518463ffffffff1660e01b81526004016110129392919061410d565b602060405180830381600087803b15801561102c57600080fd5b505af1158015611040573d6000803e3d6000fd5b505050506040513d601f19601f82011682018060405250810190611064919061389a565b50606560030160009054906101000a900473ffffffffffffffffffffffffffffffffffffffff1673ffffffffffffffffffffffffffffffffffffffff166340c10f1933866040518363ffffffff1660e01b81526004016110c5929190614144565b600060405180830381600087803b1580156110df57600080fd5b505af11580156110f3573d6000803e3d6000fd5b5050505060656012016000848152602001908152602001600020600101548483011015801561113c57506000606560120160008581526020019081526020016000206001015414155b806111475750600083145b611186576040517f08c379a000000000000000000000000000000000000000000000000000000000815260040161117d906142a1565b60405180910390fd5b606560170160003373ffffffffffffffffffffffffffffffffffffffff1673ffffffffffffffffffffffffffffffffffffffff16815260200190815260200160002060070154831061121a5782606560130160003373ffffffffffffffffffffffffffffffffffffffff1673ffffffffffffffffffffffffffffffffffffffff168152602001908152602001600020819055505b600080606560130160003373ffffffffffffffffffffffffffffffffffffffff1673ffffffffffffffffffffffffffffffffffffffff168152602001908152602001600020541190506000606560170160003373ffffffffffffffffffffffffffffffffffffffff1673ffffffffffffffffffffffffffffffffffffffff16815260200190815260200160002090508060070154851061131457848160070181905550600081600701541415611313576000606560150160003373ffffffffffffffffffffffffffffffffffffffff1673ffffffffffffffffffffffffffffffffffffffff168152602001908152602001600020819055505b5b6113206065868561226e565b945061134b338760018803606560120160008a815260200190815260200160002060010154866122d7565b6113583385856000611e70565b505050505050565b60008061136f33856000612088565b915091506000606560030160009054906101000a900473ffffffffffffffffffffffffffffffffffffffff1673ffffffffffffffffffffffffffffffffffffffff166370a08231336040518263ffffffff1660e01b81526004016113d391906140f2565b60206040518083038186803b1580156113eb57600080fd5b505afa1580156113ff573d6000803e3d6000fd5b505050506040513d601f19601f820116820180604052508101906114239190613997565b90506000606560170160003373ffffffffffffffffffffffffffffffffffffffff1673ffffffffffffffffffffffffffffffffffffffff16815260200190815260200160002090506065601201600086815260200190815260200160002060010154848301101580156114b057506000606560120160008781526020019081526020016000206001015414155b806114bb5750600085145b6114fa576040517f08c379a00000000000000000000000000000000000000000000000000000000081526004016114f1906142a1565b60405180910390fd5b84606560130160003373ffffffffffffffffffffffffffffffffffffffff1673ffffffffffffffffffffffffffffffffffffffff168152602001908152602001600020541161158b5784606560130160003373ffffffffffffffffffffffffffffffffffffffff1673ffffffffffffffffffffffffffffffffffffffff168152602001908152602001600020819055505b848160070154116115a0578481600701819055505b600080606560130160003373ffffffffffffffffffffffffffffffffffffffff1673ffffffffffffffffffffffffffffffffffffffff1681526020019081526020016000205411905060006115fe868561221990919063ffffffff16565b9050606560030160009054906101000a900473ffffffffffffffffffffffffffffffffffffffff1673ffffffffffffffffffffffffffffffffffffffff166340c10f1933886040518363ffffffff1660e01b8152600401611660929190614144565b600060405180830381600087803b15801561167a57600080fd5b505af115801561168e573d6000803e3d6000fd5b5050505061169d33878761212f565b6116a96065888361226e565b96506116d1338789606560120160008c815260200190815260200160002060010154866122d7565b6116de3385836000611e70565b5050505050505050565b6000603360009054906101000a900473ffffffffffffffffffffffffffffffffffffffff16905090565b600073ffffffffffffffffffffffffffffffffffffffff168173ffffffffffffffffffffffffffffffffffffffff1614611780576117506000612331565b61175a60006124e8565b6117638161280f565b61176c8161281d565b6117758161288a565b5061177f8161292e565b5b50565b6000606560000154905090565b600060019054906101000a900460ff16806117af57506117ae6129c4565b5b806117c5575060008054906101000a900460ff16155b611804576040517f08c379a00000000000000000000000000000000000000000000000000000000081526004016117fb90614321565b60405180910390fd5b60008060019054906101000a900460ff161590508015611854576001600060016101000a81548160ff02191690831515021790555060016000806101000a81548160ff0219169083151502179055505b61185c6129d5565b83606560020160006101000a81548173ffffffffffffffffffffffffffffffffffffffff021916908373ffffffffffffffffffffffffffffffffffffffff1602179055506119a7600073__$b9ebe37ed5c148efa6c66949ea04801adb$__6313a9589c6040518163ffffffff1660e01b815260040160206040518083038186803b1580156118e957600080fd5b505af41580156118fd573d6000803e3d6000fd5b505050506040513d601f19601f8201168201806040525081019061192191906138c3565b73__$b9ebe37ed5c148efa6c66949ea04801adb$__6352c7420d6040518163ffffffff1660e01b815260040160006040518083038186803b15801561196557600080fd5b505af4158015611979573d6000803e3d6000fd5b505050506040513d6000823e3d601f19601f820116820180604052508101906119a291906138ec565b612b66565b6065601a0160006101000a81548173ffffffffffffffffffffffffffffffffffffffff021916908373ffffffffffffffffffffffffffffffffffffffff16021790555081606560010160006101000a81548173ffffffffffffffffffffffffffffffffffffffff021916908373ffffffffffffffffffffffffffffffffffffffff16021790555082606560030160006101000a81548173ffffffffffffffffffffffffffffffffffffffff021916908373ffffffffffffffffffffffffffffffffffffffff160217905550620151806065600a018190555062ed4e006065600601819055508015611aad5760008060016101000a81548160ff0219169083151502179055505b50505050565b611abb611e04565b73ffffffffffffffffffffffffffffffffffffffff16611ad96116e8565b73ffffffffffffffffffffffffffffffffffffffff1614611b2f576040517f08c379a0000000000000000000000000000000000000000000000000000000008152600401611b2690614381565b60405180910390fd5b611b3960016124e8565b565b6000606560150160008373ffffffffffffffffffffffffffffffffffffffff1673ffffffffffffffffffffffffffffffffffffffff168152602001908152602001600020549050919050565b611b8f611e04565b73ffffffffffffffffffffffffffffffffffffffff16611bad6116e8565b73ffffffffffffffffffffffffffffffffffffffff1614611c03576040517f08c379a0000000000000000000000000000000000000000000000000000000008152600401611bfa90614381565b60405180910390fd5b600073ffffffffffffffffffffffffffffffffffffffff168173ffffffffffffffffffffffffffffffffffffffff161415611c73576040517f08c379a0000000000000000000000000000000000000000000000000000000008152600401611c6a90614261565b60405180910390fd5b8073ffffffffffffffffffffffffffffffffffffffff16603360009054906101000a900473ffffffffffffffffffffffffffffffffffffffff1673ffffffffffffffffffffffffffffffffffffffff167f8be0079c531659141344cd1fd0a4f28419497f9722a3daafe3b4186f6b6457e060405160405180910390a380603360006101000a81548173ffffffffffffffffffffffffffffffffffffffff021916908373ffffffffffffffffffffffffffffffffffffffff16021790555050565b6060600060603073ffffffffffffffffffffffffffffffffffffffff16611d5a8686612c77565b604051611d6791906140c0565b6000604051808303816000865af19150503d8060008114611da4576040519150601f19603f3d011682016040523d82523d6000602084013e611da9565b606091505b50915091508115611df957611dbd81612d11565b6040517f08c379a0000000000000000000000000000000000000000000000000000000008152600401611df0919061421f565b60405180910390fd5b809250505092915050565b600033905090565b6060815160208301fd5b6060815160208301f35b600082821115611e65576040517f08c379a0000000000000000000000000000000000000000000000000000000008152600401611e5c906142c1565b60405180910390fd5b818303905092915050565b73__$88d5230eb4bb3b63b43ced9ece2ae8cd74$__631a967dfc60658685856040518563ffffffff1660e01b8152600401611eae9493929190614494565b60006040518083038186803b158015611ec657600080fd5b505af4158015611eda573d6000803e3d6000fd5b5050505073__$88d5230eb4bb3b63b43ced9ece2ae8cd74$__630d0a4cdb6065868686866040518663ffffffff1660e01b8152600401611f1e9594939291906144d9565b60006040518083038186803b158015611f3657600080fd5b505af4158015611f4a573d6000803e3d6000fd5b5050505050505050565b6000818310611f635781611f65565b825b905092915050565b8273ffffffffffffffffffffffffffffffffffffffff167f7fc4727e062e336010f2c282598ef5f14facb3de68cf8195c2f23e1454b2b74e8383604051611fb592919061458c565b60405180910390a2505050565b600080831415611fd5576000905061202c565b6000828402905082848281611fe657fe5b0414612027576040517f08c379a000000000000000000000000000000000000000000000000000000000815260040161201e90614361565b60405180910390fd5b809150505b92915050565b6000808211612076576040517f08c379a000000000000000000000000000000000000000000000000000000000815260040161206d90614301565b60405180910390fd5b81838161207f57fe5b04905092915050565b600080612096856000610c2a565b73__$0104ba858c2d472a1b9bf35d0129f43284$__63e3040bb560658787876040518563ffffffff1660e01b81526004016120d49493929190614494565b604080518083038186803b1580156120eb57600080fd5b505af41580156120ff573d6000803e3d6000fd5b505050506040513d601f19601f8201168201806040525081019061212391906139fc565b91509150935093915050565b8273ffffffffffffffffffffffffffffffffffffffff167ff3a670cd3af7d64b488926880889d08a8585a138ff455227af6737339a1ec262838360405161217792919061458c565b60405180910390a2505050565b6000808360170160008473ffffffffffffffffffffffffffffffffffffffff1673ffffffffffffffffffffffffffffffffffffffff1681526020019081526020016000206003015491508360150160008473ffffffffffffffffffffffffffffffffffffffff1673ffffffffffffffffffffffffffffffffffffffff1681526020019081526020016000205490509250929050565b600080828401905083811015612264576040517f08c379a000000000000000000000000000000000000000000000000000000000815260040161225b90614281565b60405180910390fd5b8091505092915050565b60005b83600b01548310156122b857818460120160008581526020019081526020016000206001015411156122ab578280600190039350506122b8565b8280600101935050612271565b83600b015483106122cd578280600190039350505b8290509392505050565b828573ffffffffffffffffffffffffffffffffffffffff167f830141583677d950fe61a27b93001edff66b597c666b2c90f5fb6e79a4befd0e868585604051612322939291906145b5565b60405180910390a35050505050565b60006065601101600060656000015481526020019081526020016000209050818061237b57508060090160009054906101000a900460ff1615801561237a575060656007015442115b5b156124e4576065600a015442016065600701819055506123ad606560080154826003015461221990919063ffffffff16565b8160030181905550606560040160009054906101000a900473ffffffffffffffffffffffffffffffffffffffff1673ffffffffffffffffffffffffffffffffffffffff166340c10f19606560010160009054906101000a900473ffffffffffffffffffffffffffffffffffffffff166065600901546040518363ffffffff1660e01b815260040161243f9291906141d4565b600060405180830381600087803b15801561245957600080fd5b505af115801561246d573d6000803e3d6000fd5b50505050606560080154816007016000836004015481526020019081526020016000208190555080600401600081548092919060010191905055506124c56065600e015460656010015461221990919063ffffffff16565b6065601001819055506065601b01600081548092919060010191905055505b5050565b80806124f8575060656005015442115b1561280c576065600601544201606560050181905550600060656000016000815460010191905081905590506125f96065601a0160009054906101000a900473ffffffffffffffffffffffffffffffffffffffff1673__$b9ebe37ed5c148efa6c66949ea04801adb$__6313a9589c6040518163ffffffff1660e01b815260040160206040518083038186803b15801561259157600080fd5b505af41580156125a5573d6000803e3d6000fd5b505050506040513d601f19601f820116820180604052508101906125c991906138c3565b836040516020016125db929190614094565b6040516020818303038152906040528051906020012060001c612e26565b6065601101600083815260200190815260200160002060020160006101000a81548173ffffffffffffffffffffffffffffffffffffffff021916908373ffffffffffffffffffffffffffffffffffffffff1602179055506065600a015442016065600701819055506065601101600082815260200190815260200160002060020160009054906101000a900473ffffffffffffffffffffffffffffffffffffffff16606560040160006101000a81548173ffffffffffffffffffffffffffffffffffffffff021916908373ffffffffffffffffffffffffffffffffffffffff160217905550606560040160009054906101000a900473ffffffffffffffffffffffffffffffffffffffff1673ffffffffffffffffffffffffffffffffffffffff1663fe4b84df826040518263ffffffff1660e01b815260040161273c9190614571565b600060405180830381600087803b15801561275657600080fd5b505af115801561276a573d6000803e3d6000fd5b50505050600160656011016000838152602001908152602001600020600401819055506001811461280a5760656011016000600183038152602001908152602001600020600101546065601101600083815260200190815260200160002060000181905550606560110160006001830381526020019081526020016000206001015460656011016000838152602001908152602001600020600101819055505b505b50565b61281a606582612ec5565b50565b73__$14b07406e5b0a9d177e7e9c663254f4e6d$__633e75efd16065836040518363ffffffff1660e01b81526004016128579291906143e1565b60006040518083038186803b15801561286f57600080fd5b505af4158015612883573d6000803e3d6000fd5b5050505050565b600080612898836000612ed3565b905073__$14b07406e5b0a9d177e7e9c663254f4e6d$__6346c52119606585846040518463ffffffff1660e01b81526004016128d69392919061445d565b60206040518083038186803b1580156128ee57600080fd5b505af4158015612902573d6000803e3d6000fd5b505050506040513d601f19601f820116820180604052508101906129269190613997565b915050919050565b73__$88d5230eb4bb3b63b43ced9ece2ae8cd74$__635d8dc94f60658360008060006040518663ffffffff1660e01b815260040161297095949392919061440a565b604080518083038186803b15801561298757600080fd5b505af415801561299b573d6000803e3d6000fd5b505050506040513d601f19601f820116820180604052508101906129bf91906139fc565b505050565b60006129cf306130c2565b15905090565b600060019054906101000a900460ff16806129f457506129f36129c4565b5b80612a0a575060008054906101000a900460ff16155b612a49576040517f08c379a0000000000000000000000000000000000000000000000000000000008152600401612a4090614321565b60405180910390fd5b60008060019054906101000a900460ff161590508015612a99576001600060016101000a81548160ff02191690831515021790555060016000806101000a81548160ff0219169083151502179055505b6000612aa3611e04565b905080603360006101000a81548173ffffffffffffffffffffffffffffffffffffffff021916908373ffffffffffffffffffffffffffffffffffffffff1602179055508073ffffffffffffffffffffffffffffffffffffffff16600073ffffffffffffffffffffffffffffffffffffffff167f8be0079c531659141344cd1fd0a4f28419497f9722a3daafe3b4186f6b6457e060405160405180910390a3508015612b635760008060016101000a81548160ff0219169083151502179055505b50565b60008084471015612bac576040517f08c379a0000000000000000000000000000000000000000000000000000000008152600401612ba3906143c1565b60405180910390fd5b600083511415612bf1576040517f08c379a0000000000000000000000000000000000000000000000000000000008152600401612be890614241565b60405180910390fd5b8383516020850187f59050600073ffffffffffffffffffffffffffffffffffffffff168173ffffffffffffffffffffffffffffffffffffffff161415612c6c576040517f08c379a0000000000000000000000000000000000000000000000000000000008152600401612c6390614341565b60405180910390fd5b809150509392505050565b60608282604051602401612c8c9291906141a4565b6040516020818303038152906040527f23e3b730000000000000000000000000000000000000000000000000000000007bffffffffffffffffffffffffffffffffffffffffffffffffffffffff19166020820180517bffffffffffffffffffffffffffffffffffffffffffffffffffffffff8381831617835250505050905092915050565b6060600082511415612d5a576040518060400160405280601c81526020017f636170747572656420656d7074792072657665727420627566666572000000008152509050612e21565b6308c379a063ffffffff16612d84612d7f60006004866130d59092919063ffffffff16565b61310b565b60001c63ffffffff161415612e1d576060612db1612dac60048561313190919063ffffffff16565b61315d565b9050600081511415612dfb576040518060400160405280601d81526020017f636170747572656420656d70747920726576657274206d657373616765000000815250915050612e21565b606081806020019051810190612e11919061392d565b90508092505050612e21565b8190505b919050565b60006060612e33846131e1565b905060008360001b90508151602083018282826000f594505050600073ffffffffffffffffffffffffffffffffffffffff168373ffffffffffffffffffffffffffffffffffffffff161415612ebd576040517f08c379a0000000000000000000000000000000000000000000000000000000008152600401612eb4906143a1565b60405180910390fd5b505092915050565b612ecf82826131f4565b5050565b600080606560030160009054906101000a900473ffffffffffffffffffffffffffffffffffffffff1673ffffffffffffffffffffffffffffffffffffffff166370a08231856040518263ffffffff1660e01b8152600401612f3491906140d7565b60206040518083038186803b158015612f4c57600080fd5b505afa158015612f60573d6000803e3d6000fd5b505050506040513d601f19601f82011682018060405250810190612f849190613997565b905060008073__$88d5230eb4bb3b63b43ced9ece2ae8cd74$__63f7ed8c3f60658789876040518563ffffffff1660e01b8152600401612fc7949392919061452c565b604080518083038186803b158015612fde57600080fd5b505af4158015612ff2573d6000803e3d6000fd5b505050506040513d601f19601f8201168201806040525081019061301691906139fc565b9150915060008111156130b657606560030160009054906101000a900473ffffffffffffffffffffffffffffffffffffffff1673ffffffffffffffffffffffffffffffffffffffff16639dc29fac87836040518363ffffffff1660e01b81526004016130839291906141d4565b600060405180830381600087803b15801561309d57600080fd5b505af11580156130b1573d6000803e3d6000fd5b505050505b81935050505092915050565b600080823b905060008111915050919050565b6130dd613589565b6130e784846132cc565b81600001818152505081816020018181525050828160400181815250509392505050565b6000808260000151905060008360200151905061312882826132dc565b92505050919050565b613139613589565b818351101561314757825191505b6131558383848651036130d5565b905092915050565b60606000826020015190508067ffffffffffffffff8111801561317f57600080fd5b506040519080825280601f01601f1916602001820160405280156131b25781602001600182028036833780820191505090505b5091506000836000015160001b905060006131cc846132f9565b90506131d9818385613306565b505050919050565b60606131ed3083613348565b9050919050565b60008260170160008373ffffffffffffffffffffffffffffffffffffffff1673ffffffffffffffffffffffffffffffffffffffff168152602001908152602001600020905060008160000154141561325857670de0b6b3a764000081600001819055505b806008015483601b015411156132bc576132af61329c826005015461328e846008015487601b0154611e2090919063ffffffff16565b611fc290919063ffffffff16565b82600a015461221990919063ffffffff16565b81600a01819055506132c7565b600081600a01819055505b505050565b6000602082018301905092915050565b6000600180600884021b0380836020038503511691505092915050565b6000602082019050919050565b5b6020811061332a5781518352602083019250602082019150602081039050613307565b600180600883602003021b0380845116811984511617845250505050565b606080600067ffffffffffffffff8111801561336357600080fd5b506040519080825280601f01601f1916602001820160405280156133965781602001600182028036833780820191505090505b506040516024016133a791906141fd565b6040516020818303038152906040527f52e831dd000000000000000000000000000000000000000000000000000000007bffffffffffffffffffffffffffffffffffffffffffffffffffffffff19166020820180517bffffffffffffffffffffffffffffffffffffffffffffffffffffffff83818316178352505050509050805160630167ffffffffffffffff8111801561344157600080fd5b506040519080825280601f01601f1916602001820160405280156134745781602001600182028036833780820191505090505b5091507f3d3d606380380380913d393d73bebebebebebebebebebebebebebebebebebebe60208301526c010000000000000000000000008402602d8301527f5af4602a57600080fd5b602d8060366000396000f3363d3d373d3d3d363d73be60418301526c01000000000000000000000000830260608301527f5af43d82803e903d91602b57fd5bf30000000000000000000000000000000000607483015260005b81518110156135815781818151811061352b57fe5b602001015160f81c60f81b83606383018151811061354557fe5b60200101907effffffffffffffffffffffffffffffffffffffffffffffffffffffffffffff1916908160001a9053508080600101915050613516565b505092915050565b60405180606001604052806000815260200160008152602001600081525090565b6000813590506135b9816147dd565b92915050565b600082601f8301126135d057600080fd5b81356135e36135de82614619565b6145ec565b9150818183526020840193506020810190508385602084028201111561360857600080fd5b60005b83811015613638578161361e8882613768565b84526020840193506020830192505060018101905061360b565b5050505092915050565b600081519050613651816147f4565b92915050565b6000815190506136668161480b565b92915050565b600082601f83011261367d57600080fd5b813561369061368b82614641565b6145ec565b915080825260208301602083018583830111156136ac57600080fd5b6136b7838284614776565b50505092915050565b600082601f8301126136d157600080fd5b81516136e46136df82614641565b6145ec565b9150808252602083016020830185838301111561370057600080fd5b61370b838284614785565b50505092915050565b600082601f83011261372557600080fd5b81516137386137338261466d565b6145ec565b9150808252602083016020830185838301111561375457600080fd5b61375f838284614785565b50505092915050565b60008135905061377781614822565b92915050565b60008151905061378c81614822565b92915050565b6000602082840312156137a457600080fd5b60006137b2848285016135aa565b91505092915050565b600080604083850312156137ce57600080fd5b60006137dc858286016135aa565b92505060206137ed858286016135aa565b9150509250929050565b60008060006060848603121561380c57600080fd5b600061381a868287016135aa565b935050602061382b868287016135aa565b925050604061383c868287016135aa565b9150509250925092565b6000806040838503121561385957600080fd5b6000613867858286016135aa565b925050602083013567ffffffffffffffff81111561388457600080fd5b6138908582860161366c565b9150509250929050565b6000602082840312156138ac57600080fd5b60006138ba84828501613642565b91505092915050565b6000602082840312156138d557600080fd5b60006138e384828501613657565b91505092915050565b6000602082840312156138fe57600080fd5b600082015167ffffffffffffffff81111561391857600080fd5b613924848285016136c0565b91505092915050565b60006020828403121561393f57600080fd5b600082015167ffffffffffffffff81111561395957600080fd5b61396584828501613714565b91505092915050565b60006020828403121561398057600080fd5b600061398e84828501613768565b91505092915050565b6000602082840312156139a957600080fd5b60006139b78482850161377d565b91505092915050565b600080604083850312156139d357600080fd5b60006139e185828601613768565b92505060206139f285828601613768565b9150509250929050565b60008060408385031215613a0f57600080fd5b6000613a1d8582860161377d565b9250506020613a2e8582860161377d565b9150509250929050565b60008060008060008060008060006101208a8c031215613a5757600080fd5b6000613a658c828d01613768565b9950506020613a768c828d01613768565b9850506040613a878c828d01613768565b9750506060613a988c828d01613768565b9650506080613aa98c828d01613768565b95505060a0613aba8c828d01613768565b94505060c08a013567ffffffffffffffff811115613ad757600080fd5b613ae38c828d016135bf565b93505060e08a013567ffffffffffffffff811115613b0057600080fd5b613b0c8c828d016135bf565b9250506101008a013567ffffffffffffffff811115613b2a57600080fd5b613b368c828d016135bf565b9150509295985092959850929598565b613b4f8161472e565b82525050565b613b5e816146dc565b82525050565b613b6d816146dc565b82525050565b613b7c816146ee565b82525050565b613b8b816146ee565b82525050565b613ba2613b9d826146fa565b6147b8565b82525050565b6000613bb382614699565b613bbd81856146af565b9350613bcd818560208601614785565b613bd6816147cc565b840191505092915050565b6000613bec82614699565b613bf681856146c0565b9350613c06818560208601614785565b80840191505092915050565b613c1b81614740565b82525050565b6000613c2c826146a4565b613c3681856146cb565b9350613c46818560208601614785565b613c4f816147cc565b840191505092915050565b6000613c676020836146cb565b91507f437265617465323a2062797465636f6465206c656e677468206973207a65726f6000830152602082019050919050565b6000613ca76026836146cb565b91507f4f776e61626c653a206e6577206f776e657220697320746865207a65726f206160008301527f64647265737300000000000000000000000000000000000000000000000000006020830152604082019050919050565b6000613d0d601b836146cb565b91507f536166654d6174683a206164646974696f6e206f766572666c6f7700000000006000830152602082019050919050565b6000613d4d602b836146cb565b91507f6d7573742070726f76696465206d6f7265206361706974616c20746f20636f6d60008301527f6d697420746f20746965720000000000000000000000000000000000000000006020830152604082019050919050565b6000613db3601e836146cb565b91507f536166654d6174683a207375627472616374696f6e206f766572666c6f7700006000830152602082019050919050565b6000613df36022836146cb565b91507f756e617574686f72697a65642076696577206c617965722064656c656761746960008301527f6f6e0000000000000000000000000000000000000000000000000000000000006020830152604082019050919050565b6000613e59601a836146cb565b91507f536166654d6174683a206469766973696f6e206279207a65726f0000000000006000830152602082019050919050565b6000613e99602e836146cb565b91507f496e697469616c697a61626c653a20636f6e747261637420697320616c72656160008301527f647920696e697469616c697a65640000000000000000000000000000000000006020830152604082019050919050565b6000613eff6019836146cb565b91507f437265617465323a204661696c6564206f6e206465706c6f79000000000000006000830152602082019050919050565b6000613f3f6021836146cb565b91507f536166654d6174683a206d756c7469706c69636174696f6e206f766572666c6f60008301527f77000000000000000000000000000000000000000000000000000000000000006020830152604082019050919050565b6000613fa56020836146cb565b91507f4f776e61626c653a2063616c6c6572206973206e6f7420746865206f776e65726000830152602082019050919050565b6000613fe5600e836146cb565b91507f63726561746532206661696c65640000000000000000000000000000000000006000830152602082019050919050565b6000614025601d836146cb565b91507f437265617465323a20696e73756666696369656e742062616c616e63650000006000830152602082019050919050565b8082525050565b61406881614724565b82525050565b61407781614724565b82525050565b61408e61408982614724565b6147c2565b82525050565b60006140a08285613b91565b6020820191506140b0828461407d565b6020820191508190509392505050565b60006140cc8284613be1565b915081905092915050565b60006020820190506140ec6000830184613b55565b92915050565b60006020820190506141076000830184613b46565b92915050565b60006060820190506141226000830186613b46565b61412f6020830185613b55565b61413c604083018461405f565b949350505050565b60006040820190506141596000830185613b46565b614166602083018461405f565b9392505050565b60006060820190506141826000830186613b55565b61418f6020830185613b46565b61419c604083018461405f565b949350505050565b60006040820190506141b96000830185613b55565b81810360208301526141cb8184613ba8565b90509392505050565b60006040820190506141e96000830185613b55565b6141f6602083018461405f565b9392505050565b600060208201905081810360008301526142178184613ba8565b905092915050565b600060208201905081810360008301526142398184613c21565b905092915050565b6000602082019050818103600083015261425a81613c5a565b9050919050565b6000602082019050818103600083015261427a81613c9a565b9050919050565b6000602082019050818103600083015261429a81613d00565b9050919050565b600060208201905081810360008301526142ba81613d40565b9050919050565b600060208201905081810360008301526142da81613da6565b9050919050565b600060208201905081810360008301526142fa81613de6565b9050919050565b6000602082019050818103600083015261431a81613e4c565b9050919050565b6000602082019050818103600083015261433a81613e8c565b9050919050565b6000602082019050818103600083015261435a81613ef2565b9050919050565b6000602082019050818103600083015261437a81613f32565b9050919050565b6000602082019050818103600083015261439a81613f98565b9050919050565b600060208201905081810360008301526143ba81613fd8565b9050919050565b600060208201905081810360008301526143da81614018565b9050919050565b60006040820190506143f66000830185614058565b6144036020830184613b64565b9392505050565b600060a08201905061441f6000830188614058565b61442c6020830187613b64565b6144396040830186613c12565b6144466060830185613b82565b6144536080830184613b82565b9695505050505050565b60006060820190506144726000830186614058565b61447f6020830185613b64565b61448c604083018461406e565b949350505050565b60006080820190506144a96000830187614058565b6144b66020830186613b64565b6144c3604083018561406e565b6144d06060830184613b82565b95945050505050565b600060a0820190506144ee6000830188614058565b6144fb6020830187613b64565b614508604083018661406e565b614515606083018561406e565b6145226080830184613b82565b9695505050505050565b60006080820190506145416000830187614058565b61454e6020830186613b82565b61455b6040830185613b64565b614568606083018461406e565b95945050505050565b6000602082019050614586600083018461405f565b92915050565b60006040820190506145a1600083018561405f565b6145ae602083018461405f565b9392505050565b60006060820190506145ca600083018661405f565b6145d7602083018561405f565b6145e46040830184613b73565b949350505050565b6000604051905081810181811067ffffffffffffffff8211171561460f57600080fd5b8060405250919050565b600067ffffffffffffffff82111561463057600080fd5b602082029050602081019050919050565b600067ffffffffffffffff82111561465857600080fd5b601f19601f8301169050602081019050919050565b600067ffffffffffffffff82111561468457600080fd5b601f19601f8301169050602081019050919050565b600081519050919050565b600081519050919050565b600082825260208201905092915050565b600081905092915050565b600082825260208201905092915050565b60006146e782614704565b9050919050565b60008115159050919050565b6000819050919050565b600073ffffffffffffffffffffffffffffffffffffffff82169050919050565b6000819050919050565b600061473982614752565b9050919050565b600061474b82614724565b9050919050565b600061475d82614764565b9050919050565b600061476f82614704565b9050919050565b82818337600083830152505050565b60005b838110156147a3578082015181840152602081019050614788565b838111156147b2576000848401525b50505050565b6000819050919050565b6000819050919050565b6000601f19601f8301169050919050565b6147e6816146dc565b81146147f157600080fd5b50565b6147fd816146ee565b811461480857600080fd5b50565b614814816146fa565b811461481f57600080fd5b50565b61482b81614724565b811461483657600080fd5b5056fea264697066735822122019dfed64d9382caf370f119d5f4705761b900e26429abb3fb3957746cb17818d64736f6c634300060c0033",
  "libraries": {
    "pCNFIFactoryLib": "0xD5A0412a758804cB28A81f529FdC810cf7fe1e1e",
    "UpdateToLastLib": "0x30fd61D0429D854213975c5d6A7BE6effB7b6266",
    "UpdateRedeemableLib": "0x01ACF10bCF60D5c8a233635512FD49dE18392c01",
    "CalculateRewardsLib": "0x89C1DBd707Ce7AFc2bC378B247Aa2A0Ff85Fa155"
  },
  "devdoc": {
    "kind": "dev",
    "methods": {
      "owner()": {
        "details": "Returns the address of the current owner."
      },
      "renounceOwnership()": {
        "details": "Leaves the contract without owner. It will not be possible to call `onlyOwner` functions anymore. Can only be called by the current owner. NOTE: Renouncing ownership will leave the contract without an owner, thereby removing any functionality that is only available to the owner."
      },
      "transferOwnership(address)": {
        "details": "Transfers ownership of the contract to a new account (`newOwner`). Can only be called by the current owner."
      }
    },
    "version": 1
  },
  "userdoc": {
    "kind": "user",
    "methods": {},
    "version": 1
  },
  "storageLayout": {
    "storage": [
      {
        "astId": 565,
        "contract": "contracts/staking/StakingController.sol:StakingController",
        "label": "_initialized",
        "offset": 0,
        "slot": "0",
        "type": "t_bool"
      },
      {
        "astId": 568,
        "contract": "contracts/staking/StakingController.sol:StakingController",
        "label": "_initializing",
        "offset": 1,
        "slot": "0",
        "type": "t_bool"
      },
      {
        "astId": 1520,
        "contract": "contracts/staking/StakingController.sol:StakingController",
        "label": "__gap",
        "offset": 0,
        "slot": "1",
        "type": "t_array(t_uint256)50_storage"
      },
      {
        "astId": 10,
        "contract": "contracts/staking/StakingController.sol:StakingController",
        "label": "_owner",
        "offset": 0,
        "slot": "51",
        "type": "t_address"
      },
      {
        "astId": 129,
        "contract": "contracts/staking/StakingController.sol:StakingController",
        "label": "__gap",
        "offset": 0,
        "slot": "52",
        "type": "t_array(t_uint256)49_storage"
      },
      {
        "astId": 7728,
        "contract": "contracts/staking/StakingController.sol:StakingController",
        "label": "isolate",
        "offset": 0,
        "slot": "101",
        "type": "t_struct(Isolate)7475_storage"
      }
    ],
    "types": {
      "t_address": {
        "encoding": "inplace",
        "label": "address",
        "numberOfBytes": "20"
      },
      "t_array(t_uint256)49_storage": {
        "base": "t_uint256",
        "encoding": "inplace",
        "label": "uint256[49]",
        "numberOfBytes": "1568"
      },
      "t_array(t_uint256)50_storage": {
        "base": "t_uint256",
        "encoding": "inplace",
        "label": "uint256[50]",
        "numberOfBytes": "1600"
      },
      "t_array(t_uint256)dyn_storage": {
        "base": "t_uint256",
        "encoding": "dynamic_array",
        "label": "uint256[]",
        "numberOfBytes": "32"
      },
      "t_bool": {
        "encoding": "inplace",
        "label": "bool",
        "numberOfBytes": "1"
      },
      "t_contract(CNFITreasury)11138": {
        "encoding": "inplace",
        "label": "contract CNFITreasury",
        "numberOfBytes": "20"
      },
      "t_contract(ICNFI)4373": {
        "encoding": "inplace",
        "label": "contract ICNFI",
        "numberOfBytes": "20"
      },
      "t_contract(pCNFI)10949": {
        "encoding": "inplace",
        "label": "contract pCNFI",
        "numberOfBytes": "20"
      },
      "t_contract(sCNFI)11043": {
        "encoding": "inplace",
        "label": "contract sCNFI",
        "numberOfBytes": "20"
      },
      "t_mapping(t_address,t_struct(DailyUser)7523_storage)": {
        "encoding": "mapping",
        "key": "t_address",
        "label": "mapping(address => struct StakingControllerLib.DailyUser)",
        "numberOfBytes": "32",
        "value": "t_struct(DailyUser)7523_storage"
      },
      "t_mapping(t_address,t_struct(User)7496_storage)": {
        "encoding": "mapping",
        "key": "t_address",
        "label": "mapping(address => struct StakingControllerLib.User)",
        "numberOfBytes": "32",
        "value": "t_struct(User)7496_storage"
      },
      "t_mapping(t_address,t_struct(UserWeightChanges)7711_storage)": {
        "encoding": "mapping",
        "key": "t_address",
        "label": "mapping(address => struct StakingControllerLib.UserWeightChanges)",
        "numberOfBytes": "32",
        "value": "t_struct(UserWeightChanges)7711_storage"
      },
      "t_mapping(t_address,t_uint256)": {
        "encoding": "mapping",
        "key": "t_address",
        "label": "mapping(address => uint256)",
        "numberOfBytes": "32",
        "value": "t_uint256"
      },
      "t_mapping(t_uint256,t_struct(Cycle)7612_storage)": {
        "encoding": "mapping",
        "key": "t_uint256",
        "label": "mapping(uint256 => struct StakingControllerLib.Cycle)",
        "numberOfBytes": "32",
        "value": "t_struct(Cycle)7612_storage"
      },
      "t_mapping(t_uint256,t_struct(InflateByChanged)7681_storage)": {
        "encoding": "mapping",
        "key": "t_uint256",
        "label": "mapping(uint256 => struct StakingControllerLib.InflateByChanged)",
        "numberOfBytes": "32",
        "value": "t_struct(InflateByChanged)7681_storage"
      },
      "t_mapping(t_uint256,t_struct(Tier)7619_storage)": {
        "encoding": "mapping",
        "key": "t_uint256",
        "label": "mapping(uint256 => struct StakingControllerLib.Tier)",
        "numberOfBytes": "32",
        "value": "t_struct(Tier)7619_storage"
      },
      "t_mapping(t_uint256,t_uint256)": {
        "encoding": "mapping",
        "key": "t_uint256",
        "label": "mapping(uint256 => uint256)",
        "numberOfBytes": "32",
        "value": "t_uint256"
      },
      "t_struct(Cycle)7612_storage": {
        "encoding": "inplace",
        "label": "struct StakingControllerLib.Cycle",
        "members": [
          {
            "astId": 7587,
            "contract": "contracts/staking/StakingController.sol:StakingController",
            "label": "totalWeight",
            "offset": 0,
            "slot": "0",
            "type": "t_uint256"
          },
          {
            "astId": 7589,
            "contract": "contracts/staking/StakingController.sol:StakingController",
            "label": "totalRawWeight",
            "offset": 0,
            "slot": "1",
            "type": "t_uint256"
          },
          {
            "astId": 7591,
            "contract": "contracts/staking/StakingController.sol:StakingController",
            "label": "pCnfiToken",
            "offset": 0,
            "slot": "2",
            "type": "t_address"
          },
          {
            "astId": 7593,
            "contract": "contracts/staking/StakingController.sol:StakingController",
            "label": "reserved",
            "offset": 0,
            "slot": "3",
            "type": "t_uint256"
          },
          {
            "astId": 7595,
            "contract": "contracts/staking/StakingController.sol:StakingController",
            "label": "day",
            "offset": 0,
            "slot": "4",
            "type": "t_uint256"
          },
          {
            "astId": 7597,
            "contract": "contracts/staking/StakingController.sol:StakingController",
            "label": "inflateBy",
            "offset": 0,
            "slot": "5",
            "type": "t_uint256"
          },
          {
            "astId": 7601,
            "contract": "contracts/staking/StakingController.sol:StakingController",
            "label": "users",
            "offset": 0,
            "slot": "6",
            "type": "t_mapping(t_address,t_struct(User)7496_storage)"
          },
          {
            "astId": 7605,
            "contract": "contracts/staking/StakingController.sol:StakingController",
            "label": "cnfiRewards",
            "offset": 0,
            "slot": "7",
            "type": "t_mapping(t_uint256,t_uint256)"
          },
          {
            "astId": 7609,
            "contract": "contracts/staking/StakingController.sol:StakingController",
            "label": "pcnfiRewards",
            "offset": 0,
            "slot": "8",
            "type": "t_mapping(t_uint256,t_uint256)"
          },
          {
            "astId": 7611,
            "contract": "contracts/staking/StakingController.sol:StakingController",
            "label": "canUnstake",
            "offset": 0,
            "slot": "9",
            "type": "t_bool"
          }
        ],
        "numberOfBytes": "320"
      },
      "t_struct(DailyUser)7523_storage": {
        "encoding": "inplace",
        "label": "struct StakingControllerLib.DailyUser",
        "members": [
          {
            "astId": 7498,
            "contract": "contracts/staking/StakingController.sol:StakingController",
            "label": "multiplier",
            "offset": 0,
            "slot": "0",
            "type": "t_uint256"
          },
          {
            "astId": 7500,
            "contract": "contracts/staking/StakingController.sol:StakingController",
            "label": "cycleEnd",
            "offset": 0,
            "slot": "1",
            "type": "t_uint256"
          },
          {
            "astId": 7502,
            "contract": "contracts/staking/StakingController.sol:StakingController",
            "label": "cyclesHeld",
            "offset": 0,
            "slot": "2",
            "type": "t_uint256"
          },
          {
            "astId": 7504,
            "contract": "contracts/staking/StakingController.sol:StakingController",
            "label": "redeemable",
            "offset": 0,
            "slot": "3",
            "type": "t_uint256"
          },
          {
            "astId": 7506,
            "contract": "contracts/staking/StakingController.sol:StakingController",
            "label": "start",
            "offset": 0,
            "slot": "4",
            "type": "t_uint256"
          },
          {
            "astId": 7508,
            "contract": "contracts/staking/StakingController.sol:StakingController",
            "label": "weight",
            "offset": 0,
            "slot": "5",
            "type": "t_uint256"
          },
          {
            "astId": 7510,
            "contract": "contracts/staking/StakingController.sol:StakingController",
            "label": "claimed",
            "offset": 0,
            "slot": "6",
            "type": "t_uint256"
          },
          {
            "astId": 7512,
            "contract": "contracts/staking/StakingController.sol:StakingController",
            "label": "commitment",
            "offset": 0,
            "slot": "7",
            "type": "t_uint256"
          },
          {
            "astId": 7514,
            "contract": "contracts/staking/StakingController.sol:StakingController",
            "label": "lastDaySeen",
            "offset": 0,
            "slot": "8",
            "type": "t_uint256"
          },
          {
            "astId": 7516,
            "contract": "contracts/staking/StakingController.sol:StakingController",
            "label": "cumulativeTotalWeight",
            "offset": 0,
            "slot": "9",
            "type": "t_uint256"
          },
          {
            "astId": 7518,
            "contract": "contracts/staking/StakingController.sol:StakingController",
            "label": "cumulativeRewardWeight",
            "offset": 0,
            "slot": "10",
            "type": "t_uint256"
          },
          {
            "astId": 7520,
            "contract": "contracts/staking/StakingController.sol:StakingController",
            "label": "lastTotalWeight",
            "offset": 0,
            "slot": "11",
            "type": "t_uint256"
          },
          {
            "astId": 7522,
            "contract": "contracts/staking/StakingController.sol:StakingController",
            "label": "currentTier",
            "offset": 0,
            "slot": "12",
            "type": "t_uint256"
          }
        ],
        "numberOfBytes": "416"
      },
      "t_struct(InflateByChanged)7681_storage": {
        "encoding": "inplace",
        "label": "struct StakingControllerLib.InflateByChanged",
        "members": [
          {
            "astId": 7678,
            "contract": "contracts/staking/StakingController.sol:StakingController",
            "label": "totalWeight",
            "offset": 0,
            "slot": "0",
            "type": "t_uint256"
          },
          {
            "astId": 7680,
            "contract": "contracts/staking/StakingController.sol:StakingController",
            "label": "previousAmount",
            "offset": 0,
            "slot": "1",
            "type": "t_uint256"
          }
        ],
        "numberOfBytes": "64"
      },
      "t_struct(Isolate)7475_storage": {
        "encoding": "inplace",
        "label": "struct StakingControllerLib.Isolate",
        "members": [
          {
            "astId": 7403,
            "contract": "contracts/staking/StakingController.sol:StakingController",
            "label": "currentCycle",
            "offset": 0,
            "slot": "0",
            "type": "t_uint256"
          },
          {
            "astId": 7405,
            "contract": "contracts/staking/StakingController.sol:StakingController",
            "label": "cnfiTreasury",
            "offset": 0,
            "slot": "1",
            "type": "t_contract(CNFITreasury)11138"
          },
          {
            "astId": 7407,
            "contract": "contracts/staking/StakingController.sol:StakingController",
            "label": "cnfi",
            "offset": 0,
            "slot": "2",
            "type": "t_contract(ICNFI)4373"
          },
          {
            "astId": 7409,
            "contract": "contracts/staking/StakingController.sol:StakingController",
            "label": "sCnfi",
            "offset": 0,
            "slot": "3",
            "type": "t_contract(sCNFI)11043"
          },
          {
            "astId": 7411,
            "contract": "contracts/staking/StakingController.sol:StakingController",
            "label": "pCnfi",
            "offset": 0,
            "slot": "4",
            "type": "t_contract(pCNFI)10949"
          },
          {
            "astId": 7413,
            "contract": "contracts/staking/StakingController.sol:StakingController",
            "label": "nextCycleTime",
            "offset": 0,
            "slot": "5",
            "type": "t_uint256"
          },
          {
            "astId": 7415,
            "contract": "contracts/staking/StakingController.sol:StakingController",
            "label": "cycleInterval",
            "offset": 0,
            "slot": "6",
            "type": "t_uint256"
          },
          {
            "astId": 7417,
            "contract": "contracts/staking/StakingController.sol:StakingController",
            "label": "nextTimestamp",
            "offset": 0,
            "slot": "7",
            "type": "t_uint256"
          },
          {
            "astId": 7419,
            "contract": "contracts/staking/StakingController.sol:StakingController",
            "label": "inflateBy",
            "offset": 0,
            "slot": "8",
            "type": "t_uint256"
          },
          {
            "astId": 7421,
            "contract": "contracts/staking/StakingController.sol:StakingController",
            "label": "inflatepcnfiBy",
            "offset": 0,
            "slot": "9",
            "type": "t_uint256"
          },
          {
            "astId": 7423,
            "contract": "contracts/staking/StakingController.sol:StakingController",
            "label": "rewardInterval",
            "offset": 0,
            "slot": "10",
            "type": "t_uint256"
          },
          {
            "astId": 7425,
            "contract": "contracts/staking/StakingController.sol:StakingController",
            "label": "tiersLength",
            "offset": 0,
            "slot": "11",
            "type": "t_uint256"
          },
          {
            "astId": 7427,
            "contract": "contracts/staking/StakingController.sol:StakingController",
            "label": "baseUnstakePenalty",
            "offset": 0,
            "slot": "12",
            "type": "t_uint256"
          },
          {
            "astId": 7429,
            "contract": "contracts/staking/StakingController.sol:StakingController",
            "label": "commitmentViolationPenalty",
            "offset": 0,
            "slot": "13",
            "type": "t_uint256"
          },
          {
            "astId": 7431,
            "contract": "contracts/staking/StakingController.sol:StakingController",
            "label": "totalWeight",
            "offset": 0,
            "slot": "14",
            "type": "t_uint256"
          },
          {
            "astId": 7433,
            "contract": "contracts/staking/StakingController.sol:StakingController",
            "label": "lastTotalWeight",
            "offset": 0,
            "slot": "15",
            "type": "t_uint256"
          },
          {
            "astId": 7435,
            "contract": "contracts/staking/StakingController.sol:StakingController",
            "label": "cumulativeTotalWeight",
            "offset": 0,
            "slot": "16",
            "type": "t_uint256"
          },
          {
            "astId": 7439,
            "contract": "contracts/staking/StakingController.sol:StakingController",
            "label": "cycles",
            "offset": 0,
            "slot": "17",
            "type": "t_mapping(t_uint256,t_struct(Cycle)7612_storage)"
          },
          {
            "astId": 7443,
            "contract": "contracts/staking/StakingController.sol:StakingController",
            "label": "tiers",
            "offset": 0,
            "slot": "18",
            "type": "t_mapping(t_uint256,t_struct(Tier)7619_storage)"
          },
          {
            "astId": 7447,
            "contract": "contracts/staking/StakingController.sol:StakingController",
            "label": "lockCommitments",
            "offset": 0,
            "slot": "19",
            "type": "t_mapping(t_address,t_uint256)"
          },
          {
            "astId": 7451,
            "contract": "contracts/staking/StakingController.sol:StakingController",
            "label": "bonusesAccrued",
            "offset": 0,
            "slot": "20",
            "type": "t_mapping(t_address,t_uint256)"
          },
          {
            "astId": 7455,
            "contract": "contracts/staking/StakingController.sol:StakingController",
            "label": "dailyBonusesAccrued",
            "offset": 0,
            "slot": "21",
            "type": "t_mapping(t_address,t_uint256)"
          },
          {
            "astId": 7459,
            "contract": "contracts/staking/StakingController.sol:StakingController",
            "label": "weightChanges",
            "offset": 0,
            "slot": "22",
            "type": "t_mapping(t_address,t_struct(UserWeightChanges)7711_storage)"
          },
          {
            "astId": 7463,
            "contract": "contracts/staking/StakingController.sol:StakingController",
            "label": "dailyUsers",
            "offset": 0,
            "slot": "23",
            "type": "t_mapping(t_address,t_struct(DailyUser)7523_storage)"
          },
          {
            "astId": 7466,
            "contract": "contracts/staking/StakingController.sol:StakingController",
            "label": "inflateByChanged",
            "offset": 0,
            "slot": "24",
            "type": "t_array(t_uint256)dyn_storage"
          },
          {
            "astId": 7470,
            "contract": "contracts/staking/StakingController.sol:StakingController",
            "label": "inflateByValues",
            "offset": 0,
            "slot": "25",
            "type": "t_mapping(t_uint256,t_struct(InflateByChanged)7681_storage)"
          },
          {
            "astId": 7472,
            "contract": "contracts/staking/StakingController.sol:StakingController",
            "label": "pCnfiImplementation",
            "offset": 0,
            "slot": "26",
            "type": "t_address"
          },
          {
            "astId": 7474,
            "contract": "contracts/staking/StakingController.sol:StakingController",
            "label": "currentDay",
            "offset": 0,
            "slot": "27",
            "type": "t_uint256"
          }
        ],
        "numberOfBytes": "896"
      },
      "t_struct(Tier)7619_storage": {
        "encoding": "inplace",
        "label": "struct StakingControllerLib.Tier",
        "members": [
          {
            "astId": 7614,
            "contract": "contracts/staking/StakingController.sol:StakingController",
            "label": "multiplier",
            "offset": 0,
            "slot": "0",
            "type": "t_uint256"
          },
          {
            "astId": 7616,
            "contract": "contracts/staking/StakingController.sol:StakingController",
            "label": "minimum",
            "offset": 0,
            "slot": "1",
            "type": "t_uint256"
          },
          {
            "astId": 7618,
            "contract": "contracts/staking/StakingController.sol:StakingController",
            "label": "cycles",
            "offset": 0,
            "slot": "2",
            "type": "t_uint256"
          }
        ],
        "numberOfBytes": "96"
      },
      "t_struct(User)7496_storage": {
        "encoding": "inplace",
        "label": "struct StakingControllerLib.User",
        "members": [
          {
            "astId": 7477,
            "contract": "contracts/staking/StakingController.sol:StakingController",
            "label": "currentWeight",
            "offset": 0,
            "slot": "0",
            "type": "t_uint256"
          },
          {
            "astId": 7479,
            "contract": "contracts/staking/StakingController.sol:StakingController",
            "label": "minimumWeight",
            "offset": 0,
            "slot": "1",
            "type": "t_uint256"
          },
          {
            "astId": 7481,
            "contract": "contracts/staking/StakingController.sol:StakingController",
            "label": "dailyWeight",
            "offset": 0,
            "slot": "2",
            "type": "t_uint256"
          },
          {
            "astId": 7483,
            "contract": "contracts/staking/StakingController.sol:StakingController",
            "label": "multiplier",
            "offset": 0,
            "slot": "3",
            "type": "t_uint256"
          },
          {
            "astId": 7485,
            "contract": "contracts/staking/StakingController.sol:StakingController",
            "label": "redeemable",
            "offset": 0,
            "slot": "4",
            "type": "t_uint256"
          },
          {
            "astId": 7487,
            "contract": "contracts/staking/StakingController.sol:StakingController",
            "label": "daysClaimed",
            "offset": 0,
            "slot": "5",
            "type": "t_uint256"
          },
          {
            "astId": 7489,
            "contract": "contracts/staking/StakingController.sol:StakingController",
            "label": "start",
            "offset": 0,
            "slot": "6",
            "type": "t_uint256"
          },
          {
            "astId": 7491,
            "contract": "contracts/staking/StakingController.sol:StakingController",
            "label": "seen",
            "offset": 0,
            "slot": "7",
            "type": "t_bool"
          },
          {
            "astId": 7493,
            "contract": "contracts/staking/StakingController.sol:StakingController",
            "label": "currentTier",
            "offset": 0,
            "slot": "8",
            "type": "t_uint256"
          },
          {
            "astId": 7495,
            "contract": "contracts/staking/StakingController.sol:StakingController",
            "label": "cyclesHeld",
            "offset": 0,
            "slot": "9",
            "type": "t_uint256"
          }
        ],
        "numberOfBytes": "320"
      },
      "t_struct(UserWeightChanges)7711_storage": {
        "encoding": "inplace",
        "label": "struct StakingControllerLib.UserWeightChanges",
        "members": [
          {
            "astId": 7708,
            "contract": "contracts/staking/StakingController.sol:StakingController",
            "label": "changes",
            "offset": 0,
            "slot": "0",
            "type": "t_mapping(t_uint256,t_uint256)"
          },
          {
            "astId": 7710,
            "contract": "contracts/staking/StakingController.sol:StakingController",
            "label": "totalCyclesSeen",
            "offset": 0,
            "slot": "1",
            "type": "t_uint256"
          }
        ],
        "numberOfBytes": "64"
      },
      "t_uint256": {
        "encoding": "inplace",
        "label": "uint256",
        "numberOfBytes": "32"
      }
    }
  }
}