{
  "address": "0x961DA7D01c359265768C97616c7Adb372329CD7E",
  "abi": [
    {
      "inputs": [
        {
          "internalType": "address payable",
          "name": "wallet",
          "type": "address"
        },
        {
          "internalType": "contract IERC20",
          "name": "token",
          "type": "address"
        },
        {
          "internalType": "uint256",
          "name": "openingTime",
          "type": "uint256"
        },
        {
          "internalType": "uint256",
          "name": "closingTime",
          "type": "uint256"
        },
        {
          "internalType": "address",
          "name": "_oracle",
          "type": "address"
        }
      ],
      "payable": false,
      "stateMutability": "nonpayable",
      "type": "constructor"
    },
    {
      "anonymous": false,
      "inputs": [
        {
          "indexed": false,
          "internalType": "uint256",
          "name": "prevClosingTime",
          "type": "uint256"
        },
        {
          "indexed": false,
          "internalType": "uint256",
          "name": "newClosingTime",
          "type": "uint256"
        }
      ],
      "name": "TimedCrowdsaleExtended",
      "type": "event"
    },
    {
      "anonymous": false,
      "inputs": [
        {
          "indexed": true,
          "internalType": "address",
          "name": "purchaser",
          "type": "address"
        },
        {
          "indexed": true,
          "internalType": "address",
          "name": "beneficiary",
          "type": "address"
        },
        {
          "indexed": false,
          "internalType": "uint256",
          "name": "value",
          "type": "uint256"
        },
        {
          "indexed": false,
          "internalType": "uint256",
          "name": "amount",
          "type": "uint256"
        }
      ],
      "name": "TokensPurchased",
      "type": "event"
    },
    {
      "payable": true,
      "stateMutability": "payable",
      "type": "fallback"
    },
    {
      "constant": false,
      "inputs": [
        {
          "internalType": "address",
          "name": "beneficiary",
          "type": "address"
        }
      ],
      "name": "buyTokens",
      "outputs": [],
      "payable": true,
      "stateMutability": "payable",
      "type": "function"
    },
    {
      "constant": true,
      "inputs": [],
      "name": "closingTime",
      "outputs": [
        {
          "internalType": "uint256",
          "name": "",
          "type": "uint256"
        }
      ],
      "payable": false,
      "stateMutability": "view",
      "type": "function"
    },
    {
      "constant": true,
      "inputs": [],
      "name": "hasClosed",
      "outputs": [
        {
          "internalType": "bool",
          "name": "",
          "type": "bool"
        }
      ],
      "payable": false,
      "stateMutability": "view",
      "type": "function"
    },
    {
      "constant": true,
      "inputs": [],
      "name": "isOpen",
      "outputs": [
        {
          "internalType": "bool",
          "name": "",
          "type": "bool"
        }
      ],
      "payable": false,
      "stateMutability": "view",
      "type": "function"
    },
    {
      "constant": true,
      "inputs": [],
      "name": "openingTime",
      "outputs": [
        {
          "internalType": "uint256",
          "name": "",
          "type": "uint256"
        }
      ],
      "payable": false,
      "stateMutability": "view",
      "type": "function"
    },
    {
      "constant": true,
      "inputs": [],
      "name": "oracle",
      "outputs": [
        {
          "internalType": "address",
          "name": "",
          "type": "address"
        }
      ],
      "payable": false,
      "stateMutability": "view",
      "type": "function"
    },
    {
      "constant": true,
      "inputs": [],
      "name": "rate",
      "outputs": [
        {
          "internalType": "uint256",
          "name": "",
          "type": "uint256"
        }
      ],
      "payable": false,
      "stateMutability": "view",
      "type": "function"
    },
    {
      "constant": true,
      "inputs": [],
      "name": "remainingTokens",
      "outputs": [
        {
          "internalType": "uint256",
          "name": "",
          "type": "uint256"
        }
      ],
      "payable": false,
      "stateMutability": "view",
      "type": "function"
    },
    {
      "constant": true,
      "inputs": [],
      "name": "token",
      "outputs": [
        {
          "internalType": "contract IERC20",
          "name": "",
          "type": "address"
        }
      ],
      "payable": false,
      "stateMutability": "view",
      "type": "function"
    },
    {
      "constant": true,
      "inputs": [],
      "name": "tokenWallet",
      "outputs": [
        {
          "internalType": "address",
          "name": "",
          "type": "address"
        }
      ],
      "payable": false,
      "stateMutability": "view",
      "type": "function"
    },
    {
      "constant": true,
      "inputs": [],
      "name": "wallet",
      "outputs": [
        {
          "internalType": "address payable",
          "name": "",
          "type": "address"
        }
      ],
      "payable": false,
      "stateMutability": "view",
      "type": "function"
    },
    {
      "constant": true,
      "inputs": [],
      "name": "weiRaised",
      "outputs": [
        {
          "internalType": "uint256",
          "name": "",
          "type": "uint256"
        }
      ],
      "payable": false,
      "stateMutability": "view",
      "type": "function"
    }
  ],
  "transactionHash": "0xcb821a5de9d445b114eb03de6fb2cb89cd777e9b7c3b6691a3bcd00180b70d56",
  "args": [
    "0x52A62fe122FF79741e54f70F784A7aAA2F970005",
    "0xEABB8996eA1662cAd2f7fB715127852cd3262Ae9",
    1608608459,
    1609213259,
    "0xFa5a44D3Ba93D666Bf29C8804a36e725ecAc659A"
  ],
  "solcInputHash": "b34ee5475445d45e9a40f5da4c3f05b0",
  "bytecode": "0x60806040523480156200001157600080fd5b50604051620018bf380380620018bf833981810160405260a08110156200003757600080fd5b8101908080519060200190929190805190602001909291908051906020019092919080519060200190929190805190602001909291905050508282866001888860016000806101000a81548160ff0219169083151502179055506000831162000108576040517f08c379a00000000000000000000000000000000000000000000000000000000081526004018080602001828103825260148152602001807f43726f776473616c653a2072617465206973203000000000000000000000000081525060200191505060405180910390fd5b600073ffffffffffffffffffffffffffffffffffffffff168273ffffffffffffffffffffffffffffffffffffffff16141562000190576040517f08c379a00000000000000000000000000000000000000000000000000000000081526004018080602001828103825260258152602001806200189a6025913960400191505060405180910390fd5b600073ffffffffffffffffffffffffffffffffffffffff168173ffffffffffffffffffffffffffffffffffffffff16141562000218576040517f08c379a0000000000000000000000000000000000000000000000000000000008152600401808060200182810382526024815260200180620018766024913960400191505060405180910390fd5b8260028190555081600160006101000a81548173ffffffffffffffffffffffffffffffffffffffff021916908373ffffffffffffffffffffffffffffffffffffffff16021790555080600060016101000a81548173ffffffffffffffffffffffffffffffffffffffff021916908373ffffffffffffffffffffffffffffffffffffffff160217905550505050600073ffffffffffffffffffffffffffffffffffffffff168173ffffffffffffffffffffffffffffffffffffffff1614156200032c576040517f08c379a00000000000000000000000000000000000000000000000000000000081526004018080602001828103825260348152602001806200180b6034913960400191505060405180910390fd5b80600460006101000a81548173ffffffffffffffffffffffffffffffffffffffff021916908373ffffffffffffffffffffffffffffffffffffffff1602179055505042821015620003c9576040517f08c379a0000000000000000000000000000000000000000000000000000000008152600401808060200182810382526033815260200180620017d86033913960400191505060405180910390fd5b81811162000423576040517f08c379a00000000000000000000000000000000000000000000000000000000081526004018080602001828103825260378152602001806200183f6037913960400191505060405180910390fd5b8160058190555080600681905550505080600760006101000a81548173ffffffffffffffffffffffffffffffffffffffff021916908373ffffffffffffffffffffffffffffffffffffffff160217905550505050505061134f80620004896000396000f3fe6080604052600436106100a75760003560e01c80637dc0d1d0116100645780637dc0d1d0146101f7578063b7a8807c1461024e578063bf58390314610279578063bff99c6c146102a4578063ec8ac4d8146102fb578063fc0c546a1461033f576100a7565b80631515bc2b146100c15780632c4e722e146100f05780634042b66f1461011b57806347535d7b146101465780634b6753bc14610175578063521eb273146101a0575b6100af610396565b6100bf6100ba610489565b610491565b005b3480156100cd57600080fd5b506100d661061c565b604051808215151515815260200191505060405180910390f35b3480156100fc57600080fd5b50610105610628565b6040518082815260200191505060405180910390f35b34801561012757600080fd5b5061013061076a565b6040518082815260200191505060405180910390f35b34801561015257600080fd5b5061015b610774565b604051808215151515815260200191505060405180910390f35b34801561018157600080fd5b5061018a61078f565b6040518082815260200191505060405180910390f35b3480156101ac57600080fd5b506101b5610799565b604051808273ffffffffffffffffffffffffffffffffffffffff1673ffffffffffffffffffffffffffffffffffffffff16815260200191505060405180910390f35b34801561020357600080fd5b5061020c6107c3565b604051808273ffffffffffffffffffffffffffffffffffffffff1673ffffffffffffffffffffffffffffffffffffffff16815260200191505060405180910390f35b34801561025a57600080fd5b506102636107e9565b6040518082815260200191505060405180910390f35b34801561028557600080fd5b5061028e6107f3565b6040518082815260200191505060405180910390f35b3480156102b057600080fd5b506102b96109f8565b604051808273ffffffffffffffffffffffffffffffffffffffff1673ffffffffffffffffffffffffffffffffffffffff16815260200191505060405180910390f35b61033d6004803603602081101561031157600080fd5b81019080803573ffffffffffffffffffffffffffffffffffffffff169060200190929190505050610491565b005b34801561034b57600080fd5b50610354610a22565b604051808273ffffffffffffffffffffffffffffffffffffffff1673ffffffffffffffffffffffffffffffffffffffff16815260200191505060405180910390f35b600760009054906101000a900473ffffffffffffffffffffffffffffffffffffffff1673ffffffffffffffffffffffffffffffffffffffff166396e85ced73a0b86991c6218b36c1d19d4a2e9eb0ce3606eb486040518263ffffffff1660e01b8152600401808273ffffffffffffffffffffffffffffffffffffffff1673ffffffffffffffffffffffffffffffffffffffff168152602001915050602060405180830381600087803b15801561044b57600080fd5b505af115801561045f573d6000803e3d6000fd5b505050506040513d602081101561047557600080fd5b810190808051906020019092919050505050565b600033905090565b6000809054906101000a900460ff16610512576040517f08c379a000000000000000000000000000000000000000000000000000000000815260040180806020018281038252601f8152602001807f5265656e7472616e637947756172643a207265656e7472616e742063616c6c0081525060200191505060405180910390fd5b60008060006101000a81548160ff021916908315150217905550600034905061053b8282610a4b565b600061054682610ad3565b905061055d82600354610af690919063ffffffff16565b60038190555061056d8382610b7e565b8273ffffffffffffffffffffffffffffffffffffffff1661058c610489565b73ffffffffffffffffffffffffffffffffffffffff167f6faf93231a456e552dbc9961f58d9713ee4f2e69d15f1975b050ef0911053a7b8484604051808381526020018281526020019250505060405180910390a36105eb8383610b8c565b6105f3610b90565b6105fd8383610bfb565b505060016000806101000a81548160ff02191690831515021790555050565b60006006544211905090565b6000610765600760009054906101000a900473ffffffffffffffffffffffffffffffffffffffff1673ffffffffffffffffffffffffffffffffffffffff1663bf6dd82e73a0b86991c6218b36c1d19d4a2e9eb0ce3606eb48620186a060006202a3006040518563ffffffff1660e01b8152600401808573ffffffffffffffffffffffffffffffffffffffff1673ffffffffffffffffffffffffffffffffffffffff16815260200184815260200183815260200182815260200194505050505060206040518083038186803b1580156106ff57600080fd5b505afa158015610713573d6000803e3d6000fd5b505050506040513d602081101561072957600080fd5b810190808051906020019092919050505071ffffffffffffffffffffffffffffffffffff16670de0b6b3a7640000610bff90919063ffffffff16565b905090565b6000600354905090565b6000600554421015801561078a57506006544211155b905090565b6000600654905090565b6000600160009054906101000a900473ffffffffffffffffffffffffffffffffffffffff16905090565b600760009054906101000a900473ffffffffffffffffffffffffffffffffffffffff1681565b6000600554905090565b60006109f3610800610a22565b73ffffffffffffffffffffffffffffffffffffffff166370a08231600460009054906101000a900473ffffffffffffffffffffffffffffffffffffffff166040518263ffffffff1660e01b8152600401808273ffffffffffffffffffffffffffffffffffffffff1673ffffffffffffffffffffffffffffffffffffffff16815260200191505060206040518083038186803b15801561089e57600080fd5b505afa1580156108b2573d6000803e3d6000fd5b505050506040513d60208110156108c857600080fd5b81019080805190602001909291905050506108e1610a22565b73ffffffffffffffffffffffffffffffffffffffff1663dd62ed3e600460009054906101000a900473ffffffffffffffffffffffffffffffffffffffff16306040518363ffffffff1660e01b8152600401808373ffffffffffffffffffffffffffffffffffffffff1673ffffffffffffffffffffffffffffffffffffffff1681526020018273ffffffffffffffffffffffffffffffffffffffff1673ffffffffffffffffffffffffffffffffffffffff1681526020019250505060206040518083038186803b1580156109b357600080fd5b505afa1580156109c7573d6000803e3d6000fd5b505050506040513d60208110156109dd57600080fd5b8101908080519060200190929190505050610c49565b905090565b6000600460009054906101000a900473ffffffffffffffffffffffffffffffffffffffff16905090565b60008060019054906101000a900473ffffffffffffffffffffffffffffffffffffffff16905090565b610a53610774565b610ac5576040517f08c379a00000000000000000000000000000000000000000000000000000000081526004018080602001828103825260188152602001807f54696d656443726f776473616c653a206e6f74206f70656e000000000000000081525060200191505060405180910390fd5b610acf8282610c62565b5050565b6000610aef610ae0610628565b83610d6390919063ffffffff16565b9050919050565b600080828401905083811015610b74576040517f08c379a000000000000000000000000000000000000000000000000000000000815260040180806020018281038252601b8152602001807f536166654d6174683a206164646974696f6e206f766572666c6f77000000000081525060200191505060405180910390fd5b8091505092915050565b610b888282610de9565b5050565b5050565b600160009054906101000a900473ffffffffffffffffffffffffffffffffffffffff1673ffffffffffffffffffffffffffffffffffffffff166108fc349081150290604051600060405180830381858888f19350505050158015610bf8573d6000803e3d6000fd5b50565b5050565b6000610c4183836040518060400160405280601a81526020017f536166654d6174683a206469766973696f6e206279207a65726f000000000000815250610e43565b905092915050565b6000818310610c585781610c5a565b825b905092915050565b600073ffffffffffffffffffffffffffffffffffffffff168273ffffffffffffffffffffffffffffffffffffffff161415610ce8576040517f08c379a000000000000000000000000000000000000000000000000000000000815260040180806020018281038252602a8152602001806112c7602a913960400191505060405180910390fd5b6000811415610d5f576040517f08c379a00000000000000000000000000000000000000000000000000000000081526004018080602001828103825260198152602001807f43726f776473616c653a20776569416d6f756e7420697320300000000000000081525060200191505060405180910390fd5b5050565b600080831415610d765760009050610de3565b6000828402905082848281610d8757fe5b0414610dde576040517f08c379a00000000000000000000000000000000000000000000000000000000081526004018080602001828103825260218152602001806112a66021913960400191505060405180910390fd5b809150505b92915050565b610e3f600460009054906101000a900473ffffffffffffffffffffffffffffffffffffffff168383610e19610a22565b73ffffffffffffffffffffffffffffffffffffffff16610f09909392919063ffffffff16565b5050565b60008083118290610eef576040517f08c379a00000000000000000000000000000000000000000000000000000000081526004018080602001828103825283818151815260200191508051906020019080838360005b83811015610eb4578082015181840152602081019050610e99565b50505050905090810190601f168015610ee15780820380516001836020036101000a031916815260200191505b509250505060405180910390fd5b506000838581610efb57fe5b049050809150509392505050565b611009848573ffffffffffffffffffffffffffffffffffffffff166323b872dd905060e01b858585604051602401808473ffffffffffffffffffffffffffffffffffffffff1673ffffffffffffffffffffffffffffffffffffffff1681526020018373ffffffffffffffffffffffffffffffffffffffff1673ffffffffffffffffffffffffffffffffffffffff1681526020018281526020019350505050604051602081830303815290604052907bffffffffffffffffffffffffffffffffffffffffffffffffffffffff19166020820180517bffffffffffffffffffffffffffffffffffffffffffffffffffffffff838183161783525050505061100f565b50505050565b61102e8273ffffffffffffffffffffffffffffffffffffffff1661125a565b6110a0576040517f08c379a000000000000000000000000000000000000000000000000000000000815260040180806020018281038252601f8152602001807f5361666545524332303a2063616c6c20746f206e6f6e2d636f6e74726163740081525060200191505060405180910390fd5b600060608373ffffffffffffffffffffffffffffffffffffffff16836040518082805190602001908083835b602083106110ef57805182526020820191506020810190506020830392506110cc565b6001836020036101000a0380198251168184511680821785525050505050509050019150506000604051808303816000865af19150503d8060008114611151576040519150601f19603f3d011682016040523d82523d6000602084013e611156565b606091505b5091509150816111ce576040517f08c379a00000000000000000000000000000000000000000000000000000000081526004018080602001828103825260208152602001807f5361666545524332303a206c6f772d6c6576656c2063616c6c206661696c656481525060200191505060405180910390fd5b600081511115611254578080602001905160208110156111ed57600080fd5b8101908080519060200190929190505050611253576040517f08c379a000000000000000000000000000000000000000000000000000000000815260040180806020018281038252602a8152602001806112f1602a913960400191505060405180910390fd5b5b50505050565b60008060007fc5d2460186f7233c927e7db2dcc703c0e500b653ca82273b7bfad8045d85a47060001b9050833f915080821415801561129c57506000801b8214155b9250505091905056fe536166654d6174683a206d756c7469706c69636174696f6e206f766572666c6f7743726f776473616c653a2062656e656669636961727920697320746865207a65726f20616464726573735361666545524332303a204552433230206f7065726174696f6e20646964206e6f742073756363656564a265627a7a723158205a97233a27ca3b39ff7db059b1cf4bdaae792914e2631a8d7a734f183bbdc5cb64736f6c6343000510003254696d656443726f776473616c653a206f70656e696e672074696d65206973206265666f72652063757272656e742074696d65416c6c6f77616e636543726f776473616c653a20746f6b656e2077616c6c657420697320746865207a65726f206164647265737354696d656443726f776473616c653a206f70656e696e672074696d65206973206e6f74206265666f726520636c6f73696e672074696d6543726f776473616c653a20746f6b656e20697320746865207a65726f206164647265737343726f776473616c653a2077616c6c657420697320746865207a65726f2061646472657373",
  "libraries": {},
  "devdoc": {
    "methods": {
      "buyTokens(address)": {
        "details": "low level token purchase ***DO NOT OVERRIDE*** This function has a non-reentrancy guard, so it shouldn't be called by another `nonReentrant` function.",
        "params": {
          "beneficiary": "Recipient of the token purchase"
        }
      },
      "closingTime()": {
        "return": "the crowdsale closing time."
      },
      "hasClosed()": {
        "details": "Checks whether the period in which the crowdsale is open has already elapsed.",
        "return": "Whether crowdsale period has elapsed"
      },
      "isOpen()": {
        "return": "true if the crowdsale is open, false otherwise."
      },
      "openingTime()": {
        "return": "the crowdsale opening time."
      },
      "remainingTokens()": {
        "details": "Checks the amount of tokens left in the allowance.",
        "return": "Amount of tokens left in the allowance"
      },
      "token()": {
        "return": "the token being sold."
      },
      "tokenWallet()": {
        "return": "the address of the wallet that will hold the tokens."
      },
      "wallet()": {
        "return": "the address where funds are collected."
      },
      "weiRaised()": {
        "return": "the amount of wei raised."
      }
    }
  },
  "userdoc": {
    "methods": {}
  },
  "storageLayout": {
    "storage": [
      {
        "astId": 2723,
        "contract": "contracts/ConnectCrowdsale.sol:ConnectCrowdsale",
        "label": "_notEntered",
        "offset": 0,
        "slot": "0",
        "type": "t_bool"
      },
      {
        "astId": 1607,
        "contract": "contracts/ConnectCrowdsale.sol:ConnectCrowdsale",
        "label": "_token",
        "offset": 1,
        "slot": "0",
        "type": "t_contract(IERC20)2424"
      },
      {
        "astId": 1609,
        "contract": "contracts/ConnectCrowdsale.sol:ConnectCrowdsale",
        "label": "_wallet",
        "offset": 0,
        "slot": "1",
        "type": "t_address_payable"
      },
      {
        "astId": 1611,
        "contract": "contracts/ConnectCrowdsale.sol:ConnectCrowdsale",
        "label": "_rate",
        "offset": 0,
        "slot": "2",
        "type": "t_uint256"
      },
      {
        "astId": 1613,
        "contract": "contracts/ConnectCrowdsale.sol:ConnectCrowdsale",
        "label": "_weiRaised",
        "offset": 0,
        "slot": "3",
        "type": "t_uint256"
      },
      {
        "astId": 1882,
        "contract": "contracts/ConnectCrowdsale.sol:ConnectCrowdsale",
        "label": "_tokenWallet",
        "offset": 0,
        "slot": "4",
        "type": "t_address"
      },
      {
        "astId": 1960,
        "contract": "contracts/ConnectCrowdsale.sol:ConnectCrowdsale",
        "label": "_openingTime",
        "offset": 0,
        "slot": "5",
        "type": "t_uint256"
      },
      {
        "astId": 1962,
        "contract": "contracts/ConnectCrowdsale.sol:ConnectCrowdsale",
        "label": "_closingTime",
        "offset": 0,
        "slot": "6",
        "type": "t_uint256"
      },
      {
        "astId": 261,
        "contract": "contracts/ConnectCrowdsale.sol:ConnectCrowdsale",
        "label": "oracle",
        "offset": 0,
        "slot": "7",
        "type": "t_address"
      }
    ],
    "types": {
      "t_address": {
        "encoding": "inplace",
        "label": "address",
        "numberOfBytes": "20"
      },
      "t_address_payable": {
        "encoding": "inplace",
        "label": "address payable",
        "numberOfBytes": "20"
      },
      "t_bool": {
        "encoding": "inplace",
        "label": "bool",
        "numberOfBytes": "1"
      },
      "t_contract(IERC20)2424": {
        "encoding": "inplace",
        "label": "contract IERC20",
        "numberOfBytes": "20"
      },
      "t_uint256": {
        "encoding": "inplace",
        "label": "uint256",
        "numberOfBytes": "32"
      }
    }
  }
}