{
  "address": "0xbbb604a12C6E4F88f1fa562603BF7D9d48CDf702",
  "abi": [
    {
      "anonymous": false,
      "inputs": [
        {
          "indexed": true,
          "internalType": "address",
          "name": "previousOwner",
          "type": "address"
        },
        {
          "indexed": true,
          "internalType": "address",
          "name": "newOwner",
          "type": "address"
        }
      ],
      "name": "OwnershipTransferred",
      "type": "event"
    },
    {
      "anonymous": false,
      "inputs": [
        {
          "indexed": true,
          "internalType": "address",
          "name": "user",
          "type": "address"
        },
        {
          "indexed": false,
          "internalType": "uint256",
          "name": "amountToRedeem",
          "type": "uint256"
        },
        {
          "indexed": false,
          "internalType": "uint256",
          "name": "bonuses",
          "type": "uint256"
        }
      ],
      "name": "RewardsClaimed",
      "type": "event"
    },
    {
      "inputs": [
        {
          "internalType": "address",
          "name": "user",
          "type": "address"
        }
      ],
      "name": "_claim",
      "outputs": [
        {
          "internalType": "uint256",
          "name": "amountToRedeem",
          "type": "uint256"
        },
        {
          "internalType": "uint256",
          "name": "bonuses",
          "type": "uint256"
        }
      ],
      "stateMutability": "view",
      "type": "function"
    },
    {
      "inputs": [
        {
          "internalType": "address",
          "name": "delegateTo",
          "type": "address"
        },
        {
          "internalType": "bytes",
          "name": "callData",
          "type": "bytes"
        }
      ],
      "name": "_executeQuery",
      "outputs": [
        {
          "internalType": "bytes",
          "name": "",
          "type": "bytes"
        }
      ],
      "stateMutability": "nonpayable",
      "type": "function"
    },
    {
      "inputs": [],
      "name": "claimRewards",
      "outputs": [
        {
          "internalType": "uint256",
          "name": "amountToRedeem",
          "type": "uint256"
        },
        {
          "internalType": "uint256",
          "name": "bonuses",
          "type": "uint256"
        }
      ],
      "stateMutability": "nonpayable",
      "type": "function"
    },
    {
      "inputs": [
        {
          "internalType": "uint256",
          "name": "amount",
          "type": "uint256"
        }
      ],
      "name": "claimRewardsWithAmount",
      "outputs": [
        {
          "internalType": "uint256",
          "name": "amountToRedeem",
          "type": "uint256"
        },
        {
          "internalType": "uint256",
          "name": "bonuses",
          "type": "uint256"
        }
      ],
      "stateMutability": "nonpayable",
      "type": "function"
    },
    {
      "inputs": [],
      "name": "commitmentViolationPenalty",
      "outputs": [
        {
          "internalType": "uint256",
          "name": "penalty",
          "type": "uint256"
        }
      ],
      "stateMutability": "view",
      "type": "function"
    },
    {
      "inputs": [],
      "name": "currentCycle",
      "outputs": [
        {
          "internalType": "uint256",
          "name": "cycle",
          "type": "uint256"
        }
      ],
      "stateMutability": "view",
      "type": "function"
    },
    {
      "inputs": [
        {
          "internalType": "address",
          "name": "user",
          "type": "address"
        }
      ],
      "name": "dailyBonusesAccrued",
      "outputs": [
        {
          "internalType": "uint256",
          "name": "amount",
          "type": "uint256"
        }
      ],
      "stateMutability": "view",
      "type": "function"
    },
    {
      "inputs": [],
      "name": "fillFirstCycle",
      "outputs": [],
      "stateMutability": "nonpayable",
      "type": "function"
    },
    {
      "inputs": [
        {
          "internalType": "uint256",
          "name": "_cycleInterval",
          "type": "uint256"
        },
        {
          "internalType": "uint256",
          "name": "_rewardInterval",
          "type": "uint256"
        },
        {
          "internalType": "uint256",
          "name": "_inflateBy",
          "type": "uint256"
        },
        {
          "internalType": "uint256",
          "name": "_inflatepcnfiBy",
          "type": "uint256"
        },
        {
          "internalType": "uint256",
          "name": "_baseUnstakePenalty",
          "type": "uint256"
        },
        {
          "internalType": "uint256",
          "name": "_commitmentViolationPenalty",
          "type": "uint256"
        },
        {
          "internalType": "uint256[]",
          "name": "_multipliers",
          "type": "uint256[]"
        },
        {
          "internalType": "uint256[]",
          "name": "_cycles",
          "type": "uint256[]"
        },
        {
          "internalType": "uint256[]",
          "name": "_minimums",
          "type": "uint256[]"
        }
      ],
      "name": "govern",
      "outputs": [],
      "stateMutability": "nonpayable",
      "type": "function"
    },
    {
      "inputs": [
        {
          "internalType": "address",
          "name": "_cnfi",
          "type": "address"
        },
        {
          "internalType": "address",
          "name": "_sCnfi",
          "type": "address"
        },
        {
          "internalType": "address",
          "name": "_cnfiTreasury",
          "type": "address"
        }
      ],
      "name": "initialize",
      "outputs": [],
      "stateMutability": "nonpayable",
      "type": "function"
    },
    {
      "inputs": [],
      "name": "owner",
      "outputs": [
        {
          "internalType": "address",
          "name": "",
          "type": "address"
        }
      ],
      "stateMutability": "view",
      "type": "function"
    },
    {
      "inputs": [
        {
          "internalType": "address",
          "name": "viewLogic",
          "type": "address"
        },
        {
          "internalType": "bytes",
          "name": "payload",
          "type": "bytes"
        }
      ],
      "name": "query",
      "outputs": [
        {
          "internalType": "bytes",
          "name": "",
          "type": "bytes"
        }
      ],
      "stateMutability": "nonpayable",
      "type": "function"
    },
    {
      "inputs": [
        {
          "internalType": "address",
          "name": "a",
          "type": "address"
        },
        {
          "internalType": "address",
          "name": "b",
          "type": "address"
        }
      ],
      "name": "receiveCallback",
      "outputs": [],
      "stateMutability": "nonpayable",
      "type": "function"
    },
    {
      "inputs": [
        {
          "internalType": "address",
          "name": "sender",
          "type": "address"
        }
      ],
      "name": "receiveSingularCallback",
      "outputs": [],
      "stateMutability": "nonpayable",
      "type": "function"
    },
    {
      "inputs": [],
      "name": "renounceOwnership",
      "outputs": [],
      "stateMutability": "nonpayable",
      "type": "function"
    },
    {
      "inputs": [
        {
          "internalType": "uint256",
          "name": "amount",
          "type": "uint256"
        },
        {
          "internalType": "uint256",
          "name": "tier",
          "type": "uint256"
        }
      ],
      "name": "restakeRewardsWithAmount",
      "outputs": [],
      "stateMutability": "nonpayable",
      "type": "function"
    },
    {
      "inputs": [
        {
          "internalType": "uint256",
          "name": "amount",
          "type": "uint256"
        },
        {
          "internalType": "uint256",
          "name": "commitmentTier",
          "type": "uint256"
        }
      ],
      "name": "stake",
      "outputs": [],
      "stateMutability": "nonpayable",
      "type": "function"
    },
    {
      "inputs": [
        {
          "internalType": "address",
          "name": "newOwner",
          "type": "address"
        }
      ],
      "name": "transferOwnership",
      "outputs": [],
      "stateMutability": "nonpayable",
      "type": "function"
    },
    {
      "inputs": [
        {
          "internalType": "uint256",
          "name": "amount",
          "type": "uint256"
        }
      ],
      "name": "unstake",
      "outputs": [
        {
          "internalType": "uint256",
          "name": "withdrawable",
          "type": "uint256"
        }
      ],
      "stateMutability": "nonpayable",
      "type": "function"
    }
  ],
  "transactionHash": "0x0939b973bddf021c0a1196a07e1c4513fb45fbc60dfcbc70a5fbe69a9be0cf66",
  "args": [],
  "numDeployments": 2,
  "solcInputHash": "fa6372f83535ac13c261f70b7324988d",
  "bytecode": "0x608060405234801561001057600080fd5b506135c8806100206000396000f3fe608060405234801561001057600080fd5b50600436106101215760003560e01c80637b0472f0116100ad578063c0c53b8b11610071578063c0c53b8b146102f7578063de8f84ea14610313578063ead9a68d1461031d578063f2fde38b1461034d578063fd00430c1461036957610121565b80637b0472f0146102675780637c91ad02146102835780638da5cb5b1461029f578063a3242e02146102bd578063bab2f552146102d957610121565b8063382153e0116100f4578063382153e0146101c1578063383e50e7146101dd57806338ed85b01461020e5780634dce52aa1461023f578063715018a61461025d57610121565b80630ed1ada11461012657806323e3b730146101425780632e17de7814610172578063372500ab146101a2575b600080fd5b610140600480360381019061013b9190612a03565b610399565b005b61015c6004803603810190610157919061283a565b610625565b6040516101699190613092565b60405180910390f35b61018c60048036038101906101879190612939565b610727565b604051610199919061334e565b60405180910390f35b6101aa61072e565b6040516101b8929190613369565b60405180910390f35b6101db60048036038101906101d691906127af565b6107b1565b005b6101f760048036038101906101f29190612939565b6107c7565b604051610205929190613369565b60405180910390f35b61022860048036038101906102239190612786565b61084b565b604051610236929190613369565b60405180910390f35b610247610853565b604051610254919061334e565b60405180910390f35b610265610860565b005b610281600480360381019061027c919061298b565b61099d565b005b61029d6004803603810190610298919061298b565b6109a1565b005b6102a7610a21565b6040516102b4919061301e565b60405180910390f35b6102d760048036038101906102d29190612786565b610a4b565b005b6102e1610abc565b6040516102ee919061334e565b60405180910390f35b610311600480360381019061030c91906127eb565b610ac9565b005b61031b610dec565b005b61033760048036038101906103329190612786565b610e74565b604051610344919061334e565b60405180910390f35b61036760048036038101906103629190612786565b610ec0565b005b610383600480360381019061037e919061283a565b61106c565b6040516103909190613092565b60405180910390f35b6103a161113d565b73ffffffffffffffffffffffffffffffffffffffff166103bf610a21565b73ffffffffffffffffffffffffffffffffffffffff1614610415576040517f08c379a000000000000000000000000000000000000000000000000000000000815260040161040c906131f6565b60405180910390fd5b600085111561042957846065600c01819055505b600084111561043d57836065600d01819055505b6000891115610462578860656006018190555060656006015442016065600501819055505b600088111561048757876065600a01819055506065600a015442016065600701819055505b600087111561052a57606560080154871461051f5760656018016065601b0154908060018154018082558091505060019003906000526020600020016000909190919091505560405180604001604052806065600e01548152602001606560080154815250606560190160006065601b0154815260200190815260200160002060008201518160000155602082015181600101559050505b866065600801819055505b600086111561053e57856065600901819055505b60018351016065600b0181905550670de0b6b3a7640000606560120160008081526020019081526020016000206000018190555060005b835181101561061957604051806060016040528085838151811061059557fe5b602002602001015181526020018383815181106105ae57fe5b602002602001015181526020018483815181106105c757fe5b6020026020010151815250606560120160006001840181526020019081526020016000206000820151816000015560208201518160010155604082015181600201559050508080600101915050610575565b50505050505050505050565b60603073ffffffffffffffffffffffffffffffffffffffff163373ffffffffffffffffffffffffffffffffffffffff1614610695576040517f08c379a000000000000000000000000000000000000000000000000000000000815260040161068c90613156565b60405180910390fd5b600060608473ffffffffffffffffffffffffffffffffffffffff16846040516106be9190613007565b600060405180830381855af49150503d80600081146106f9576040519150601f19603f3d011682016040523d82523d6000602084013e6106fe565b606091505b509150915081156107145761071281611145565b505b61071d8161114f565b9250505092915050565b6000919050565b60008061073961113d565b73ffffffffffffffffffffffffffffffffffffffff16610757610a21565b73ffffffffffffffffffffffffffffffffffffffff16146107ad576040517f08c379a00000000000000000000000000000000000000000000000000000000081526004016107a4906131f6565b60405180910390fd5b9091565b6107ba82610a4b565b6107c381610a4b565b5050565b6000806107d261113d565b73ffffffffffffffffffffffffffffffffffffffff166107f0610a21565b73ffffffffffffffffffffffffffffffffffffffff1614610846576040517f08c379a000000000000000000000000000000000000000000000000000000000815260040161083d906131f6565b60405180910390fd5b915091565b600080915091565b60006065600d0154905090565b61086861113d565b73ffffffffffffffffffffffffffffffffffffffff16610886610a21565b73ffffffffffffffffffffffffffffffffffffffff16146108dc576040517f08c379a00000000000000000000000000000000000000000000000000000000081526004016108d3906131f6565b60405180910390fd5b600073ffffffffffffffffffffffffffffffffffffffff16603360009054906101000a900473ffffffffffffffffffffffffffffffffffffffff1673ffffffffffffffffffffffffffffffffffffffff167f8be0079c531659141344cd1fd0a4f28419497f9722a3daafe3b4186f6b6457e060405160405180910390a36000603360006101000a81548173ffffffffffffffffffffffffffffffffffffffff021916908373ffffffffffffffffffffffffffffffffffffffff160217905550565b5050565b6109a961113d565b73ffffffffffffffffffffffffffffffffffffffff166109c7610a21565b73ffffffffffffffffffffffffffffffffffffffff1614610a1d576040517f08c379a0000000000000000000000000000000000000000000000000000000008152600401610a14906131f6565b60405180910390fd5b5050565b6000603360009054906101000a900473ffffffffffffffffffffffffffffffffffffffff16905090565b600073ffffffffffffffffffffffffffffffffffffffff168173ffffffffffffffffffffffffffffffffffffffff1614610ab957610a896000611159565b610a936000611386565b610a9c816116ad565b610aa5816116bb565b610aae81611728565b50610ab8816117cc565b5b50565b6000606560000154905090565b600060019054906101000a900460ff1680610ae85750610ae7611862565b5b80610afe575060008054906101000a900460ff16155b610b3d576040517f08c379a0000000000000000000000000000000000000000000000000000000008152600401610b3490613196565b60405180910390fd5b60008060019054906101000a900460ff161590508015610b8d576001600060016101000a81548160ff02191690831515021790555060016000806101000a81548160ff0219169083151502179055505b610b95611873565b83606560020160006101000a81548173ffffffffffffffffffffffffffffffffffffffff021916908373ffffffffffffffffffffffffffffffffffffffff160217905550610ce0600073D5A0412a758804cB28A81f529FdC810cf7fe1e1e6313a9589c6040518163ffffffff1660e01b815260040160206040518083038186803b158015610c2257600080fd5b505af4158015610c36573d6000803e3d6000fd5b505050506040513d601f19601f82011682018060405250810190610c5a919061288e565b73D5A0412a758804cB28A81f529FdC810cf7fe1e1e6352c7420d6040518163ffffffff1660e01b815260040160006040518083038186803b158015610c9e57600080fd5b505af4158015610cb2573d6000803e3d6000fd5b505050506040513d6000823e3d601f19601f82011682018060405250810190610cdb91906128b7565b611a04565b6065601a0160006101000a81548173ffffffffffffffffffffffffffffffffffffffff021916908373ffffffffffffffffffffffffffffffffffffffff16021790555081606560010160006101000a81548173ffffffffffffffffffffffffffffffffffffffff021916908373ffffffffffffffffffffffffffffffffffffffff16021790555082606560030160006101000a81548173ffffffffffffffffffffffffffffffffffffffff021916908373ffffffffffffffffffffffffffffffffffffffff160217905550620151806065600a018190555062ed4e006065600601819055508015610de65760008060016101000a81548160ff0219169083151502179055505b50505050565b610df461113d565b73ffffffffffffffffffffffffffffffffffffffff16610e12610a21565b73ffffffffffffffffffffffffffffffffffffffff1614610e68576040517f08c379a0000000000000000000000000000000000000000000000000000000008152600401610e5f906131f6565b60405180910390fd5b610e726001611386565b565b6000606560150160008373ffffffffffffffffffffffffffffffffffffffff1673ffffffffffffffffffffffffffffffffffffffff168152602001908152602001600020549050919050565b610ec861113d565b73ffffffffffffffffffffffffffffffffffffffff16610ee6610a21565b73ffffffffffffffffffffffffffffffffffffffff1614610f3c576040517f08c379a0000000000000000000000000000000000000000000000000000000008152600401610f33906131f6565b60405180910390fd5b600073ffffffffffffffffffffffffffffffffffffffff168173ffffffffffffffffffffffffffffffffffffffff161415610fac576040517f08c379a0000000000000000000000000000000000000000000000000000000008152600401610fa3906130f6565b60405180910390fd5b8073ffffffffffffffffffffffffffffffffffffffff16603360009054906101000a900473ffffffffffffffffffffffffffffffffffffffff1673ffffffffffffffffffffffffffffffffffffffff167f8be0079c531659141344cd1fd0a4f28419497f9722a3daafe3b4186f6b6457e060405160405180910390a380603360006101000a81548173ffffffffffffffffffffffffffffffffffffffff021916908373ffffffffffffffffffffffffffffffffffffffff16021790555050565b6060600060603073ffffffffffffffffffffffffffffffffffffffff166110938686611b15565b6040516110a09190613007565b6000604051808303816000865af19150503d80600081146110dd576040519150601f19603f3d011682016040523d82523d6000602084013e6110e2565b606091505b50915091508115611132576110f681611baf565b6040517f08c379a000000000000000000000000000000000000000000000000000000000815260040161112991906130b4565b60405180910390fd5b809250505092915050565b600033905090565b6060815160208301fd5b6060815160208301f35b6000606560110160006065600001548152602001908152602001600020905081806111a357508060090160009054906101000a900460ff161580156111a2575060656007015442115b5b1561138257600060019050606560070154421115611200576111fd60016111ef6065600a01546111e160656007015442611cc490919063ffffffff16565b611d1490919063ffffffff16565b611d6a90919063ffffffff16565b90505b6065600a0154420160656007018190555061122f81606560080154028360030154611d6a90919063ffffffff16565b8260030181905550606560040160009054906101000a900473ffffffffffffffffffffffffffffffffffffffff1673ffffffffffffffffffffffffffffffffffffffff166340c10f19606560010160009054906101000a900473ffffffffffffffffffffffffffffffffffffffff1683606560090154026040518363ffffffff1660e01b81526004016112c3929190613069565b600060405180830381600087803b1580156112dd57600080fd5b505af11580156112f1573d6000803e3d6000fd5b5050505060005b81811015611344576065600801548360070160008560040154815260200190815260200160002081905550826004016000815480929190600101919050555080806001019150506112f8565b50611364816065600e015402606560100154611d6a90919063ffffffff16565b606560100181905550806065601b0160008282540192505081905550505b5050565b8080611396575060656005015442115b156116aa576065600601544201606560050181905550600060656000016000815460010191905081905590506114976065601a0160009054906101000a900473ffffffffffffffffffffffffffffffffffffffff1673D5A0412a758804cB28A81f529FdC810cf7fe1e1e6313a9589c6040518163ffffffff1660e01b815260040160206040518083038186803b15801561142f57600080fd5b505af4158015611443573d6000803e3d6000fd5b505050506040513d601f19601f82011682018060405250810190611467919061288e565b83604051602001611479929190612fdb565b6040516020818303038152906040528051906020012060001c611dbf565b6065601101600083815260200190815260200160002060020160006101000a81548173ffffffffffffffffffffffffffffffffffffffff021916908373ffffffffffffffffffffffffffffffffffffffff1602179055506065600a015442016065600701819055506065601101600082815260200190815260200160002060020160009054906101000a900473ffffffffffffffffffffffffffffffffffffffff16606560040160006101000a81548173ffffffffffffffffffffffffffffffffffffffff021916908373ffffffffffffffffffffffffffffffffffffffff160217905550606560040160009054906101000a900473ffffffffffffffffffffffffffffffffffffffff1673ffffffffffffffffffffffffffffffffffffffff1663fe4b84df826040518263ffffffff1660e01b81526004016115da919061334e565b600060405180830381600087803b1580156115f457600080fd5b505af1158015611608573d6000803e3d6000fd5b5050505060016065601101600083815260200190815260200160002060040181905550600181146116a85760656011016000600183038152602001908152602001600020600101546065601101600083815260200190815260200160002060000181905550606560110160006001830381526020019081526020016000206001015460656011016000838152602001908152602001600020600101819055505b505b50565b6116b8606582611e5e565b50565b73c111c39b37f972De44Bd7E0C2bFfFa7F9F0f3A70633e75efd16065836040518363ffffffff1660e01b81526004016116f5929190613256565b60006040518083038186803b15801561170d57600080fd5b505af4158015611721573d6000803e3d6000fd5b5050505050565b600080611736836000611e6c565b905073c111c39b37f972De44Bd7E0C2bFfFa7F9F0f3A706346c52119606585846040518463ffffffff1660e01b8152600401611774939291906132d2565b60206040518083038186803b15801561178c57600080fd5b505af41580156117a0573d6000803e3d6000fd5b505050506040513d601f19601f820116820180604052508101906117c49190612962565b915050919050565b735986b6486c196B00cF450e470171e62B121747de635d8dc94f60658360008060006040518663ffffffff1660e01b815260040161180e95949392919061327f565b604080518083038186803b15801561182557600080fd5b505af4158015611839573d6000803e3d6000fd5b505050506040513d601f19601f8201168201806040525081019061185d91906129c7565b505050565b600061186d3061205b565b15905090565b600060019054906101000a900460ff16806118925750611891611862565b5b806118a8575060008054906101000a900460ff16155b6118e7576040517f08c379a00000000000000000000000000000000000000000000000000000000081526004016118de90613196565b60405180910390fd5b60008060019054906101000a900460ff161590508015611937576001600060016101000a81548160ff02191690831515021790555060016000806101000a81548160ff0219169083151502179055505b600061194161113d565b905080603360006101000a81548173ffffffffffffffffffffffffffffffffffffffff021916908373ffffffffffffffffffffffffffffffffffffffff1602179055508073ffffffffffffffffffffffffffffffffffffffff16600073ffffffffffffffffffffffffffffffffffffffff167f8be0079c531659141344cd1fd0a4f28419497f9722a3daafe3b4186f6b6457e060405160405180910390a3508015611a015760008060016101000a81548160ff0219169083151502179055505b50565b60008084471015611a4a576040517f08c379a0000000000000000000000000000000000000000000000000000000008152600401611a4190613236565b60405180910390fd5b600083511415611a8f576040517f08c379a0000000000000000000000000000000000000000000000000000000008152600401611a86906130d6565b60405180910390fd5b8383516020850187f59050600073ffffffffffffffffffffffffffffffffffffffff168173ffffffffffffffffffffffffffffffffffffffff161415611b0a576040517f08c379a0000000000000000000000000000000000000000000000000000000008152600401611b01906131b6565b60405180910390fd5b809150509392505050565b60608282604051602401611b2a929190613039565b6040516020818303038152906040527f23e3b730000000000000000000000000000000000000000000000000000000007bffffffffffffffffffffffffffffffffffffffffffffffffffffffff19166020820180517bffffffffffffffffffffffffffffffffffffffffffffffffffffffff8381831617835250505050905092915050565b6060600082511415611bf8576040518060400160405280601c81526020017f636170747572656420656d7074792072657665727420627566666572000000008152509050611cbf565b6308c379a063ffffffff16611c22611c1d600060048661206e9092919063ffffffff16565b6120a4565b60001c63ffffffff161415611cbb576060611c4f611c4a6004856120ca90919063ffffffff16565b6120f6565b9050600081511415611c99576040518060400160405280601d81526020017f636170747572656420656d70747920726576657274206d657373616765000000815250915050611cbf565b606081806020019051810190611caf91906128f8565b90508092505050611cbf565b8190505b919050565b600082821115611d09576040517f08c379a0000000000000000000000000000000000000000000000000000000008152600401611d0090613136565b60405180910390fd5b818303905092915050565b6000808211611d58576040517f08c379a0000000000000000000000000000000000000000000000000000000008152600401611d4f90613176565b60405180910390fd5b818381611d6157fe5b04905092915050565b600080828401905083811015611db5576040517f08c379a0000000000000000000000000000000000000000000000000000000008152600401611dac90613116565b60405180910390fd5b8091505092915050565b60006060611dcc8461217a565b905060008360001b90508151602083018282826000f594505050600073ffffffffffffffffffffffffffffffffffffffff168373ffffffffffffffffffffffffffffffffffffffff161415611e56576040517f08c379a0000000000000000000000000000000000000000000000000000000008152600401611e4d90613216565b60405180910390fd5b505092915050565b611e68828261218d565b5050565b600080606560030160009054906101000a900473ffffffffffffffffffffffffffffffffffffffff1673ffffffffffffffffffffffffffffffffffffffff166370a08231856040518263ffffffff1660e01b8152600401611ecd919061301e565b60206040518083038186803b158015611ee557600080fd5b505afa158015611ef9573d6000803e3d6000fd5b505050506040513d601f19601f82011682018060405250810190611f1d9190612962565b9050600080735986b6486c196B00cF450e470171e62B121747de63f7ed8c3f60658789876040518563ffffffff1660e01b8152600401611f609493929190613309565b604080518083038186803b158015611f7757600080fd5b505af4158015611f8b573d6000803e3d6000fd5b505050506040513d601f19601f82011682018060405250810190611faf91906129c7565b91509150600081111561204f57606560030160009054906101000a900473ffffffffffffffffffffffffffffffffffffffff1673ffffffffffffffffffffffffffffffffffffffff16639dc29fac87836040518363ffffffff1660e01b815260040161201c929190613069565b600060405180830381600087803b15801561203657600080fd5b505af115801561204a573d6000803e3d6000fd5b505050505b81935050505092915050565b600080823b905060008111915050919050565b612076612592565b6120808484612265565b81600001818152505081816020018181525050828160400181815250509392505050565b600080826000015190506000836020015190506120c18282612275565b92505050919050565b6120d2612592565b81835110156120e057825191505b6120ee83838486510361206e565b905092915050565b60606000826020015190508067ffffffffffffffff8111801561211857600080fd5b506040519080825280601f01601f19166020018201604052801561214b5781602001600182028036833780820191505090505b5091506000836000015160001b9050600061216584612292565b905061217281838561229f565b505050919050565b606061218630836122e1565b9050919050565b60008260170160008373ffffffffffffffffffffffffffffffffffffffff1673ffffffffffffffffffffffffffffffffffffffff16815260200190815260200160002090506000816000015414156121f157670de0b6b3a764000081600001819055505b806008015483601b01541115612255576122486122358260050154612227846008015487601b0154611cc490919063ffffffff16565b61252290919063ffffffff16565b82600a0154611d6a90919063ffffffff16565b81600a0181905550612260565b600081600a01819055505b505050565b6000602082018301905092915050565b6000600180600884021b0380836020038503511691505092915050565b6000602082019050919050565b5b602081106122c357815183526020830192506020820191506020810390506122a0565b600180600883602003021b0380845116811984511617845250505050565b606080600067ffffffffffffffff811180156122fc57600080fd5b506040519080825280601f01601f19166020018201604052801561232f5781602001600182028036833780820191505090505b506040516024016123409190613092565b6040516020818303038152906040527f52e831dd000000000000000000000000000000000000000000000000000000007bffffffffffffffffffffffffffffffffffffffffffffffffffffffff19166020820180517bffffffffffffffffffffffffffffffffffffffffffffffffffffffff83818316178352505050509050805160630167ffffffffffffffff811180156123da57600080fd5b506040519080825280601f01601f19166020018201604052801561240d5781602001600182028036833780820191505090505b5091507f3d3d606380380380913d393d73bebebebebebebebebebebebebebebebebebebe60208301526c010000000000000000000000008402602d8301527f5af4602a57600080fd5b602d8060366000396000f3363d3d373d3d3d363d73be60418301526c01000000000000000000000000830260608301527f5af43d82803e903d91602b57fd5bf30000000000000000000000000000000000607483015260005b815181101561251a578181815181106124c457fe5b602001015160f81c60f81b8360638301815181106124de57fe5b60200101907effffffffffffffffffffffffffffffffffffffffffffffffffffffffffffff1916908160001a90535080806001019150506124af565b505092915050565b600080831415612535576000905061258c565b600082840290508284828161254657fe5b0414612587576040517f08c379a000000000000000000000000000000000000000000000000000000000815260040161257e906131d6565b60405180910390fd5b809150505b92915050565b60405180606001604052806000815260200160008152602001600081525090565b6000813590506125c28161354d565b92915050565b600082601f8301126125d957600080fd5b81356125ec6125e7826133bf565b613392565b9150818183526020840193506020810190508385602084028201111561261157600080fd5b60005b838110156126415781612627888261275c565b845260208401935060208301925050600181019050612614565b5050505092915050565b60008151905061265a81613564565b92915050565b600082601f83011261267157600080fd5b813561268461267f826133e7565b613392565b915080825260208301602083018583830111156126a057600080fd5b6126ab8382846134e6565b50505092915050565b600082601f8301126126c557600080fd5b81516126d86126d3826133e7565b613392565b915080825260208301602083018583830111156126f457600080fd5b6126ff8382846134f5565b50505092915050565b600082601f83011261271957600080fd5b815161272c61272782613413565b613392565b9150808252602083016020830185838301111561274857600080fd5b6127538382846134f5565b50505092915050565b60008135905061276b8161357b565b92915050565b6000815190506127808161357b565b92915050565b60006020828403121561279857600080fd5b60006127a6848285016125b3565b91505092915050565b600080604083850312156127c257600080fd5b60006127d0858286016125b3565b92505060206127e1858286016125b3565b9150509250929050565b60008060006060848603121561280057600080fd5b600061280e868287016125b3565b935050602061281f868287016125b3565b9250506040612830868287016125b3565b9150509250925092565b6000806040838503121561284d57600080fd5b600061285b858286016125b3565b925050602083013567ffffffffffffffff81111561287857600080fd5b61288485828601612660565b9150509250929050565b6000602082840312156128a057600080fd5b60006128ae8482850161264b565b91505092915050565b6000602082840312156128c957600080fd5b600082015167ffffffffffffffff8111156128e357600080fd5b6128ef848285016126b4565b91505092915050565b60006020828403121561290a57600080fd5b600082015167ffffffffffffffff81111561292457600080fd5b61293084828501612708565b91505092915050565b60006020828403121561294b57600080fd5b60006129598482850161275c565b91505092915050565b60006020828403121561297457600080fd5b600061298284828501612771565b91505092915050565b6000806040838503121561299e57600080fd5b60006129ac8582860161275c565b92505060206129bd8582860161275c565b9150509250929050565b600080604083850312156129da57600080fd5b60006129e885828601612771565b92505060206129f985828601612771565b9150509250929050565b60008060008060008060008060006101208a8c031215612a2257600080fd5b6000612a308c828d0161275c565b9950506020612a418c828d0161275c565b9850506040612a528c828d0161275c565b9750506060612a638c828d0161275c565b9650506080612a748c828d0161275c565b95505060a0612a858c828d0161275c565b94505060c08a013567ffffffffffffffff811115612aa257600080fd5b612aae8c828d016125c8565b93505060e08a013567ffffffffffffffff811115612acb57600080fd5b612ad78c828d016125c8565b9250506101008a013567ffffffffffffffff811115612af557600080fd5b612b018c828d016125c8565b9150509295985092959850929598565b612b1a81613482565b82525050565b612b2981613482565b82525050565b612b3881613494565b82525050565b612b4f612b4a826134a0565b613528565b82525050565b6000612b608261343f565b612b6a8185613455565b9350612b7a8185602086016134f5565b612b838161353c565b840191505092915050565b6000612b998261343f565b612ba38185613466565b9350612bb38185602086016134f5565b80840191505092915050565b612bc8816134d4565b82525050565b6000612bd98261344a565b612be38185613471565b9350612bf38185602086016134f5565b612bfc8161353c565b840191505092915050565b6000612c14602083613471565b91507f437265617465323a2062797465636f6465206c656e677468206973207a65726f6000830152602082019050919050565b6000612c54602683613471565b91507f4f776e61626c653a206e6577206f776e657220697320746865207a65726f206160008301527f64647265737300000000000000000000000000000000000000000000000000006020830152604082019050919050565b6000612cba601b83613471565b91507f536166654d6174683a206164646974696f6e206f766572666c6f7700000000006000830152602082019050919050565b6000612cfa601e83613471565b91507f536166654d6174683a207375627472616374696f6e206f766572666c6f7700006000830152602082019050919050565b6000612d3a602283613471565b91507f756e617574686f72697a65642076696577206c617965722064656c656761746960008301527f6f6e0000000000000000000000000000000000000000000000000000000000006020830152604082019050919050565b6000612da0601a83613471565b91507f536166654d6174683a206469766973696f6e206279207a65726f0000000000006000830152602082019050919050565b6000612de0602e83613471565b91507f496e697469616c697a61626c653a20636f6e747261637420697320616c72656160008301527f647920696e697469616c697a65640000000000000000000000000000000000006020830152604082019050919050565b6000612e46601983613471565b91507f437265617465323a204661696c6564206f6e206465706c6f79000000000000006000830152602082019050919050565b6000612e86602183613471565b91507f536166654d6174683a206d756c7469706c69636174696f6e206f766572666c6f60008301527f77000000000000000000000000000000000000000000000000000000000000006020830152604082019050919050565b6000612eec602083613471565b91507f4f776e61626c653a2063616c6c6572206973206e6f7420746865206f776e65726000830152602082019050919050565b6000612f2c600e83613471565b91507f63726561746532206661696c65640000000000000000000000000000000000006000830152602082019050919050565b6000612f6c601d83613471565b91507f437265617465323a20696e73756666696369656e742062616c616e63650000006000830152602082019050919050565b8082525050565b612faf816134ca565b82525050565b612fbe816134ca565b82525050565b612fd5612fd0826134ca565b613532565b82525050565b6000612fe78285612b3e565b602082019150612ff78284612fc4565b6020820191508190509392505050565b60006130138284612b8e565b915081905092915050565b60006020820190506130336000830184612b11565b92915050565b600060408201905061304e6000830185612b11565b81810360208301526130608184612b55565b90509392505050565b600060408201905061307e6000830185612b11565b61308b6020830184612fa6565b9392505050565b600060208201905081810360008301526130ac8184612b55565b905092915050565b600060208201905081810360008301526130ce8184612bce565b905092915050565b600060208201905081810360008301526130ef81612c07565b9050919050565b6000602082019050818103600083015261310f81612c47565b9050919050565b6000602082019050818103600083015261312f81612cad565b9050919050565b6000602082019050818103600083015261314f81612ced565b9050919050565b6000602082019050818103600083015261316f81612d2d565b9050919050565b6000602082019050818103600083015261318f81612d93565b9050919050565b600060208201905081810360008301526131af81612dd3565b9050919050565b600060208201905081810360008301526131cf81612e39565b9050919050565b600060208201905081810360008301526131ef81612e79565b9050919050565b6000602082019050818103600083015261320f81612edf565b9050919050565b6000602082019050818103600083015261322f81612f1f565b9050919050565b6000602082019050818103600083015261324f81612f5f565b9050919050565b600060408201905061326b6000830185612f9f565b6132786020830184612b20565b9392505050565b600060a0820190506132946000830188612f9f565b6132a16020830187612b20565b6132ae6040830186612bbf565b6132bb6060830185612b2f565b6132c86080830184612b2f565b9695505050505050565b60006060820190506132e76000830186612f9f565b6132f46020830185612b20565b6133016040830184612fb5565b949350505050565b600060808201905061331e6000830187612f9f565b61332b6020830186612b2f565b6133386040830185612b20565b6133456060830184612fb5565b95945050505050565b60006020820190506133636000830184612fa6565b92915050565b600060408201905061337e6000830185612fa6565b61338b6020830184612fa6565b9392505050565b6000604051905081810181811067ffffffffffffffff821117156133b557600080fd5b8060405250919050565b600067ffffffffffffffff8211156133d657600080fd5b602082029050602081019050919050565b600067ffffffffffffffff8211156133fe57600080fd5b601f19601f8301169050602081019050919050565b600067ffffffffffffffff82111561342a57600080fd5b601f19601f8301169050602081019050919050565b600081519050919050565b600081519050919050565b600082825260208201905092915050565b600081905092915050565b600082825260208201905092915050565b600061348d826134aa565b9050919050565b60008115159050919050565b6000819050919050565b600073ffffffffffffffffffffffffffffffffffffffff82169050919050565b6000819050919050565b60006134df826134ca565b9050919050565b82818337600083830152505050565b60005b838110156135135780820151818401526020810190506134f8565b83811115613522576000848401525b50505050565b6000819050919050565b6000819050919050565b6000601f19601f8301169050919050565b61355681613482565b811461356157600080fd5b50565b61356d816134a0565b811461357857600080fd5b50565b613584816134ca565b811461358f57600080fd5b5056fea2646970667358221220779484ae79f3f01d7141c1e55a61a28561372ce3243f47bd389e77663cb368fc64736f6c634300060c0033",
  "deployedBytecode": "0x608060405234801561001057600080fd5b50600436106101215760003560e01c80637b0472f0116100ad578063c0c53b8b11610071578063c0c53b8b146102f7578063de8f84ea14610313578063ead9a68d1461031d578063f2fde38b1461034d578063fd00430c1461036957610121565b80637b0472f0146102675780637c91ad02146102835780638da5cb5b1461029f578063a3242e02146102bd578063bab2f552146102d957610121565b8063382153e0116100f4578063382153e0146101c1578063383e50e7146101dd57806338ed85b01461020e5780634dce52aa1461023f578063715018a61461025d57610121565b80630ed1ada11461012657806323e3b730146101425780632e17de7814610172578063372500ab146101a2575b600080fd5b610140600480360381019061013b9190612a03565b610399565b005b61015c6004803603810190610157919061283a565b610625565b6040516101699190613092565b60405180910390f35b61018c60048036038101906101879190612939565b610727565b604051610199919061334e565b60405180910390f35b6101aa61072e565b6040516101b8929190613369565b60405180910390f35b6101db60048036038101906101d691906127af565b6107b1565b005b6101f760048036038101906101f29190612939565b6107c7565b604051610205929190613369565b60405180910390f35b61022860048036038101906102239190612786565b61084b565b604051610236929190613369565b60405180910390f35b610247610853565b604051610254919061334e565b60405180910390f35b610265610860565b005b610281600480360381019061027c919061298b565b61099d565b005b61029d6004803603810190610298919061298b565b6109a1565b005b6102a7610a21565b6040516102b4919061301e565b60405180910390f35b6102d760048036038101906102d29190612786565b610a4b565b005b6102e1610abc565b6040516102ee919061334e565b60405180910390f35b610311600480360381019061030c91906127eb565b610ac9565b005b61031b610dec565b005b61033760048036038101906103329190612786565b610e74565b604051610344919061334e565b60405180910390f35b61036760048036038101906103629190612786565b610ec0565b005b610383600480360381019061037e919061283a565b61106c565b6040516103909190613092565b60405180910390f35b6103a161113d565b73ffffffffffffffffffffffffffffffffffffffff166103bf610a21565b73ffffffffffffffffffffffffffffffffffffffff1614610415576040517f08c379a000000000000000000000000000000000000000000000000000000000815260040161040c906131f6565b60405180910390fd5b600085111561042957846065600c01819055505b600084111561043d57836065600d01819055505b6000891115610462578860656006018190555060656006015442016065600501819055505b600088111561048757876065600a01819055506065600a015442016065600701819055505b600087111561052a57606560080154871461051f5760656018016065601b0154908060018154018082558091505060019003906000526020600020016000909190919091505560405180604001604052806065600e01548152602001606560080154815250606560190160006065601b0154815260200190815260200160002060008201518160000155602082015181600101559050505b866065600801819055505b600086111561053e57856065600901819055505b60018351016065600b0181905550670de0b6b3a7640000606560120160008081526020019081526020016000206000018190555060005b835181101561061957604051806060016040528085838151811061059557fe5b602002602001015181526020018383815181106105ae57fe5b602002602001015181526020018483815181106105c757fe5b6020026020010151815250606560120160006001840181526020019081526020016000206000820151816000015560208201518160010155604082015181600201559050508080600101915050610575565b50505050505050505050565b60603073ffffffffffffffffffffffffffffffffffffffff163373ffffffffffffffffffffffffffffffffffffffff1614610695576040517f08c379a000000000000000000000000000000000000000000000000000000000815260040161068c90613156565b60405180910390fd5b600060608473ffffffffffffffffffffffffffffffffffffffff16846040516106be9190613007565b600060405180830381855af49150503d80600081146106f9576040519150601f19603f3d011682016040523d82523d6000602084013e6106fe565b606091505b509150915081156107145761071281611145565b505b61071d8161114f565b9250505092915050565b6000919050565b60008061073961113d565b73ffffffffffffffffffffffffffffffffffffffff16610757610a21565b73ffffffffffffffffffffffffffffffffffffffff16146107ad576040517f08c379a00000000000000000000000000000000000000000000000000000000081526004016107a4906131f6565b60405180910390fd5b9091565b6107ba82610a4b565b6107c381610a4b565b5050565b6000806107d261113d565b73ffffffffffffffffffffffffffffffffffffffff166107f0610a21565b73ffffffffffffffffffffffffffffffffffffffff1614610846576040517f08c379a000000000000000000000000000000000000000000000000000000000815260040161083d906131f6565b60405180910390fd5b915091565b600080915091565b60006065600d0154905090565b61086861113d565b73ffffffffffffffffffffffffffffffffffffffff16610886610a21565b73ffffffffffffffffffffffffffffffffffffffff16146108dc576040517f08c379a00000000000000000000000000000000000000000000000000000000081526004016108d3906131f6565b60405180910390fd5b600073ffffffffffffffffffffffffffffffffffffffff16603360009054906101000a900473ffffffffffffffffffffffffffffffffffffffff1673ffffffffffffffffffffffffffffffffffffffff167f8be0079c531659141344cd1fd0a4f28419497f9722a3daafe3b4186f6b6457e060405160405180910390a36000603360006101000a81548173ffffffffffffffffffffffffffffffffffffffff021916908373ffffffffffffffffffffffffffffffffffffffff160217905550565b5050565b6109a961113d565b73ffffffffffffffffffffffffffffffffffffffff166109c7610a21565b73ffffffffffffffffffffffffffffffffffffffff1614610a1d576040517f08c379a0000000000000000000000000000000000000000000000000000000008152600401610a14906131f6565b60405180910390fd5b5050565b6000603360009054906101000a900473ffffffffffffffffffffffffffffffffffffffff16905090565b600073ffffffffffffffffffffffffffffffffffffffff168173ffffffffffffffffffffffffffffffffffffffff1614610ab957610a896000611159565b610a936000611386565b610a9c816116ad565b610aa5816116bb565b610aae81611728565b50610ab8816117cc565b5b50565b6000606560000154905090565b600060019054906101000a900460ff1680610ae85750610ae7611862565b5b80610afe575060008054906101000a900460ff16155b610b3d576040517f08c379a0000000000000000000000000000000000000000000000000000000008152600401610b3490613196565b60405180910390fd5b60008060019054906101000a900460ff161590508015610b8d576001600060016101000a81548160ff02191690831515021790555060016000806101000a81548160ff0219169083151502179055505b610b95611873565b83606560020160006101000a81548173ffffffffffffffffffffffffffffffffffffffff021916908373ffffffffffffffffffffffffffffffffffffffff160217905550610ce0600073__$b9ebe37ed5c148efa6c66949ea04801adb$__6313a9589c6040518163ffffffff1660e01b815260040160206040518083038186803b158015610c2257600080fd5b505af4158015610c36573d6000803e3d6000fd5b505050506040513d601f19601f82011682018060405250810190610c5a919061288e565b73__$b9ebe37ed5c148efa6c66949ea04801adb$__6352c7420d6040518163ffffffff1660e01b815260040160006040518083038186803b158015610c9e57600080fd5b505af4158015610cb2573d6000803e3d6000fd5b505050506040513d6000823e3d601f19601f82011682018060405250810190610cdb91906128b7565b611a04565b6065601a0160006101000a81548173ffffffffffffffffffffffffffffffffffffffff021916908373ffffffffffffffffffffffffffffffffffffffff16021790555081606560010160006101000a81548173ffffffffffffffffffffffffffffffffffffffff021916908373ffffffffffffffffffffffffffffffffffffffff16021790555082606560030160006101000a81548173ffffffffffffffffffffffffffffffffffffffff021916908373ffffffffffffffffffffffffffffffffffffffff160217905550620151806065600a018190555062ed4e006065600601819055508015610de65760008060016101000a81548160ff0219169083151502179055505b50505050565b610df461113d565b73ffffffffffffffffffffffffffffffffffffffff16610e12610a21565b73ffffffffffffffffffffffffffffffffffffffff1614610e68576040517f08c379a0000000000000000000000000000000000000000000000000000000008152600401610e5f906131f6565b60405180910390fd5b610e726001611386565b565b6000606560150160008373ffffffffffffffffffffffffffffffffffffffff1673ffffffffffffffffffffffffffffffffffffffff168152602001908152602001600020549050919050565b610ec861113d565b73ffffffffffffffffffffffffffffffffffffffff16610ee6610a21565b73ffffffffffffffffffffffffffffffffffffffff1614610f3c576040517f08c379a0000000000000000000000000000000000000000000000000000000008152600401610f33906131f6565b60405180910390fd5b600073ffffffffffffffffffffffffffffffffffffffff168173ffffffffffffffffffffffffffffffffffffffff161415610fac576040517f08c379a0000000000000000000000000000000000000000000000000000000008152600401610fa3906130f6565b60405180910390fd5b8073ffffffffffffffffffffffffffffffffffffffff16603360009054906101000a900473ffffffffffffffffffffffffffffffffffffffff1673ffffffffffffffffffffffffffffffffffffffff167f8be0079c531659141344cd1fd0a4f28419497f9722a3daafe3b4186f6b6457e060405160405180910390a380603360006101000a81548173ffffffffffffffffffffffffffffffffffffffff021916908373ffffffffffffffffffffffffffffffffffffffff16021790555050565b6060600060603073ffffffffffffffffffffffffffffffffffffffff166110938686611b15565b6040516110a09190613007565b6000604051808303816000865af19150503d80600081146110dd576040519150601f19603f3d011682016040523d82523d6000602084013e6110e2565b606091505b50915091508115611132576110f681611baf565b6040517f08c379a000000000000000000000000000000000000000000000000000000000815260040161112991906130b4565b60405180910390fd5b809250505092915050565b600033905090565b6060815160208301fd5b6060815160208301f35b6000606560110160006065600001548152602001908152602001600020905081806111a357508060090160009054906101000a900460ff161580156111a2575060656007015442115b5b1561138257600060019050606560070154421115611200576111fd60016111ef6065600a01546111e160656007015442611cc490919063ffffffff16565b611d1490919063ffffffff16565b611d6a90919063ffffffff16565b90505b6065600a0154420160656007018190555061122f81606560080154028360030154611d6a90919063ffffffff16565b8260030181905550606560040160009054906101000a900473ffffffffffffffffffffffffffffffffffffffff1673ffffffffffffffffffffffffffffffffffffffff166340c10f19606560010160009054906101000a900473ffffffffffffffffffffffffffffffffffffffff1683606560090154026040518363ffffffff1660e01b81526004016112c3929190613069565b600060405180830381600087803b1580156112dd57600080fd5b505af11580156112f1573d6000803e3d6000fd5b5050505060005b81811015611344576065600801548360070160008560040154815260200190815260200160002081905550826004016000815480929190600101919050555080806001019150506112f8565b50611364816065600e015402606560100154611d6a90919063ffffffff16565b606560100181905550806065601b0160008282540192505081905550505b5050565b8080611396575060656005015442115b156116aa576065600601544201606560050181905550600060656000016000815460010191905081905590506114976065601a0160009054906101000a900473ffffffffffffffffffffffffffffffffffffffff1673__$b9ebe37ed5c148efa6c66949ea04801adb$__6313a9589c6040518163ffffffff1660e01b815260040160206040518083038186803b15801561142f57600080fd5b505af4158015611443573d6000803e3d6000fd5b505050506040513d601f19601f82011682018060405250810190611467919061288e565b83604051602001611479929190612fdb565b6040516020818303038152906040528051906020012060001c611dbf565b6065601101600083815260200190815260200160002060020160006101000a81548173ffffffffffffffffffffffffffffffffffffffff021916908373ffffffffffffffffffffffffffffffffffffffff1602179055506065600a015442016065600701819055506065601101600082815260200190815260200160002060020160009054906101000a900473ffffffffffffffffffffffffffffffffffffffff16606560040160006101000a81548173ffffffffffffffffffffffffffffffffffffffff021916908373ffffffffffffffffffffffffffffffffffffffff160217905550606560040160009054906101000a900473ffffffffffffffffffffffffffffffffffffffff1673ffffffffffffffffffffffffffffffffffffffff1663fe4b84df826040518263ffffffff1660e01b81526004016115da919061334e565b600060405180830381600087803b1580156115f457600080fd5b505af1158015611608573d6000803e3d6000fd5b5050505060016065601101600083815260200190815260200160002060040181905550600181146116a85760656011016000600183038152602001908152602001600020600101546065601101600083815260200190815260200160002060000181905550606560110160006001830381526020019081526020016000206001015460656011016000838152602001908152602001600020600101819055505b505b50565b6116b8606582611e5e565b50565b73__$14b07406e5b0a9d177e7e9c663254f4e6d$__633e75efd16065836040518363ffffffff1660e01b81526004016116f5929190613256565b60006040518083038186803b15801561170d57600080fd5b505af4158015611721573d6000803e3d6000fd5b5050505050565b600080611736836000611e6c565b905073__$14b07406e5b0a9d177e7e9c663254f4e6d$__6346c52119606585846040518463ffffffff1660e01b8152600401611774939291906132d2565b60206040518083038186803b15801561178c57600080fd5b505af41580156117a0573d6000803e3d6000fd5b505050506040513d601f19601f820116820180604052508101906117c49190612962565b915050919050565b73__$88d5230eb4bb3b63b43ced9ece2ae8cd74$__635d8dc94f60658360008060006040518663ffffffff1660e01b815260040161180e95949392919061327f565b604080518083038186803b15801561182557600080fd5b505af4158015611839573d6000803e3d6000fd5b505050506040513d601f19601f8201168201806040525081019061185d91906129c7565b505050565b600061186d3061205b565b15905090565b600060019054906101000a900460ff16806118925750611891611862565b5b806118a8575060008054906101000a900460ff16155b6118e7576040517f08c379a00000000000000000000000000000000000000000000000000000000081526004016118de90613196565b60405180910390fd5b60008060019054906101000a900460ff161590508015611937576001600060016101000a81548160ff02191690831515021790555060016000806101000a81548160ff0219169083151502179055505b600061194161113d565b905080603360006101000a81548173ffffffffffffffffffffffffffffffffffffffff021916908373ffffffffffffffffffffffffffffffffffffffff1602179055508073ffffffffffffffffffffffffffffffffffffffff16600073ffffffffffffffffffffffffffffffffffffffff167f8be0079c531659141344cd1fd0a4f28419497f9722a3daafe3b4186f6b6457e060405160405180910390a3508015611a015760008060016101000a81548160ff0219169083151502179055505b50565b60008084471015611a4a576040517f08c379a0000000000000000000000000000000000000000000000000000000008152600401611a4190613236565b60405180910390fd5b600083511415611a8f576040517f08c379a0000000000000000000000000000000000000000000000000000000008152600401611a86906130d6565b60405180910390fd5b8383516020850187f59050600073ffffffffffffffffffffffffffffffffffffffff168173ffffffffffffffffffffffffffffffffffffffff161415611b0a576040517f08c379a0000000000000000000000000000000000000000000000000000000008152600401611b01906131b6565b60405180910390fd5b809150509392505050565b60608282604051602401611b2a929190613039565b6040516020818303038152906040527f23e3b730000000000000000000000000000000000000000000000000000000007bffffffffffffffffffffffffffffffffffffffffffffffffffffffff19166020820180517bffffffffffffffffffffffffffffffffffffffffffffffffffffffff8381831617835250505050905092915050565b6060600082511415611bf8576040518060400160405280601c81526020017f636170747572656420656d7074792072657665727420627566666572000000008152509050611cbf565b6308c379a063ffffffff16611c22611c1d600060048661206e9092919063ffffffff16565b6120a4565b60001c63ffffffff161415611cbb576060611c4f611c4a6004856120ca90919063ffffffff16565b6120f6565b9050600081511415611c99576040518060400160405280601d81526020017f636170747572656420656d70747920726576657274206d657373616765000000815250915050611cbf565b606081806020019051810190611caf91906128f8565b90508092505050611cbf565b8190505b919050565b600082821115611d09576040517f08c379a0000000000000000000000000000000000000000000000000000000008152600401611d0090613136565b60405180910390fd5b818303905092915050565b6000808211611d58576040517f08c379a0000000000000000000000000000000000000000000000000000000008152600401611d4f90613176565b60405180910390fd5b818381611d6157fe5b04905092915050565b600080828401905083811015611db5576040517f08c379a0000000000000000000000000000000000000000000000000000000008152600401611dac90613116565b60405180910390fd5b8091505092915050565b60006060611dcc8461217a565b905060008360001b90508151602083018282826000f594505050600073ffffffffffffffffffffffffffffffffffffffff168373ffffffffffffffffffffffffffffffffffffffff161415611e56576040517f08c379a0000000000000000000000000000000000000000000000000000000008152600401611e4d90613216565b60405180910390fd5b505092915050565b611e68828261218d565b5050565b600080606560030160009054906101000a900473ffffffffffffffffffffffffffffffffffffffff1673ffffffffffffffffffffffffffffffffffffffff166370a08231856040518263ffffffff1660e01b8152600401611ecd919061301e565b60206040518083038186803b158015611ee557600080fd5b505afa158015611ef9573d6000803e3d6000fd5b505050506040513d601f19601f82011682018060405250810190611f1d9190612962565b905060008073__$88d5230eb4bb3b63b43ced9ece2ae8cd74$__63f7ed8c3f60658789876040518563ffffffff1660e01b8152600401611f609493929190613309565b604080518083038186803b158015611f7757600080fd5b505af4158015611f8b573d6000803e3d6000fd5b505050506040513d601f19601f82011682018060405250810190611faf91906129c7565b91509150600081111561204f57606560030160009054906101000a900473ffffffffffffffffffffffffffffffffffffffff1673ffffffffffffffffffffffffffffffffffffffff16639dc29fac87836040518363ffffffff1660e01b815260040161201c929190613069565b600060405180830381600087803b15801561203657600080fd5b505af115801561204a573d6000803e3d6000fd5b505050505b81935050505092915050565b600080823b905060008111915050919050565b612076612592565b6120808484612265565b81600001818152505081816020018181525050828160400181815250509392505050565b600080826000015190506000836020015190506120c18282612275565b92505050919050565b6120d2612592565b81835110156120e057825191505b6120ee83838486510361206e565b905092915050565b60606000826020015190508067ffffffffffffffff8111801561211857600080fd5b506040519080825280601f01601f19166020018201604052801561214b5781602001600182028036833780820191505090505b5091506000836000015160001b9050600061216584612292565b905061217281838561229f565b505050919050565b606061218630836122e1565b9050919050565b60008260170160008373ffffffffffffffffffffffffffffffffffffffff1673ffffffffffffffffffffffffffffffffffffffff16815260200190815260200160002090506000816000015414156121f157670de0b6b3a764000081600001819055505b806008015483601b01541115612255576122486122358260050154612227846008015487601b0154611cc490919063ffffffff16565b61252290919063ffffffff16565b82600a0154611d6a90919063ffffffff16565b81600a0181905550612260565b600081600a01819055505b505050565b6000602082018301905092915050565b6000600180600884021b0380836020038503511691505092915050565b6000602082019050919050565b5b602081106122c357815183526020830192506020820191506020810390506122a0565b600180600883602003021b0380845116811984511617845250505050565b606080600067ffffffffffffffff811180156122fc57600080fd5b506040519080825280601f01601f19166020018201604052801561232f5781602001600182028036833780820191505090505b506040516024016123409190613092565b6040516020818303038152906040527f52e831dd000000000000000000000000000000000000000000000000000000007bffffffffffffffffffffffffffffffffffffffffffffffffffffffff19166020820180517bffffffffffffffffffffffffffffffffffffffffffffffffffffffff83818316178352505050509050805160630167ffffffffffffffff811180156123da57600080fd5b506040519080825280601f01601f19166020018201604052801561240d5781602001600182028036833780820191505090505b5091507f3d3d606380380380913d393d73bebebebebebebebebebebebebebebebebebebe60208301526c010000000000000000000000008402602d8301527f5af4602a57600080fd5b602d8060366000396000f3363d3d373d3d3d363d73be60418301526c01000000000000000000000000830260608301527f5af43d82803e903d91602b57fd5bf30000000000000000000000000000000000607483015260005b815181101561251a578181815181106124c457fe5b602001015160f81c60f81b8360638301815181106124de57fe5b60200101907effffffffffffffffffffffffffffffffffffffffffffffffffffffffffffff1916908160001a90535080806001019150506124af565b505092915050565b600080831415612535576000905061258c565b600082840290508284828161254657fe5b0414612587576040517f08c379a000000000000000000000000000000000000000000000000000000000815260040161257e906131d6565b60405180910390fd5b809150505b92915050565b60405180606001604052806000815260200160008152602001600081525090565b6000813590506125c28161354d565b92915050565b600082601f8301126125d957600080fd5b81356125ec6125e7826133bf565b613392565b9150818183526020840193506020810190508385602084028201111561261157600080fd5b60005b838110156126415781612627888261275c565b845260208401935060208301925050600181019050612614565b5050505092915050565b60008151905061265a81613564565b92915050565b600082601f83011261267157600080fd5b813561268461267f826133e7565b613392565b915080825260208301602083018583830111156126a057600080fd5b6126ab8382846134e6565b50505092915050565b600082601f8301126126c557600080fd5b81516126d86126d3826133e7565b613392565b915080825260208301602083018583830111156126f457600080fd5b6126ff8382846134f5565b50505092915050565b600082601f83011261271957600080fd5b815161272c61272782613413565b613392565b9150808252602083016020830185838301111561274857600080fd5b6127538382846134f5565b50505092915050565b60008135905061276b8161357b565b92915050565b6000815190506127808161357b565b92915050565b60006020828403121561279857600080fd5b60006127a6848285016125b3565b91505092915050565b600080604083850312156127c257600080fd5b60006127d0858286016125b3565b92505060206127e1858286016125b3565b9150509250929050565b60008060006060848603121561280057600080fd5b600061280e868287016125b3565b935050602061281f868287016125b3565b9250506040612830868287016125b3565b9150509250925092565b6000806040838503121561284d57600080fd5b600061285b858286016125b3565b925050602083013567ffffffffffffffff81111561287857600080fd5b61288485828601612660565b9150509250929050565b6000602082840312156128a057600080fd5b60006128ae8482850161264b565b91505092915050565b6000602082840312156128c957600080fd5b600082015167ffffffffffffffff8111156128e357600080fd5b6128ef848285016126b4565b91505092915050565b60006020828403121561290a57600080fd5b600082015167ffffffffffffffff81111561292457600080fd5b61293084828501612708565b91505092915050565b60006020828403121561294b57600080fd5b60006129598482850161275c565b91505092915050565b60006020828403121561297457600080fd5b600061298284828501612771565b91505092915050565b6000806040838503121561299e57600080fd5b60006129ac8582860161275c565b92505060206129bd8582860161275c565b9150509250929050565b600080604083850312156129da57600080fd5b60006129e885828601612771565b92505060206129f985828601612771565b9150509250929050565b60008060008060008060008060006101208a8c031215612a2257600080fd5b6000612a308c828d0161275c565b9950506020612a418c828d0161275c565b9850506040612a528c828d0161275c565b9750506060612a638c828d0161275c565b9650506080612a748c828d0161275c565b95505060a0612a858c828d0161275c565b94505060c08a013567ffffffffffffffff811115612aa257600080fd5b612aae8c828d016125c8565b93505060e08a013567ffffffffffffffff811115612acb57600080fd5b612ad78c828d016125c8565b9250506101008a013567ffffffffffffffff811115612af557600080fd5b612b018c828d016125c8565b9150509295985092959850929598565b612b1a81613482565b82525050565b612b2981613482565b82525050565b612b3881613494565b82525050565b612b4f612b4a826134a0565b613528565b82525050565b6000612b608261343f565b612b6a8185613455565b9350612b7a8185602086016134f5565b612b838161353c565b840191505092915050565b6000612b998261343f565b612ba38185613466565b9350612bb38185602086016134f5565b80840191505092915050565b612bc8816134d4565b82525050565b6000612bd98261344a565b612be38185613471565b9350612bf38185602086016134f5565b612bfc8161353c565b840191505092915050565b6000612c14602083613471565b91507f437265617465323a2062797465636f6465206c656e677468206973207a65726f6000830152602082019050919050565b6000612c54602683613471565b91507f4f776e61626c653a206e6577206f776e657220697320746865207a65726f206160008301527f64647265737300000000000000000000000000000000000000000000000000006020830152604082019050919050565b6000612cba601b83613471565b91507f536166654d6174683a206164646974696f6e206f766572666c6f7700000000006000830152602082019050919050565b6000612cfa601e83613471565b91507f536166654d6174683a207375627472616374696f6e206f766572666c6f7700006000830152602082019050919050565b6000612d3a602283613471565b91507f756e617574686f72697a65642076696577206c617965722064656c656761746960008301527f6f6e0000000000000000000000000000000000000000000000000000000000006020830152604082019050919050565b6000612da0601a83613471565b91507f536166654d6174683a206469766973696f6e206279207a65726f0000000000006000830152602082019050919050565b6000612de0602e83613471565b91507f496e697469616c697a61626c653a20636f6e747261637420697320616c72656160008301527f647920696e697469616c697a65640000000000000000000000000000000000006020830152604082019050919050565b6000612e46601983613471565b91507f437265617465323a204661696c6564206f6e206465706c6f79000000000000006000830152602082019050919050565b6000612e86602183613471565b91507f536166654d6174683a206d756c7469706c69636174696f6e206f766572666c6f60008301527f77000000000000000000000000000000000000000000000000000000000000006020830152604082019050919050565b6000612eec602083613471565b91507f4f776e61626c653a2063616c6c6572206973206e6f7420746865206f776e65726000830152602082019050919050565b6000612f2c600e83613471565b91507f63726561746532206661696c65640000000000000000000000000000000000006000830152602082019050919050565b6000612f6c601d83613471565b91507f437265617465323a20696e73756666696369656e742062616c616e63650000006000830152602082019050919050565b8082525050565b612faf816134ca565b82525050565b612fbe816134ca565b82525050565b612fd5612fd0826134ca565b613532565b82525050565b6000612fe78285612b3e565b602082019150612ff78284612fc4565b6020820191508190509392505050565b60006130138284612b8e565b915081905092915050565b60006020820190506130336000830184612b11565b92915050565b600060408201905061304e6000830185612b11565b81810360208301526130608184612b55565b90509392505050565b600060408201905061307e6000830185612b11565b61308b6020830184612fa6565b9392505050565b600060208201905081810360008301526130ac8184612b55565b905092915050565b600060208201905081810360008301526130ce8184612bce565b905092915050565b600060208201905081810360008301526130ef81612c07565b9050919050565b6000602082019050818103600083015261310f81612c47565b9050919050565b6000602082019050818103600083015261312f81612cad565b9050919050565b6000602082019050818103600083015261314f81612ced565b9050919050565b6000602082019050818103600083015261316f81612d2d565b9050919050565b6000602082019050818103600083015261318f81612d93565b9050919050565b600060208201905081810360008301526131af81612dd3565b9050919050565b600060208201905081810360008301526131cf81612e39565b9050919050565b600060208201905081810360008301526131ef81612e79565b9050919050565b6000602082019050818103600083015261320f81612edf565b9050919050565b6000602082019050818103600083015261322f81612f1f565b9050919050565b6000602082019050818103600083015261324f81612f5f565b9050919050565b600060408201905061326b6000830185612f9f565b6132786020830184612b20565b9392505050565b600060a0820190506132946000830188612f9f565b6132a16020830187612b20565b6132ae6040830186612bbf565b6132bb6060830185612b2f565b6132c86080830184612b2f565b9695505050505050565b60006060820190506132e76000830186612f9f565b6132f46020830185612b20565b6133016040830184612fb5565b949350505050565b600060808201905061331e6000830187612f9f565b61332b6020830186612b2f565b6133386040830185612b20565b6133456060830184612fb5565b95945050505050565b60006020820190506133636000830184612fa6565b92915050565b600060408201905061337e6000830185612fa6565b61338b6020830184612fa6565b9392505050565b6000604051905081810181811067ffffffffffffffff821117156133b557600080fd5b8060405250919050565b600067ffffffffffffffff8211156133d657600080fd5b602082029050602081019050919050565b600067ffffffffffffffff8211156133fe57600080fd5b601f19601f8301169050602081019050919050565b600067ffffffffffffffff82111561342a57600080fd5b601f19601f8301169050602081019050919050565b600081519050919050565b600081519050919050565b600082825260208201905092915050565b600081905092915050565b600082825260208201905092915050565b600061348d826134aa565b9050919050565b60008115159050919050565b6000819050919050565b600073ffffffffffffffffffffffffffffffffffffffff82169050919050565b6000819050919050565b60006134df826134ca565b9050919050565b82818337600083830152505050565b60005b838110156135135780820151818401526020810190506134f8565b83811115613522576000848401525b50505050565b6000819050919050565b6000819050919050565b6000601f19601f8301169050919050565b61355681613482565b811461356157600080fd5b50565b61356d816134a0565b811461357857600080fd5b50565b613584816134ca565b811461358f57600080fd5b5056fea2646970667358221220779484ae79f3f01d7141c1e55a61a28561372ce3243f47bd389e77663cb368fc64736f6c634300060c0033",
  "libraries": {
    "pCNFIFactoryLib": "0xD5A0412a758804cB28A81f529FdC810cf7fe1e1e",
    "UpdateToLastLib": "0xc111c39b37f972De44Bd7E0C2bFfFa7F9F0f3A70",
    "UpdateRedeemableLib": "0x5986b6486c196B00cF450e470171e62B121747de",
    "CalculateRewardsLib": "0xC13F3bfb94916974C3f5C0407FEbDBfc62C7cfdd"
  },
  "devdoc": {
    "kind": "dev",
    "methods": {
      "owner()": {
        "details": "Returns the address of the current owner."
      },
      "renounceOwnership()": {
        "details": "Leaves the contract without owner. It will not be possible to call `onlyOwner` functions anymore. Can only be called by the current owner. NOTE: Renouncing ownership will leave the contract without an owner, thereby removing any functionality that is only available to the owner."
      },
      "transferOwnership(address)": {
        "details": "Transfers ownership of the contract to a new account (`newOwner`). Can only be called by the current owner."
      }
    },
    "version": 1
  },
  "userdoc": {
    "kind": "user",
    "methods": {},
    "version": 1
  },
  "storageLayout": {
    "storage": [
      {
        "astId": 565,
        "contract": "contracts/staking/StakingController.sol:StakingController",
        "label": "_initialized",
        "offset": 0,
        "slot": "0",
        "type": "t_bool"
      },
      {
        "astId": 568,
        "contract": "contracts/staking/StakingController.sol:StakingController",
        "label": "_initializing",
        "offset": 1,
        "slot": "0",
        "type": "t_bool"
      },
      {
        "astId": 1520,
        "contract": "contracts/staking/StakingController.sol:StakingController",
        "label": "__gap",
        "offset": 0,
        "slot": "1",
        "type": "t_array(t_uint256)50_storage"
      },
      {
        "astId": 10,
        "contract": "contracts/staking/StakingController.sol:StakingController",
        "label": "_owner",
        "offset": 0,
        "slot": "51",
        "type": "t_address"
      },
      {
        "astId": 129,
        "contract": "contracts/staking/StakingController.sol:StakingController",
        "label": "__gap",
        "offset": 0,
        "slot": "52",
        "type": "t_array(t_uint256)49_storage"
      },
      {
        "astId": 6368,
        "contract": "contracts/staking/StakingController.sol:StakingController",
        "label": "isolate",
        "offset": 0,
        "slot": "101",
        "type": "t_struct(Isolate)4700_storage"
      }
    ],
    "types": {
      "t_address": {
        "encoding": "inplace",
        "label": "address",
        "numberOfBytes": "20"
      },
      "t_array(t_uint256)49_storage": {
        "base": "t_uint256",
        "encoding": "inplace",
        "label": "uint256[49]",
        "numberOfBytes": "1568"
      },
      "t_array(t_uint256)50_storage": {
        "base": "t_uint256",
        "encoding": "inplace",
        "label": "uint256[50]",
        "numberOfBytes": "1600"
      },
      "t_array(t_uint256)dyn_storage": {
        "base": "t_uint256",
        "encoding": "dynamic_array",
        "label": "uint256[]",
        "numberOfBytes": "32"
      },
      "t_bool": {
        "encoding": "inplace",
        "label": "bool",
        "numberOfBytes": "1"
      },
      "t_contract(CNFITreasury)9719": {
        "encoding": "inplace",
        "label": "contract CNFITreasury",
        "numberOfBytes": "20"
      },
      "t_contract(ICNFI)2441": {
        "encoding": "inplace",
        "label": "contract ICNFI",
        "numberOfBytes": "20"
      },
      "t_contract(pCNFI)9561": {
        "encoding": "inplace",
        "label": "contract pCNFI",
        "numberOfBytes": "20"
      },
      "t_contract(sCNFI)9655": {
        "encoding": "inplace",
        "label": "contract sCNFI",
        "numberOfBytes": "20"
      },
      "t_mapping(t_address,t_struct(DailyUser)4748_storage)": {
        "encoding": "mapping",
        "key": "t_address",
        "label": "mapping(address => struct StakingControllerLib.DailyUser)",
        "numberOfBytes": "32",
        "value": "t_struct(DailyUser)4748_storage"
      },
      "t_mapping(t_address,t_struct(User)4721_storage)": {
        "encoding": "mapping",
        "key": "t_address",
        "label": "mapping(address => struct StakingControllerLib.User)",
        "numberOfBytes": "32",
        "value": "t_struct(User)4721_storage"
      },
      "t_mapping(t_address,t_struct(UserWeightChanges)4931_storage)": {
        "encoding": "mapping",
        "key": "t_address",
        "label": "mapping(address => struct StakingControllerLib.UserWeightChanges)",
        "numberOfBytes": "32",
        "value": "t_struct(UserWeightChanges)4931_storage"
      },
      "t_mapping(t_address,t_uint256)": {
        "encoding": "mapping",
        "key": "t_address",
        "label": "mapping(address => uint256)",
        "numberOfBytes": "32",
        "value": "t_uint256"
      },
      "t_mapping(t_uint256,t_struct(Cycle)4832_storage)": {
        "encoding": "mapping",
        "key": "t_uint256",
        "label": "mapping(uint256 => struct StakingControllerLib.Cycle)",
        "numberOfBytes": "32",
        "value": "t_struct(Cycle)4832_storage"
      },
      "t_mapping(t_uint256,t_struct(InflateByChanged)4901_storage)": {
        "encoding": "mapping",
        "key": "t_uint256",
        "label": "mapping(uint256 => struct StakingControllerLib.InflateByChanged)",
        "numberOfBytes": "32",
        "value": "t_struct(InflateByChanged)4901_storage"
      },
      "t_mapping(t_uint256,t_struct(Tier)4839_storage)": {
        "encoding": "mapping",
        "key": "t_uint256",
        "label": "mapping(uint256 => struct StakingControllerLib.Tier)",
        "numberOfBytes": "32",
        "value": "t_struct(Tier)4839_storage"
      },
      "t_mapping(t_uint256,t_uint256)": {
        "encoding": "mapping",
        "key": "t_uint256",
        "label": "mapping(uint256 => uint256)",
        "numberOfBytes": "32",
        "value": "t_uint256"
      },
      "t_struct(Cycle)4832_storage": {
        "encoding": "inplace",
        "label": "struct StakingControllerLib.Cycle",
        "members": [
          {
            "astId": 4807,
            "contract": "contracts/staking/StakingController.sol:StakingController",
            "label": "totalWeight",
            "offset": 0,
            "slot": "0",
            "type": "t_uint256"
          },
          {
            "astId": 4809,
            "contract": "contracts/staking/StakingController.sol:StakingController",
            "label": "totalRawWeight",
            "offset": 0,
            "slot": "1",
            "type": "t_uint256"
          },
          {
            "astId": 4811,
            "contract": "contracts/staking/StakingController.sol:StakingController",
            "label": "pCnfiToken",
            "offset": 0,
            "slot": "2",
            "type": "t_address"
          },
          {
            "astId": 4813,
            "contract": "contracts/staking/StakingController.sol:StakingController",
            "label": "reserved",
            "offset": 0,
            "slot": "3",
            "type": "t_uint256"
          },
          {
            "astId": 4815,
            "contract": "contracts/staking/StakingController.sol:StakingController",
            "label": "day",
            "offset": 0,
            "slot": "4",
            "type": "t_uint256"
          },
          {
            "astId": 4817,
            "contract": "contracts/staking/StakingController.sol:StakingController",
            "label": "inflateBy",
            "offset": 0,
            "slot": "5",
            "type": "t_uint256"
          },
          {
            "astId": 4821,
            "contract": "contracts/staking/StakingController.sol:StakingController",
            "label": "users",
            "offset": 0,
            "slot": "6",
            "type": "t_mapping(t_address,t_struct(User)4721_storage)"
          },
          {
            "astId": 4825,
            "contract": "contracts/staking/StakingController.sol:StakingController",
            "label": "cnfiRewards",
            "offset": 0,
            "slot": "7",
            "type": "t_mapping(t_uint256,t_uint256)"
          },
          {
            "astId": 4829,
            "contract": "contracts/staking/StakingController.sol:StakingController",
            "label": "pcnfiRewards",
            "offset": 0,
            "slot": "8",
            "type": "t_mapping(t_uint256,t_uint256)"
          },
          {
            "astId": 4831,
            "contract": "contracts/staking/StakingController.sol:StakingController",
            "label": "canUnstake",
            "offset": 0,
            "slot": "9",
            "type": "t_bool"
          }
        ],
        "numberOfBytes": "320"
      },
      "t_struct(DailyUser)4748_storage": {
        "encoding": "inplace",
        "label": "struct StakingControllerLib.DailyUser",
        "members": [
          {
            "astId": 4723,
            "contract": "contracts/staking/StakingController.sol:StakingController",
            "label": "multiplier",
            "offset": 0,
            "slot": "0",
            "type": "t_uint256"
          },
          {
            "astId": 4725,
            "contract": "contracts/staking/StakingController.sol:StakingController",
            "label": "cycleEnd",
            "offset": 0,
            "slot": "1",
            "type": "t_uint256"
          },
          {
            "astId": 4727,
            "contract": "contracts/staking/StakingController.sol:StakingController",
            "label": "cyclesHeld",
            "offset": 0,
            "slot": "2",
            "type": "t_uint256"
          },
          {
            "astId": 4729,
            "contract": "contracts/staking/StakingController.sol:StakingController",
            "label": "redeemable",
            "offset": 0,
            "slot": "3",
            "type": "t_uint256"
          },
          {
            "astId": 4731,
            "contract": "contracts/staking/StakingController.sol:StakingController",
            "label": "start",
            "offset": 0,
            "slot": "4",
            "type": "t_uint256"
          },
          {
            "astId": 4733,
            "contract": "contracts/staking/StakingController.sol:StakingController",
            "label": "weight",
            "offset": 0,
            "slot": "5",
            "type": "t_uint256"
          },
          {
            "astId": 4735,
            "contract": "contracts/staking/StakingController.sol:StakingController",
            "label": "claimed",
            "offset": 0,
            "slot": "6",
            "type": "t_uint256"
          },
          {
            "astId": 4737,
            "contract": "contracts/staking/StakingController.sol:StakingController",
            "label": "commitment",
            "offset": 0,
            "slot": "7",
            "type": "t_uint256"
          },
          {
            "astId": 4739,
            "contract": "contracts/staking/StakingController.sol:StakingController",
            "label": "lastDaySeen",
            "offset": 0,
            "slot": "8",
            "type": "t_uint256"
          },
          {
            "astId": 4741,
            "contract": "contracts/staking/StakingController.sol:StakingController",
            "label": "cumulativeTotalWeight",
            "offset": 0,
            "slot": "9",
            "type": "t_uint256"
          },
          {
            "astId": 4743,
            "contract": "contracts/staking/StakingController.sol:StakingController",
            "label": "cumulativeRewardWeight",
            "offset": 0,
            "slot": "10",
            "type": "t_uint256"
          },
          {
            "astId": 4745,
            "contract": "contracts/staking/StakingController.sol:StakingController",
            "label": "lastTotalWeight",
            "offset": 0,
            "slot": "11",
            "type": "t_uint256"
          },
          {
            "astId": 4747,
            "contract": "contracts/staking/StakingController.sol:StakingController",
            "label": "currentTier",
            "offset": 0,
            "slot": "12",
            "type": "t_uint256"
          }
        ],
        "numberOfBytes": "416"
      },
      "t_struct(InflateByChanged)4901_storage": {
        "encoding": "inplace",
        "label": "struct StakingControllerLib.InflateByChanged",
        "members": [
          {
            "astId": 4898,
            "contract": "contracts/staking/StakingController.sol:StakingController",
            "label": "totalWeight",
            "offset": 0,
            "slot": "0",
            "type": "t_uint256"
          },
          {
            "astId": 4900,
            "contract": "contracts/staking/StakingController.sol:StakingController",
            "label": "previousAmount",
            "offset": 0,
            "slot": "1",
            "type": "t_uint256"
          }
        ],
        "numberOfBytes": "64"
      },
      "t_struct(Isolate)4700_storage": {
        "encoding": "inplace",
        "label": "struct StakingControllerLib.Isolate",
        "members": [
          {
            "astId": 4628,
            "contract": "contracts/staking/StakingController.sol:StakingController",
            "label": "currentCycle",
            "offset": 0,
            "slot": "0",
            "type": "t_uint256"
          },
          {
            "astId": 4630,
            "contract": "contracts/staking/StakingController.sol:StakingController",
            "label": "cnfiTreasury",
            "offset": 0,
            "slot": "1",
            "type": "t_contract(CNFITreasury)9719"
          },
          {
            "astId": 4632,
            "contract": "contracts/staking/StakingController.sol:StakingController",
            "label": "cnfi",
            "offset": 0,
            "slot": "2",
            "type": "t_contract(ICNFI)2441"
          },
          {
            "astId": 4634,
            "contract": "contracts/staking/StakingController.sol:StakingController",
            "label": "sCnfi",
            "offset": 0,
            "slot": "3",
            "type": "t_contract(sCNFI)9655"
          },
          {
            "astId": 4636,
            "contract": "contracts/staking/StakingController.sol:StakingController",
            "label": "pCnfi",
            "offset": 0,
            "slot": "4",
            "type": "t_contract(pCNFI)9561"
          },
          {
            "astId": 4638,
            "contract": "contracts/staking/StakingController.sol:StakingController",
            "label": "nextCycleTime",
            "offset": 0,
            "slot": "5",
            "type": "t_uint256"
          },
          {
            "astId": 4640,
            "contract": "contracts/staking/StakingController.sol:StakingController",
            "label": "cycleInterval",
            "offset": 0,
            "slot": "6",
            "type": "t_uint256"
          },
          {
            "astId": 4642,
            "contract": "contracts/staking/StakingController.sol:StakingController",
            "label": "nextTimestamp",
            "offset": 0,
            "slot": "7",
            "type": "t_uint256"
          },
          {
            "astId": 4644,
            "contract": "contracts/staking/StakingController.sol:StakingController",
            "label": "inflateBy",
            "offset": 0,
            "slot": "8",
            "type": "t_uint256"
          },
          {
            "astId": 4646,
            "contract": "contracts/staking/StakingController.sol:StakingController",
            "label": "inflatepcnfiBy",
            "offset": 0,
            "slot": "9",
            "type": "t_uint256"
          },
          {
            "astId": 4648,
            "contract": "contracts/staking/StakingController.sol:StakingController",
            "label": "rewardInterval",
            "offset": 0,
            "slot": "10",
            "type": "t_uint256"
          },
          {
            "astId": 4650,
            "contract": "contracts/staking/StakingController.sol:StakingController",
            "label": "tiersLength",
            "offset": 0,
            "slot": "11",
            "type": "t_uint256"
          },
          {
            "astId": 4652,
            "contract": "contracts/staking/StakingController.sol:StakingController",
            "label": "baseUnstakePenalty",
            "offset": 0,
            "slot": "12",
            "type": "t_uint256"
          },
          {
            "astId": 4654,
            "contract": "contracts/staking/StakingController.sol:StakingController",
            "label": "commitmentViolationPenalty",
            "offset": 0,
            "slot": "13",
            "type": "t_uint256"
          },
          {
            "astId": 4656,
            "contract": "contracts/staking/StakingController.sol:StakingController",
            "label": "totalWeight",
            "offset": 0,
            "slot": "14",
            "type": "t_uint256"
          },
          {
            "astId": 4658,
            "contract": "contracts/staking/StakingController.sol:StakingController",
            "label": "lastTotalWeight",
            "offset": 0,
            "slot": "15",
            "type": "t_uint256"
          },
          {
            "astId": 4660,
            "contract": "contracts/staking/StakingController.sol:StakingController",
            "label": "cumulativeTotalWeight",
            "offset": 0,
            "slot": "16",
            "type": "t_uint256"
          },
          {
            "astId": 4664,
            "contract": "contracts/staking/StakingController.sol:StakingController",
            "label": "cycles",
            "offset": 0,
            "slot": "17",
            "type": "t_mapping(t_uint256,t_struct(Cycle)4832_storage)"
          },
          {
            "astId": 4668,
            "contract": "contracts/staking/StakingController.sol:StakingController",
            "label": "tiers",
            "offset": 0,
            "slot": "18",
            "type": "t_mapping(t_uint256,t_struct(Tier)4839_storage)"
          },
          {
            "astId": 4672,
            "contract": "contracts/staking/StakingController.sol:StakingController",
            "label": "lockCommitments",
            "offset": 0,
            "slot": "19",
            "type": "t_mapping(t_address,t_uint256)"
          },
          {
            "astId": 4676,
            "contract": "contracts/staking/StakingController.sol:StakingController",
            "label": "bonusesAccrued",
            "offset": 0,
            "slot": "20",
            "type": "t_mapping(t_address,t_uint256)"
          },
          {
            "astId": 4680,
            "contract": "contracts/staking/StakingController.sol:StakingController",
            "label": "dailyBonusesAccrued",
            "offset": 0,
            "slot": "21",
            "type": "t_mapping(t_address,t_uint256)"
          },
          {
            "astId": 4684,
            "contract": "contracts/staking/StakingController.sol:StakingController",
            "label": "weightChanges",
            "offset": 0,
            "slot": "22",
            "type": "t_mapping(t_address,t_struct(UserWeightChanges)4931_storage)"
          },
          {
            "astId": 4688,
            "contract": "contracts/staking/StakingController.sol:StakingController",
            "label": "dailyUsers",
            "offset": 0,
            "slot": "23",
            "type": "t_mapping(t_address,t_struct(DailyUser)4748_storage)"
          },
          {
            "astId": 4691,
            "contract": "contracts/staking/StakingController.sol:StakingController",
            "label": "inflateByChanged",
            "offset": 0,
            "slot": "24",
            "type": "t_array(t_uint256)dyn_storage"
          },
          {
            "astId": 4695,
            "contract": "contracts/staking/StakingController.sol:StakingController",
            "label": "inflateByValues",
            "offset": 0,
            "slot": "25",
            "type": "t_mapping(t_uint256,t_struct(InflateByChanged)4901_storage)"
          },
          {
            "astId": 4697,
            "contract": "contracts/staking/StakingController.sol:StakingController",
            "label": "pCnfiImplementation",
            "offset": 0,
            "slot": "26",
            "type": "t_address"
          },
          {
            "astId": 4699,
            "contract": "contracts/staking/StakingController.sol:StakingController",
            "label": "currentDay",
            "offset": 0,
            "slot": "27",
            "type": "t_uint256"
          }
        ],
        "numberOfBytes": "896"
      },
      "t_struct(Tier)4839_storage": {
        "encoding": "inplace",
        "label": "struct StakingControllerLib.Tier",
        "members": [
          {
            "astId": 4834,
            "contract": "contracts/staking/StakingController.sol:StakingController",
            "label": "multiplier",
            "offset": 0,
            "slot": "0",
            "type": "t_uint256"
          },
          {
            "astId": 4836,
            "contract": "contracts/staking/StakingController.sol:StakingController",
            "label": "minimum",
            "offset": 0,
            "slot": "1",
            "type": "t_uint256"
          },
          {
            "astId": 4838,
            "contract": "contracts/staking/StakingController.sol:StakingController",
            "label": "cycles",
            "offset": 0,
            "slot": "2",
            "type": "t_uint256"
          }
        ],
        "numberOfBytes": "96"
      },
      "t_struct(User)4721_storage": {
        "encoding": "inplace",
        "label": "struct StakingControllerLib.User",
        "members": [
          {
            "astId": 4702,
            "contract": "contracts/staking/StakingController.sol:StakingController",
            "label": "currentWeight",
            "offset": 0,
            "slot": "0",
            "type": "t_uint256"
          },
          {
            "astId": 4704,
            "contract": "contracts/staking/StakingController.sol:StakingController",
            "label": "minimumWeight",
            "offset": 0,
            "slot": "1",
            "type": "t_uint256"
          },
          {
            "astId": 4706,
            "contract": "contracts/staking/StakingController.sol:StakingController",
            "label": "dailyWeight",
            "offset": 0,
            "slot": "2",
            "type": "t_uint256"
          },
          {
            "astId": 4708,
            "contract": "contracts/staking/StakingController.sol:StakingController",
            "label": "multiplier",
            "offset": 0,
            "slot": "3",
            "type": "t_uint256"
          },
          {
            "astId": 4710,
            "contract": "contracts/staking/StakingController.sol:StakingController",
            "label": "redeemable",
            "offset": 0,
            "slot": "4",
            "type": "t_uint256"
          },
          {
            "astId": 4712,
            "contract": "contracts/staking/StakingController.sol:StakingController",
            "label": "daysClaimed",
            "offset": 0,
            "slot": "5",
            "type": "t_uint256"
          },
          {
            "astId": 4714,
            "contract": "contracts/staking/StakingController.sol:StakingController",
            "label": "start",
            "offset": 0,
            "slot": "6",
            "type": "t_uint256"
          },
          {
            "astId": 4716,
            "contract": "contracts/staking/StakingController.sol:StakingController",
            "label": "seen",
            "offset": 0,
            "slot": "7",
            "type": "t_bool"
          },
          {
            "astId": 4718,
            "contract": "contracts/staking/StakingController.sol:StakingController",
            "label": "currentTier",
            "offset": 0,
            "slot": "8",
            "type": "t_uint256"
          },
          {
            "astId": 4720,
            "contract": "contracts/staking/StakingController.sol:StakingController",
            "label": "cyclesHeld",
            "offset": 0,
            "slot": "9",
            "type": "t_uint256"
          }
        ],
        "numberOfBytes": "320"
      },
      "t_struct(UserWeightChanges)4931_storage": {
        "encoding": "inplace",
        "label": "struct StakingControllerLib.UserWeightChanges",
        "members": [
          {
            "astId": 4928,
            "contract": "contracts/staking/StakingController.sol:StakingController",
            "label": "changes",
            "offset": 0,
            "slot": "0",
            "type": "t_mapping(t_uint256,t_uint256)"
          },
          {
            "astId": 4930,
            "contract": "contracts/staking/StakingController.sol:StakingController",
            "label": "totalCyclesSeen",
            "offset": 0,
            "slot": "1",
            "type": "t_uint256"
          }
        ],
        "numberOfBytes": "64"
      },
      "t_uint256": {
        "encoding": "inplace",
        "label": "uint256",
        "numberOfBytes": "32"
      }
    }
  }
}